{
	"contracts/Kipubank.sol": {
		"Kipubank": {
			"abi": [
				{
					"inputs": [
						{
							"internalType": "uint256",
							"name": "_limiteDepositos",
							"type": "uint256"
						}
					],
					"stateMutability": "nonpayable",
					"type": "constructor"
				},
				{
					"inputs": [
						{
							"internalType": "uint256",
							"name": "monto",
							"type": "uint256"
						},
						{
							"internalType": "address",
							"name": "user",
							"type": "address"
						},
						{
							"internalType": "string",
							"name": "detalle",
							"type": "string"
						}
					],
					"name": "LimiteDinero",
					"type": "error"
				},
				{
					"inputs": [
						{
							"internalType": "uint256",
							"name": "monto",
							"type": "uint256"
						},
						{
							"internalType": "string",
							"name": "detalle",
							"type": "string"
						}
					],
					"name": "LimiteGlobal",
					"type": "error"
				},
				{
					"inputs": [
						{
							"internalType": "uint256",
							"name": "monto",
							"type": "uint256"
						},
						{
							"internalType": "address",
							"name": "user",
							"type": "address"
						},
						{
							"internalType": "string",
							"name": "detalle",
							"type": "string"
						}
					],
					"name": "SaldoInsuficiente",
					"type": "error"
				},
				{
					"anonymous": false,
					"inputs": [
						{
							"indexed": false,
							"internalType": "address",
							"name": "usuario",
							"type": "address"
						},
						{
							"indexed": false,
							"internalType": "uint256",
							"name": "cantidad",
							"type": "uint256"
						}
					],
					"name": "DepositoExitoso",
					"type": "event"
				},
				{
					"anonymous": false,
					"inputs": [
						{
							"indexed": false,
							"internalType": "address",
							"name": "usuario",
							"type": "address"
						},
						{
							"indexed": false,
							"internalType": "uint256",
							"name": "cantidad",
							"type": "uint256"
						}
					],
					"name": "RetiroExitoso",
					"type": "event"
				},
				{
					"inputs": [
						{
							"internalType": "address",
							"name": "",
							"type": "address"
						}
					],
					"name": "bovedaPersonal",
					"outputs": [
						{
							"internalType": "uint256",
							"name": "",
							"type": "uint256"
						}
					],
					"stateMutability": "view",
					"type": "function"
				},
				{
					"inputs": [],
					"name": "cantidadDepositos",
					"outputs": [
						{
							"internalType": "uint256",
							"name": "",
							"type": "uint256"
						}
					],
					"stateMutability": "view",
					"type": "function"
				},
				{
					"inputs": [],
					"name": "cantidadRetiros",
					"outputs": [
						{
							"internalType": "uint256",
							"name": "",
							"type": "uint256"
						}
					],
					"stateMutability": "view",
					"type": "function"
				},
				{
					"inputs": [],
					"name": "deposito",
					"outputs": [],
					"stateMutability": "payable",
					"type": "function"
				},
				{
					"inputs": [
						{
							"internalType": "uint256",
							"name": "_cantidadRetiro",
							"type": "uint256"
						}
					],
					"name": "retirar",
					"outputs": [],
					"stateMutability": "nonpayable",
					"type": "function"
				},
				{
					"inputs": [
						{
							"internalType": "address",
							"name": "usuario",
							"type": "address"
						}
					],
					"name": "verSaldo",
					"outputs": [
						{
							"internalType": "uint256",
							"name": "",
							"type": "uint256"
						}
					],
					"stateMutability": "view",
					"type": "function"
				}
			],
			"devdoc": {
				"kind": "dev",
				"methods": {
					"constructor": {
						"params": {
							"_limiteDepositos": "Monto máximo permitido en el contrato (en wei)."
						}
					},
					"deposito()": {
						"details": "Verifica que no se exceda el límite global de depósitos."
					},
					"retirar(uint256)": {
						"details": "Aplica límite de retiro por transacción y valida que el usuario tenga saldo suficiente.",
						"params": {
							"_cantidadRetiro": "Monto a retirar."
						}
					},
					"verSaldo(address)": {
						"params": {
							"usuario": "Dirección del usuario."
						},
						"returns": {
							"_0": "Saldo del usuario en wei."
						}
					}
				},
				"version": 1
			},
			"evm": {
				"assembly": "    /* \"contracts/Kipubank.sol\":124:4132  contract Kipubank is ReentrancyGuard {... */\n  mstore(0x40, 0x80)\n    /* \"contracts/Kipubank.sol\":1718:1809  constructor(uint256 _limiteDepositos) {... */\n  callvalue\n  dup1\n  iszero\n  tag_1\n  jumpi\n  revert(0x00, 0x00)\ntag_1:\n  pop\n  mload(0x40)\n  sub(codesize, bytecodeSize)\n  dup1\n  bytecodeSize\n  dup4\n  codecopy\n  dup2\n  dup2\n  add\n  0x40\n  mstore\n  dup2\n  add\n  swap1\n  tag_2\n  swap2\n  swap1\n  tag_3\n  jump\t// in\ntag_2:\n    /* \"@openzeppelin/contracts/security/ReentrancyGuard.sol\":1716:1717  1 */\n  0x01\n    /* \"@openzeppelin/contracts/security/ReentrancyGuard.sol\":1821:1828  _status */\n  0x00\n    /* \"@openzeppelin/contracts/security/ReentrancyGuard.sol\":1821:1843  _status = _NOT_ENTERED */\n  dup2\n  swap1\n  sstore\n  pop\n    /* \"contracts/Kipubank.sol\":1785:1801  _limiteDepositos */\n  dup1\n    /* \"contracts/Kipubank.sol\":1767:1782  limiteDepositos */\n  0x02\n    /* \"contracts/Kipubank.sol\":1767:1801  limiteDepositos = _limiteDepositos */\n  dup2\n  swap1\n  sstore\n  pop\n    /* \"contracts/Kipubank.sol\":1718:1809  constructor(uint256 _limiteDepositos) {... */\n  pop\n    /* \"contracts/Kipubank.sol\":124:4132  contract Kipubank is ReentrancyGuard {... */\n  jump(tag_8)\n    /* \"#utility.yul\":88:205   */\ntag_10:\n    /* \"#utility.yul\":197:198   */\n  0x00\n    /* \"#utility.yul\":194:195   */\n  0x00\n    /* \"#utility.yul\":187:199   */\n  revert\n    /* \"#utility.yul\":334:411   */\ntag_12:\n    /* \"#utility.yul\":371:378   */\n  0x00\n    /* \"#utility.yul\":400:405   */\n  dup2\n    /* \"#utility.yul\":389:405   */\n  swap1\n  pop\n    /* \"#utility.yul\":334:411   */\n  swap2\n  swap1\n  pop\n  jump\t// out\n    /* \"#utility.yul\":417:539   */\ntag_13:\n    /* \"#utility.yul\":490:514   */\n  tag_21\n    /* \"#utility.yul\":508:513   */\n  dup2\n    /* \"#utility.yul\":490:514   */\n  tag_12\n  jump\t// in\ntag_21:\n    /* \"#utility.yul\":483:488   */\n  dup2\n    /* \"#utility.yul\":480:515   */\n  eq\n    /* \"#utility.yul\":470:533   */\n  tag_22\n  jumpi\n    /* \"#utility.yul\":529:530   */\n  0x00\n    /* \"#utility.yul\":526:527   */\n  0x00\n    /* \"#utility.yul\":519:531   */\n  revert\n    /* \"#utility.yul\":470:533   */\ntag_22:\n    /* \"#utility.yul\":417:539   */\n  pop\n  jump\t// out\n    /* \"#utility.yul\":545:688   */\ntag_14:\n    /* \"#utility.yul\":602:607   */\n  0x00\n    /* \"#utility.yul\":633:639   */\n  dup2\n    /* \"#utility.yul\":627:640   */\n  mload\n    /* \"#utility.yul\":618:640   */\n  swap1\n  pop\n    /* \"#utility.yul\":649:682   */\n  tag_24\n    /* \"#utility.yul\":676:681   */\n  dup2\n    /* \"#utility.yul\":649:682   */\n  tag_13\n  jump\t// in\ntag_24:\n    /* \"#utility.yul\":545:688   */\n  swap3\n  swap2\n  pop\n  pop\n  jump\t// out\n    /* \"#utility.yul\":694:1045   */\ntag_3:\n    /* \"#utility.yul\":764:770   */\n  0x00\n    /* \"#utility.yul\":813:815   */\n  0x20\n    /* \"#utility.yul\":801:810   */\n  dup3\n    /* \"#utility.yul\":792:799   */\n  dup5\n    /* \"#utility.yul\":788:811   */\n  sub\n    /* \"#utility.yul\":784:816   */\n  slt\n    /* \"#utility.yul\":781:900   */\n  iszero\n  tag_26\n  jumpi\n    /* \"#utility.yul\":819:898   */\n  tag_27\n  tag_10\n  jump\t// in\ntag_27:\n    /* \"#utility.yul\":781:900   */\ntag_26:\n    /* \"#utility.yul\":939:940   */\n  0x00\n    /* \"#utility.yul\":964:1028   */\n  tag_28\n    /* \"#utility.yul\":1020:1027   */\n  dup5\n    /* \"#utility.yul\":1011:1017   */\n  dup3\n    /* \"#utility.yul\":1000:1009   */\n  dup6\n    /* \"#utility.yul\":996:1018   */\n  add\n    /* \"#utility.yul\":964:1028   */\n  tag_14\n  jump\t// in\ntag_28:\n    /* \"#utility.yul\":954:1028   */\n  swap2\n  pop\n    /* \"#utility.yul\":910:1038   */\n  pop\n    /* \"#utility.yul\":694:1045   */\n  swap3\n  swap2\n  pop\n  pop\n  jump\t// out\n    /* \"contracts/Kipubank.sol\":124:4132  contract Kipubank is ReentrancyGuard {... */\ntag_8:\n  dataSize(sub_0)\n  dup1\n  dataOffset(sub_0)\n  0x00\n  codecopy\n  0x00\n  return\nstop\n\nsub_0: assembly {\n        /* \"contracts/Kipubank.sol\":124:4132  contract Kipubank is ReentrancyGuard {... */\n      mstore(0x40, 0x80)\n      jumpi(tag_1, lt(calldatasize, 0x04))\n      shr(0xe0, calldataload(0x00))\n      dup1\n      0x1b1355a7\n      eq\n      tag_2\n      jumpi\n      dup1\n      0x1b3670d7\n      eq\n      tag_3\n      jumpi\n      dup1\n      0x7af327a0\n      eq\n      tag_4\n      jumpi\n      dup1\n      0xa185891e\n      eq\n      tag_5\n      jumpi\n      dup1\n      0xe8b1298f\n      eq\n      tag_6\n      jumpi\n      dup1\n      0xe8dc43f8\n      eq\n      tag_7\n      jumpi\n    tag_1:\n      revert(0x00, 0x00)\n        /* \"contracts/Kipubank.sol\":3620:3736  function verSaldo(address usuario) external view returns (uint256) {... */\n    tag_2:\n      callvalue\n      dup1\n      iszero\n      tag_8\n      jumpi\n      revert(0x00, 0x00)\n    tag_8:\n      pop\n      tag_9\n      0x04\n      dup1\n      calldatasize\n      sub\n      dup2\n      add\n      swap1\n      tag_10\n      swap2\n      swap1\n      tag_11\n      jump\t// in\n    tag_10:\n      tag_12\n      jump\t// in\n    tag_9:\n      mload(0x40)\n      tag_13\n      swap2\n      swap1\n      tag_14\n      jump\t// in\n    tag_13:\n      mload(0x40)\n      dup1\n      swap2\n      sub\n      swap1\n      return\n        /* \"contracts/Kipubank.sol\":813:843  uint256 public cantidadRetiros */\n    tag_3:\n      callvalue\n      dup1\n      iszero\n      tag_15\n      jumpi\n      revert(0x00, 0x00)\n    tag_15:\n      pop\n      tag_16\n      tag_17\n      jump\t// in\n    tag_16:\n      mload(0x40)\n      tag_18\n      swap2\n      swap1\n      tag_14\n      jump\t// in\n    tag_18:\n      mload(0x40)\n      dup1\n      swap2\n      sub\n      swap1\n      return\n        /* \"contracts/Kipubank.sol\":3059:3448  function deposito() external payable nonReentrant {... */\n    tag_4:\n      tag_19\n      tag_20\n      jump\t// in\n    tag_19:\n      stop\n        /* \"contracts/Kipubank.sol\":356:405  mapping(address => uint256) public bovedaPersonal */\n    tag_5:\n      callvalue\n      dup1\n      iszero\n      tag_21\n      jumpi\n      revert(0x00, 0x00)\n    tag_21:\n      pop\n      tag_22\n      0x04\n      dup1\n      calldatasize\n      sub\n      dup2\n      add\n      swap1\n      tag_23\n      swap2\n      swap1\n      tag_11\n      jump\t// in\n    tag_23:\n      tag_24\n      jump\t// in\n    tag_22:\n      mload(0x40)\n      tag_25\n      swap2\n      swap1\n      tag_14\n      jump\t// in\n    tag_25:\n      mload(0x40)\n      dup1\n      swap2\n      sub\n      swap1\n      return\n        /* \"contracts/Kipubank.sol\":2135:2902  function retirar(uint256 _cantidadRetiro) external nonReentrant {... */\n    tag_6:\n      callvalue\n      dup1\n      iszero\n      tag_26\n      jumpi\n      revert(0x00, 0x00)\n    tag_26:\n      pop\n      tag_27\n      0x04\n      dup1\n      calldatasize\n      sub\n      dup2\n      add\n      swap1\n      tag_28\n      swap2\n      swap1\n      tag_29\n      jump\t// in\n    tag_28:\n      tag_30\n      jump\t// in\n    tag_27:\n      stop\n        /* \"contracts/Kipubank.sol\":929:961  uint256 public cantidadDepositos */\n    tag_7:\n      callvalue\n      dup1\n      iszero\n      tag_31\n      jumpi\n      revert(0x00, 0x00)\n    tag_31:\n      pop\n      tag_32\n      tag_33\n      jump\t// in\n    tag_32:\n      mload(0x40)\n      tag_34\n      swap2\n      swap1\n      tag_14\n      jump\t// in\n    tag_34:\n      mload(0x40)\n      dup1\n      swap2\n      sub\n      swap1\n      return\n        /* \"contracts/Kipubank.sol\":3620:3736  function verSaldo(address usuario) external view returns (uint256) {... */\n    tag_12:\n        /* \"contracts/Kipubank.sol\":3678:3685  uint256 */\n      0x00\n        /* \"contracts/Kipubank.sol\":3705:3719  bovedaPersonal */\n      0x01\n        /* \"contracts/Kipubank.sol\":3705:3728  bovedaPersonal[usuario] */\n      0x00\n        /* \"contracts/Kipubank.sol\":3720:3727  usuario */\n      dup4\n        /* \"contracts/Kipubank.sol\":3705:3728  bovedaPersonal[usuario] */\n      0xffffffffffffffffffffffffffffffffffffffff\n      and\n      0xffffffffffffffffffffffffffffffffffffffff\n      and\n      dup2\n      mstore\n      0x20\n      add\n      swap1\n      dup2\n      mstore\n      0x20\n      add\n      0x00\n      keccak256\n      sload\n        /* \"contracts/Kipubank.sol\":3698:3728  return bovedaPersonal[usuario] */\n      swap1\n      pop\n        /* \"contracts/Kipubank.sol\":3620:3736  function verSaldo(address usuario) external view returns (uint256) {... */\n      swap2\n      swap1\n      pop\n      jump\t// out\n        /* \"contracts/Kipubank.sol\":813:843  uint256 public cantidadRetiros */\n    tag_17:\n      sload(0x04)\n      dup2\n      jump\t// out\n        /* \"contracts/Kipubank.sol\":3059:3448  function deposito() external payable nonReentrant {... */\n    tag_20:\n        /* \"@openzeppelin/contracts/security/ReentrancyGuard.sol\":2261:2282  _nonReentrantBefore() */\n      tag_37\n        /* \"@openzeppelin/contracts/security/ReentrancyGuard.sol\":2261:2280  _nonReentrantBefore */\n      tag_38\n        /* \"@openzeppelin/contracts/security/ReentrancyGuard.sol\":2261:2282  _nonReentrantBefore() */\n      jump\t// in\n    tag_37:\n        /* \"contracts/Kipubank.sol\":3124:3155  _pasoLimiteDepositos(msg.value) */\n      tag_40\n        /* \"contracts/Kipubank.sol\":3145:3154  msg.value */\n      callvalue\n        /* \"contracts/Kipubank.sol\":3124:3144  _pasoLimiteDepositos */\n      tag_41\n        /* \"contracts/Kipubank.sol\":3124:3155  _pasoLimiteDepositos(msg.value) */\n      jump\t// in\n    tag_40:\n        /* \"contracts/Kipubank.sol\":3120:3241  if (_pasoLimiteDepositos(msg.value)) {... */\n      iszero\n      tag_42\n      jumpi\n        /* \"contracts/Kipubank.sol\":3192:3201  msg.value */\n      callvalue\n        /* \"contracts/Kipubank.sol\":3179:3229  LimiteGlobal(msg.value, \"Limite global alcanzado\") */\n      mload(0x40)\n      0x0524ade100000000000000000000000000000000000000000000000000000000\n      dup2\n      mstore\n      0x04\n      add\n      tag_43\n      swap2\n      swap1\n      tag_44\n      jump\t// in\n    tag_43:\n      mload(0x40)\n      dup1\n      swap2\n      sub\n      swap1\n      revert\n        /* \"contracts/Kipubank.sol\":3120:3241  if (_pasoLimiteDepositos(msg.value)) {... */\n    tag_42:\n        /* \"contracts/Kipubank.sol\":3309:3318  msg.value */\n      callvalue\n        /* \"contracts/Kipubank.sol\":3280:3294  bovedaPersonal */\n      0x01\n        /* \"contracts/Kipubank.sol\":3280:3306  bovedaPersonal[msg.sender] */\n      0x00\n        /* \"contracts/Kipubank.sol\":3295:3305  msg.sender */\n      caller\n        /* \"contracts/Kipubank.sol\":3280:3306  bovedaPersonal[msg.sender] */\n      0xffffffffffffffffffffffffffffffffffffffff\n      and\n      0xffffffffffffffffffffffffffffffffffffffff\n      and\n      dup2\n      mstore\n      0x20\n      add\n      swap1\n      dup2\n      mstore\n      0x20\n      add\n      0x00\n      keccak256\n      sload\n        /* \"contracts/Kipubank.sol\":3280:3318  bovedaPersonal[msg.sender] + msg.value */\n      tag_45\n      swap2\n      swap1\n      tag_46\n      jump\t// in\n    tag_45:\n        /* \"contracts/Kipubank.sol\":3251:3265  bovedaPersonal */\n      0x01\n        /* \"contracts/Kipubank.sol\":3251:3277  bovedaPersonal[msg.sender] */\n      0x00\n        /* \"contracts/Kipubank.sol\":3266:3276  msg.sender */\n      caller\n        /* \"contracts/Kipubank.sol\":3251:3277  bovedaPersonal[msg.sender] */\n      0xffffffffffffffffffffffffffffffffffffffff\n      and\n      0xffffffffffffffffffffffffffffffffffffffff\n      and\n      dup2\n      mstore\n      0x20\n      add\n      swap1\n      dup2\n      mstore\n      0x20\n      add\n      0x00\n      keccak256\n        /* \"contracts/Kipubank.sol\":3251:3318  bovedaPersonal[msg.sender] = bovedaPersonal[msg.sender] + msg.value */\n      dup2\n      swap1\n      sstore\n      pop\n        /* \"contracts/Kipubank.sol\":3347:3356  msg.value */\n      callvalue\n        /* \"contracts/Kipubank.sol\":3329:3343  totalDepositos */\n      0x03\n      0x00\n        /* \"contracts/Kipubank.sol\":3329:3356  totalDepositos += msg.value */\n      dup3\n      dup3\n      sload\n      tag_47\n      swap2\n      swap1\n      tag_46\n      jump\t// in\n    tag_47:\n      swap3\n      pop\n      pop\n      dup2\n      swap1\n      sstore\n      pop\n        /* \"contracts/Kipubank.sol\":3367:3384  cantidadDepositos */\n      0x05\n      0x00\n        /* \"contracts/Kipubank.sol\":3367:3386  cantidadDepositos++ */\n      dup2\n      sload\n      dup1\n      swap3\n      swap2\n      swap1\n      tag_48\n      swap1\n      tag_49\n      jump\t// in\n    tag_48:\n      swap2\n      swap1\n      pop\n      sstore\n      pop\n        /* \"contracts/Kipubank.sol\":3402:3440  DepositoExitoso(msg.sender, msg.value) */\n      0x8e13c232b6ad491513c1540f8bc226e1c5072f2f8b9bcd13088a478c67fd5a49\n        /* \"contracts/Kipubank.sol\":3418:3428  msg.sender */\n      caller\n        /* \"contracts/Kipubank.sol\":3430:3439  msg.value */\n      callvalue\n        /* \"contracts/Kipubank.sol\":3402:3440  DepositoExitoso(msg.sender, msg.value) */\n      mload(0x40)\n      tag_50\n      swap3\n      swap2\n      swap1\n      tag_51\n      jump\t// in\n    tag_50:\n      mload(0x40)\n      dup1\n      swap2\n      sub\n      swap1\n      log1\n        /* \"@openzeppelin/contracts/security/ReentrancyGuard.sol\":2303:2323  _nonReentrantAfter() */\n      tag_52\n        /* \"@openzeppelin/contracts/security/ReentrancyGuard.sol\":2303:2321  _nonReentrantAfter */\n      tag_53\n        /* \"@openzeppelin/contracts/security/ReentrancyGuard.sol\":2303:2323  _nonReentrantAfter() */\n      jump\t// in\n    tag_52:\n        /* \"contracts/Kipubank.sol\":3059:3448  function deposito() external payable nonReentrant {... */\n      jump\t// out\n        /* \"contracts/Kipubank.sol\":356:405  mapping(address => uint256) public bovedaPersonal */\n    tag_24:\n      mstore(0x20, 0x01)\n      dup1\n      0x00\n      mstore\n      keccak256(0x00, 0x40)\n      0x00\n      swap2\n      pop\n      swap1\n      pop\n      sload\n      dup2\n      jump\t// out\n        /* \"contracts/Kipubank.sol\":2135:2902  function retirar(uint256 _cantidadRetiro) external nonReentrant {... */\n    tag_30:\n        /* \"@openzeppelin/contracts/security/ReentrancyGuard.sol\":2261:2282  _nonReentrantBefore() */\n      tag_55\n        /* \"@openzeppelin/contracts/security/ReentrancyGuard.sol\":2261:2280  _nonReentrantBefore */\n      tag_38\n        /* \"@openzeppelin/contracts/security/ReentrancyGuard.sol\":2261:2282  _nonReentrantBefore() */\n      jump\t// in\n    tag_55:\n        /* \"contracts/Kipubank.sol\":722:730  50 ether */\n      0x02b5e3af16b1880000\n        /* \"contracts/Kipubank.sol\":2214:2229  _cantidadRetiro */\n      dup2\n        /* \"contracts/Kipubank.sol\":2214:2245  _cantidadRetiro > LIMITE_RETIRO */\n      gt\n        /* \"contracts/Kipubank.sol\":2210:2643  if (_cantidadRetiro > LIMITE_RETIRO) {... */\n      iszero\n      tag_57\n      jumpi\n        /* \"contracts/Kipubank.sol\":2300:2315  _cantidadRetiro */\n      dup1\n        /* \"contracts/Kipubank.sol\":2334:2344  msg.sender */\n      caller\n        /* \"contracts/Kipubank.sol\":2269:2407  LimiteDinero(... */\n      mload(0x40)\n      0x21c3329f00000000000000000000000000000000000000000000000000000000\n      dup2\n      mstore\n      0x04\n      add\n      tag_58\n      swap3\n      swap2\n      swap1\n      tag_59\n      jump\t// in\n    tag_58:\n      mload(0x40)\n      dup1\n      swap2\n      sub\n      swap1\n      revert\n        /* \"contracts/Kipubank.sol\":2210:2643  if (_cantidadRetiro > LIMITE_RETIRO) {... */\n    tag_57:\n        /* \"contracts/Kipubank.sol\":2458:2473  _cantidadRetiro */\n      dup1\n        /* \"contracts/Kipubank.sol\":2429:2443  bovedaPersonal */\n      0x01\n        /* \"contracts/Kipubank.sol\":2429:2455  bovedaPersonal[msg.sender] */\n      0x00\n        /* \"contracts/Kipubank.sol\":2444:2454  msg.sender */\n      caller\n        /* \"contracts/Kipubank.sol\":2429:2455  bovedaPersonal[msg.sender] */\n      0xffffffffffffffffffffffffffffffffffffffff\n      and\n      0xffffffffffffffffffffffffffffffffffffffff\n      and\n      dup2\n      mstore\n      0x20\n      add\n      swap1\n      dup2\n      mstore\n      0x20\n      add\n      0x00\n      keccak256\n      sload\n        /* \"contracts/Kipubank.sol\":2429:2473  bovedaPersonal[msg.sender] < _cantidadRetiro */\n      lt\n        /* \"contracts/Kipubank.sol\":2425:2643  if (bovedaPersonal[msg.sender] < _cantidadRetiro) {... */\n      iszero\n      tag_61\n      jumpi\n        /* \"contracts/Kipubank.sol\":2533:2548  _cantidadRetiro */\n      dup1\n        /* \"contracts/Kipubank.sol\":2567:2577  msg.sender */\n      caller\n        /* \"contracts/Kipubank.sol\":2497:2631  SaldoInsuficiente(... */\n      mload(0x40)\n      0x7807e81400000000000000000000000000000000000000000000000000000000\n      dup2\n      mstore\n      0x04\n      add\n      tag_62\n      swap3\n      swap2\n      swap1\n      tag_63\n      jump\t// in\n    tag_62:\n      mload(0x40)\n      dup1\n      swap2\n      sub\n      swap1\n      revert\n        /* \"contracts/Kipubank.sol\":2425:2643  if (bovedaPersonal[msg.sender] < _cantidadRetiro) {... */\n    tag_61:\n        /* \"contracts/Kipubank.sol\":2737:2752  _cantidadRetiro */\n      dup1\n        /* \"contracts/Kipubank.sol\":2695:2709  bovedaPersonal */\n      0x01\n        /* \"contracts/Kipubank.sol\":2695:2721  bovedaPersonal[msg.sender] */\n      0x00\n        /* \"contracts/Kipubank.sol\":2710:2720  msg.sender */\n      caller\n        /* \"contracts/Kipubank.sol\":2695:2721  bovedaPersonal[msg.sender] */\n      0xffffffffffffffffffffffffffffffffffffffff\n      and\n      0xffffffffffffffffffffffffffffffffffffffff\n      and\n      dup2\n      mstore\n      0x20\n      add\n      swap1\n      dup2\n      mstore\n      0x20\n      add\n      0x00\n      keccak256\n      sload\n        /* \"contracts/Kipubank.sol\":2695:2752  bovedaPersonal[msg.sender] -... */\n      tag_64\n      swap2\n      swap1\n      tag_65\n      jump\t// in\n    tag_64:\n        /* \"contracts/Kipubank.sol\":2653:2667  bovedaPersonal */\n      0x01\n        /* \"contracts/Kipubank.sol\":2653:2679  bovedaPersonal[msg.sender] */\n      0x00\n        /* \"contracts/Kipubank.sol\":2668:2678  msg.sender */\n      caller\n        /* \"contracts/Kipubank.sol\":2653:2679  bovedaPersonal[msg.sender] */\n      0xffffffffffffffffffffffffffffffffffffffff\n      and\n      0xffffffffffffffffffffffffffffffffffffffff\n      and\n      dup2\n      mstore\n      0x20\n      add\n      swap1\n      dup2\n      mstore\n      0x20\n      add\n      0x00\n      keccak256\n        /* \"contracts/Kipubank.sol\":2653:2752  bovedaPersonal[msg.sender] =... */\n      dup2\n      swap1\n      sstore\n      pop\n        /* \"contracts/Kipubank.sol\":2763:2778  cantidadRetiros */\n      0x04\n      0x00\n        /* \"contracts/Kipubank.sol\":2763:2780  cantidadRetiros++ */\n      dup2\n      sload\n      dup1\n      swap3\n      swap2\n      swap1\n      tag_66\n      swap1\n      tag_49\n      jump\t// in\n    tag_66:\n      swap2\n      swap1\n      pop\n      sstore\n      pop\n        /* \"contracts/Kipubank.sol\":2799:2809  msg.sender */\n      caller\n        /* \"contracts/Kipubank.sol\":2791:2819  payable(msg.sender).transfer */\n      0xffffffffffffffffffffffffffffffffffffffff\n      and\n        /* \"contracts/Kipubank.sol\":2791:2836  payable(msg.sender).transfer(_cantidadRetiro) */\n      0x08fc\n        /* \"contracts/Kipubank.sol\":2820:2835  _cantidadRetiro */\n      dup3\n        /* \"contracts/Kipubank.sol\":2791:2836  payable(msg.sender).transfer(_cantidadRetiro) */\n      swap1\n      dup2\n      iszero\n      mul\n      swap1\n      mload(0x40)\n      0x00\n      mload(0x40)\n      dup1\n      dup4\n      sub\n      dup2\n      dup6\n      dup9\n      dup9\n      call\n      swap4\n      pop\n      pop\n      pop\n      pop\n      iszero\n      dup1\n      iszero\n      tag_68\n      jumpi\n      returndatacopy(0x00, 0x00, returndatasize)\n      revert(0x00, returndatasize)\n    tag_68:\n      pop\n        /* \"contracts/Kipubank.sol\":2852:2894  RetiroExitoso(msg.sender, _cantidadRetiro) */\n      0x6553d752fc46d96aab714525ba8f58c666892e2a31f2bf65d6d87db515bf81aa\n        /* \"contracts/Kipubank.sol\":2866:2876  msg.sender */\n      caller\n        /* \"contracts/Kipubank.sol\":2878:2893  _cantidadRetiro */\n      dup3\n        /* \"contracts/Kipubank.sol\":2852:2894  RetiroExitoso(msg.sender, _cantidadRetiro) */\n      mload(0x40)\n      tag_69\n      swap3\n      swap2\n      swap1\n      tag_51\n      jump\t// in\n    tag_69:\n      mload(0x40)\n      dup1\n      swap2\n      sub\n      swap1\n      log1\n        /* \"@openzeppelin/contracts/security/ReentrancyGuard.sol\":2303:2323  _nonReentrantAfter() */\n      tag_70\n        /* \"@openzeppelin/contracts/security/ReentrancyGuard.sol\":2303:2321  _nonReentrantAfter */\n      tag_53\n        /* \"@openzeppelin/contracts/security/ReentrancyGuard.sol\":2303:2323  _nonReentrantAfter() */\n      jump\t// in\n    tag_70:\n        /* \"contracts/Kipubank.sol\":2135:2902  function retirar(uint256 _cantidadRetiro) external nonReentrant {... */\n      pop\n      jump\t// out\n        /* \"contracts/Kipubank.sol\":929:961  uint256 public cantidadDepositos */\n    tag_33:\n      sload(0x05)\n      dup2\n      jump\t// out\n        /* \"@openzeppelin/contracts/security/ReentrancyGuard.sol\":2336:2623  function _nonReentrantBefore() private {... */\n    tag_38:\n        /* \"@openzeppelin/contracts/security/ReentrancyGuard.sol\":1759:1760  2 */\n      0x02\n        /* \"@openzeppelin/contracts/security/ReentrancyGuard.sol\":2468:2475  _status */\n      sload(0x00)\n        /* \"@openzeppelin/contracts/security/ReentrancyGuard.sol\":2468:2487  _status != _ENTERED */\n      sub\n        /* \"@openzeppelin/contracts/security/ReentrancyGuard.sol\":2460:2523  require(_status != _ENTERED, \"ReentrancyGuard: reentrant call\") */\n      tag_72\n      jumpi\n      mload(0x40)\n      0x08c379a000000000000000000000000000000000000000000000000000000000\n      dup2\n      mstore\n      0x04\n      add\n      tag_73\n      swap1\n      tag_74\n      jump\t// in\n    tag_73:\n      mload(0x40)\n      dup1\n      swap2\n      sub\n      swap1\n      revert\n    tag_72:\n        /* \"@openzeppelin/contracts/security/ReentrancyGuard.sol\":1759:1760  2 */\n      0x02\n        /* \"@openzeppelin/contracts/security/ReentrancyGuard.sol\":2598:2605  _status */\n      0x00\n        /* \"@openzeppelin/contracts/security/ReentrancyGuard.sol\":2598:2616  _status = _ENTERED */\n      dup2\n      swap1\n      sstore\n      pop\n        /* \"@openzeppelin/contracts/security/ReentrancyGuard.sol\":2336:2623  function _nonReentrantBefore() private {... */\n      jump\t// out\n        /* \"contracts/Kipubank.sol\":3987:4129  function _pasoLimiteDepositos(uint256 monto) private view returns (bool) {... */\n    tag_41:\n        /* \"contracts/Kipubank.sol\":4054:4058  bool */\n      0x00\n        /* \"contracts/Kipubank.sol\":4106:4121  limiteDepositos */\n      sload(0x02)\n        /* \"contracts/Kipubank.sol\":4096:4101  monto */\n      dup3\n        /* \"contracts/Kipubank.sol\":4079:4093  totalDepositos */\n      sload(0x03)\n        /* \"contracts/Kipubank.sol\":4079:4101  totalDepositos + monto */\n      tag_76\n      swap2\n      swap1\n      tag_46\n      jump\t// in\n    tag_76:\n        /* \"contracts/Kipubank.sol\":4078:4121  (totalDepositos + monto) >= limiteDepositos */\n      lt\n      iszero\n        /* \"contracts/Kipubank.sol\":4071:4121  return (totalDepositos + monto) >= limiteDepositos */\n      swap1\n      pop\n        /* \"contracts/Kipubank.sol\":3987:4129  function _pasoLimiteDepositos(uint256 monto) private view returns (bool) {... */\n      swap2\n      swap1\n      pop\n      jump\t// out\n        /* \"@openzeppelin/contracts/security/ReentrancyGuard.sol\":2629:2838  function _nonReentrantAfter() private {... */\n    tag_53:\n        /* \"@openzeppelin/contracts/security/ReentrancyGuard.sol\":1716:1717  1 */\n      0x01\n        /* \"@openzeppelin/contracts/security/ReentrancyGuard.sol\":2809:2816  _status */\n      0x00\n        /* \"@openzeppelin/contracts/security/ReentrancyGuard.sol\":2809:2831  _status = _NOT_ENTERED */\n      dup2\n      swap1\n      sstore\n      pop\n        /* \"@openzeppelin/contracts/security/ReentrancyGuard.sol\":2629:2838  function _nonReentrantAfter() private {... */\n      jump\t// out\n        /* \"#utility.yul\":88:205   */\n    tag_79:\n        /* \"#utility.yul\":197:198   */\n      0x00\n        /* \"#utility.yul\":194:195   */\n      0x00\n        /* \"#utility.yul\":187:199   */\n      revert\n        /* \"#utility.yul\":334:460   */\n    tag_81:\n        /* \"#utility.yul\":371:378   */\n      0x00\n        /* \"#utility.yul\":411:453   */\n      0xffffffffffffffffffffffffffffffffffffffff\n        /* \"#utility.yul\":404:409   */\n      dup3\n        /* \"#utility.yul\":400:454   */\n      and\n        /* \"#utility.yul\":389:454   */\n      swap1\n      pop\n        /* \"#utility.yul\":334:460   */\n      swap2\n      swap1\n      pop\n      jump\t// out\n        /* \"#utility.yul\":466:562   */\n    tag_82:\n        /* \"#utility.yul\":503:510   */\n      0x00\n        /* \"#utility.yul\":532:556   */\n      tag_106\n        /* \"#utility.yul\":550:555   */\n      dup3\n        /* \"#utility.yul\":532:556   */\n      tag_81\n      jump\t// in\n    tag_106:\n        /* \"#utility.yul\":521:556   */\n      swap1\n      pop\n        /* \"#utility.yul\":466:562   */\n      swap2\n      swap1\n      pop\n      jump\t// out\n        /* \"#utility.yul\":568:690   */\n    tag_83:\n        /* \"#utility.yul\":641:665   */\n      tag_108\n        /* \"#utility.yul\":659:664   */\n      dup2\n        /* \"#utility.yul\":641:665   */\n      tag_82\n      jump\t// in\n    tag_108:\n        /* \"#utility.yul\":634:639   */\n      dup2\n        /* \"#utility.yul\":631:666   */\n      eq\n        /* \"#utility.yul\":621:684   */\n      tag_109\n      jumpi\n        /* \"#utility.yul\":680:681   */\n      0x00\n        /* \"#utility.yul\":677:678   */\n      0x00\n        /* \"#utility.yul\":670:682   */\n      revert\n        /* \"#utility.yul\":621:684   */\n    tag_109:\n        /* \"#utility.yul\":568:690   */\n      pop\n      jump\t// out\n        /* \"#utility.yul\":696:835   */\n    tag_84:\n        /* \"#utility.yul\":742:747   */\n      0x00\n        /* \"#utility.yul\":780:786   */\n      dup2\n        /* \"#utility.yul\":767:787   */\n      calldataload\n        /* \"#utility.yul\":758:787   */\n      swap1\n      pop\n        /* \"#utility.yul\":796:829   */\n      tag_111\n        /* \"#utility.yul\":823:828   */\n      dup2\n        /* \"#utility.yul\":796:829   */\n      tag_83\n      jump\t// in\n    tag_111:\n        /* \"#utility.yul\":696:835   */\n      swap3\n      swap2\n      pop\n      pop\n      jump\t// out\n        /* \"#utility.yul\":841:1170   */\n    tag_11:\n        /* \"#utility.yul\":900:906   */\n      0x00\n        /* \"#utility.yul\":949:951   */\n      0x20\n        /* \"#utility.yul\":937:946   */\n      dup3\n        /* \"#utility.yul\":928:935   */\n      dup5\n        /* \"#utility.yul\":924:947   */\n      sub\n        /* \"#utility.yul\":920:952   */\n      slt\n        /* \"#utility.yul\":917:1036   */\n      iszero\n      tag_113\n      jumpi\n        /* \"#utility.yul\":955:1034   */\n      tag_114\n      tag_79\n      jump\t// in\n    tag_114:\n        /* \"#utility.yul\":917:1036   */\n    tag_113:\n        /* \"#utility.yul\":1075:1076   */\n      0x00\n        /* \"#utility.yul\":1100:1153   */\n      tag_115\n        /* \"#utility.yul\":1145:1152   */\n      dup5\n        /* \"#utility.yul\":1136:1142   */\n      dup3\n        /* \"#utility.yul\":1125:1134   */\n      dup6\n        /* \"#utility.yul\":1121:1143   */\n      add\n        /* \"#utility.yul\":1100:1153   */\n      tag_84\n      jump\t// in\n    tag_115:\n        /* \"#utility.yul\":1090:1153   */\n      swap2\n      pop\n        /* \"#utility.yul\":1046:1163   */\n      pop\n        /* \"#utility.yul\":841:1170   */\n      swap3\n      swap2\n      pop\n      pop\n      jump\t// out\n        /* \"#utility.yul\":1176:1253   */\n    tag_85:\n        /* \"#utility.yul\":1213:1220   */\n      0x00\n        /* \"#utility.yul\":1242:1247   */\n      dup2\n        /* \"#utility.yul\":1231:1247   */\n      swap1\n      pop\n        /* \"#utility.yul\":1176:1253   */\n      swap2\n      swap1\n      pop\n      jump\t// out\n        /* \"#utility.yul\":1259:1377   */\n    tag_86:\n        /* \"#utility.yul\":1346:1370   */\n      tag_118\n        /* \"#utility.yul\":1364:1369   */\n      dup2\n        /* \"#utility.yul\":1346:1370   */\n      tag_85\n      jump\t// in\n    tag_118:\n        /* \"#utility.yul\":1341:1344   */\n      dup3\n        /* \"#utility.yul\":1334:1371   */\n      mstore\n        /* \"#utility.yul\":1259:1377   */\n      pop\n      pop\n      jump\t// out\n        /* \"#utility.yul\":1383:1605   */\n    tag_14:\n        /* \"#utility.yul\":1476:1480   */\n      0x00\n        /* \"#utility.yul\":1514:1516   */\n      0x20\n        /* \"#utility.yul\":1503:1512   */\n      dup3\n        /* \"#utility.yul\":1499:1517   */\n      add\n        /* \"#utility.yul\":1491:1517   */\n      swap1\n      pop\n        /* \"#utility.yul\":1527:1598   */\n      tag_120\n        /* \"#utility.yul\":1595:1596   */\n      0x00\n        /* \"#utility.yul\":1584:1593   */\n      dup4\n        /* \"#utility.yul\":1580:1597   */\n      add\n        /* \"#utility.yul\":1571:1577   */\n      dup5\n        /* \"#utility.yul\":1527:1598   */\n      tag_86\n      jump\t// in\n    tag_120:\n        /* \"#utility.yul\":1383:1605   */\n      swap3\n      swap2\n      pop\n      pop\n      jump\t// out\n        /* \"#utility.yul\":1611:1733   */\n    tag_87:\n        /* \"#utility.yul\":1684:1708   */\n      tag_122\n        /* \"#utility.yul\":1702:1707   */\n      dup2\n        /* \"#utility.yul\":1684:1708   */\n      tag_85\n      jump\t// in\n    tag_122:\n        /* \"#utility.yul\":1677:1682   */\n      dup2\n        /* \"#utility.yul\":1674:1709   */\n      eq\n        /* \"#utility.yul\":1664:1727   */\n      tag_123\n      jumpi\n        /* \"#utility.yul\":1723:1724   */\n      0x00\n        /* \"#utility.yul\":1720:1721   */\n      0x00\n        /* \"#utility.yul\":1713:1725   */\n      revert\n        /* \"#utility.yul\":1664:1727   */\n    tag_123:\n        /* \"#utility.yul\":1611:1733   */\n      pop\n      jump\t// out\n        /* \"#utility.yul\":1739:1878   */\n    tag_88:\n        /* \"#utility.yul\":1785:1790   */\n      0x00\n        /* \"#utility.yul\":1823:1829   */\n      dup2\n        /* \"#utility.yul\":1810:1830   */\n      calldataload\n        /* \"#utility.yul\":1801:1830   */\n      swap1\n      pop\n        /* \"#utility.yul\":1839:1872   */\n      tag_125\n        /* \"#utility.yul\":1866:1871   */\n      dup2\n        /* \"#utility.yul\":1839:1872   */\n      tag_87\n      jump\t// in\n    tag_125:\n        /* \"#utility.yul\":1739:1878   */\n      swap3\n      swap2\n      pop\n      pop\n      jump\t// out\n        /* \"#utility.yul\":1884:2213   */\n    tag_29:\n        /* \"#utility.yul\":1943:1949   */\n      0x00\n        /* \"#utility.yul\":1992:1994   */\n      0x20\n        /* \"#utility.yul\":1980:1989   */\n      dup3\n        /* \"#utility.yul\":1971:1978   */\n      dup5\n        /* \"#utility.yul\":1967:1990   */\n      sub\n        /* \"#utility.yul\":1963:1995   */\n      slt\n        /* \"#utility.yul\":1960:2079   */\n      iszero\n      tag_127\n      jumpi\n        /* \"#utility.yul\":1998:2077   */\n      tag_128\n      tag_79\n      jump\t// in\n    tag_128:\n        /* \"#utility.yul\":1960:2079   */\n    tag_127:\n        /* \"#utility.yul\":2118:2119   */\n      0x00\n        /* \"#utility.yul\":2143:2196   */\n      tag_129\n        /* \"#utility.yul\":2188:2195   */\n      dup5\n        /* \"#utility.yul\":2179:2185   */\n      dup3\n        /* \"#utility.yul\":2168:2177   */\n      dup6\n        /* \"#utility.yul\":2164:2186   */\n      add\n        /* \"#utility.yul\":2143:2196   */\n      tag_88\n      jump\t// in\n    tag_129:\n        /* \"#utility.yul\":2133:2196   */\n      swap2\n      pop\n        /* \"#utility.yul\":2089:2206   */\n      pop\n        /* \"#utility.yul\":1884:2213   */\n      swap3\n      swap2\n      pop\n      pop\n      jump\t// out\n        /* \"#utility.yul\":2219:2388   */\n    tag_89:\n        /* \"#utility.yul\":2303:2314   */\n      0x00\n        /* \"#utility.yul\":2337:2343   */\n      dup3\n        /* \"#utility.yul\":2332:2335   */\n      dup3\n        /* \"#utility.yul\":2325:2344   */\n      mstore\n        /* \"#utility.yul\":2377:2381   */\n      0x20\n        /* \"#utility.yul\":2372:2375   */\n      dup3\n        /* \"#utility.yul\":2368:2382   */\n      add\n        /* \"#utility.yul\":2353:2382   */\n      swap1\n      pop\n        /* \"#utility.yul\":2219:2388   */\n      swap3\n      swap2\n      pop\n      pop\n      jump\t// out\n        /* \"#utility.yul\":2394:2567   */\n    tag_90:\n        /* \"#utility.yul\":2534:2559   */\n      0x4c696d69746520676c6f62616c20616c63616e7a61646f000000000000000000\n        /* \"#utility.yul\":2530:2531   */\n      0x00\n        /* \"#utility.yul\":2522:2528   */\n      dup3\n        /* \"#utility.yul\":2518:2532   */\n      add\n        /* \"#utility.yul\":2511:2560   */\n      mstore\n        /* \"#utility.yul\":2394:2567   */\n      pop\n      jump\t// out\n        /* \"#utility.yul\":2573:2939   */\n    tag_91:\n        /* \"#utility.yul\":2715:2718   */\n      0x00\n        /* \"#utility.yul\":2736:2803   */\n      tag_133\n        /* \"#utility.yul\":2800:2802   */\n      0x17\n        /* \"#utility.yul\":2795:2798   */\n      dup4\n        /* \"#utility.yul\":2736:2803   */\n      tag_89\n      jump\t// in\n    tag_133:\n        /* \"#utility.yul\":2729:2803   */\n      swap2\n      pop\n        /* \"#utility.yul\":2812:2905   */\n      tag_134\n        /* \"#utility.yul\":2901:2904   */\n      dup3\n        /* \"#utility.yul\":2812:2905   */\n      tag_90\n      jump\t// in\n    tag_134:\n        /* \"#utility.yul\":2930:2932   */\n      0x20\n        /* \"#utility.yul\":2925:2928   */\n      dup3\n        /* \"#utility.yul\":2921:2933   */\n      add\n        /* \"#utility.yul\":2914:2933   */\n      swap1\n      pop\n        /* \"#utility.yul\":2573:2939   */\n      swap2\n      swap1\n      pop\n      jump\t// out\n        /* \"#utility.yul\":2945:3474   */\n    tag_44:\n        /* \"#utility.yul\":3139:3143   */\n      0x00\n        /* \"#utility.yul\":3177:3179   */\n      0x40\n        /* \"#utility.yul\":3166:3175   */\n      dup3\n        /* \"#utility.yul\":3162:3180   */\n      add\n        /* \"#utility.yul\":3154:3180   */\n      swap1\n      pop\n        /* \"#utility.yul\":3190:3261   */\n      tag_136\n        /* \"#utility.yul\":3258:3259   */\n      0x00\n        /* \"#utility.yul\":3247:3256   */\n      dup4\n        /* \"#utility.yul\":3243:3260   */\n      add\n        /* \"#utility.yul\":3234:3240   */\n      dup5\n        /* \"#utility.yul\":3190:3261   */\n      tag_86\n      jump\t// in\n    tag_136:\n        /* \"#utility.yul\":3308:3317   */\n      dup2\n        /* \"#utility.yul\":3302:3306   */\n      dup2\n        /* \"#utility.yul\":3298:3318   */\n      sub\n        /* \"#utility.yul\":3293:3295   */\n      0x20\n        /* \"#utility.yul\":3282:3291   */\n      dup4\n        /* \"#utility.yul\":3278:3296   */\n      add\n        /* \"#utility.yul\":3271:3319   */\n      mstore\n        /* \"#utility.yul\":3336:3467   */\n      tag_137\n        /* \"#utility.yul\":3462:3466   */\n      dup2\n        /* \"#utility.yul\":3336:3467   */\n      tag_91\n      jump\t// in\n    tag_137:\n        /* \"#utility.yul\":3328:3467   */\n      swap1\n      pop\n        /* \"#utility.yul\":2945:3474   */\n      swap3\n      swap2\n      pop\n      pop\n      jump\t// out\n        /* \"#utility.yul\":3480:3660   */\n    tag_92:\n        /* \"#utility.yul\":3528:3605   */\n      0x4e487b7100000000000000000000000000000000000000000000000000000000\n        /* \"#utility.yul\":3525:3526   */\n      0x00\n        /* \"#utility.yul\":3518:3606   */\n      mstore\n        /* \"#utility.yul\":3625:3629   */\n      0x11\n        /* \"#utility.yul\":3622:3623   */\n      0x04\n        /* \"#utility.yul\":3615:3630   */\n      mstore\n        /* \"#utility.yul\":3649:3653   */\n      0x24\n        /* \"#utility.yul\":3646:3647   */\n      0x00\n        /* \"#utility.yul\":3639:3654   */\n      revert\n        /* \"#utility.yul\":3666:3857   */\n    tag_46:\n        /* \"#utility.yul\":3706:3709   */\n      0x00\n        /* \"#utility.yul\":3725:3745   */\n      tag_140\n        /* \"#utility.yul\":3743:3744   */\n      dup3\n        /* \"#utility.yul\":3725:3745   */\n      tag_85\n      jump\t// in\n    tag_140:\n        /* \"#utility.yul\":3720:3745   */\n      swap2\n      pop\n        /* \"#utility.yul\":3759:3779   */\n      tag_141\n        /* \"#utility.yul\":3777:3778   */\n      dup4\n        /* \"#utility.yul\":3759:3779   */\n      tag_85\n      jump\t// in\n    tag_141:\n        /* \"#utility.yul\":3754:3779   */\n      swap3\n      pop\n        /* \"#utility.yul\":3802:3803   */\n      dup3\n        /* \"#utility.yul\":3799:3800   */\n      dup3\n        /* \"#utility.yul\":3795:3804   */\n      add\n        /* \"#utility.yul\":3788:3804   */\n      swap1\n      pop\n        /* \"#utility.yul\":3823:3826   */\n      dup1\n        /* \"#utility.yul\":3820:3821   */\n      dup3\n        /* \"#utility.yul\":3817:3827   */\n      gt\n        /* \"#utility.yul\":3814:3850   */\n      iszero\n      tag_142\n      jumpi\n        /* \"#utility.yul\":3830:3848   */\n      tag_143\n      tag_92\n      jump\t// in\n    tag_143:\n        /* \"#utility.yul\":3814:3850   */\n    tag_142:\n        /* \"#utility.yul\":3666:3857   */\n      swap3\n      swap2\n      pop\n      pop\n      jump\t// out\n        /* \"#utility.yul\":3863:4096   */\n    tag_49:\n        /* \"#utility.yul\":3902:3905   */\n      0x00\n        /* \"#utility.yul\":3925:3949   */\n      tag_145\n        /* \"#utility.yul\":3943:3948   */\n      dup3\n        /* \"#utility.yul\":3925:3949   */\n      tag_85\n      jump\t// in\n    tag_145:\n        /* \"#utility.yul\":3916:3949   */\n      swap2\n      pop\n        /* \"#utility.yul\":3971:4037   */\n      0xffffffffffffffffffffffffffffffffffffffffffffffffffffffffffffffff\n        /* \"#utility.yul\":3964:3969   */\n      dup3\n        /* \"#utility.yul\":3961:4038   */\n      sub\n        /* \"#utility.yul\":3958:4061   */\n      tag_146\n      jumpi\n        /* \"#utility.yul\":4041:4059   */\n      tag_147\n      tag_92\n      jump\t// in\n    tag_147:\n        /* \"#utility.yul\":3958:4061   */\n    tag_146:\n        /* \"#utility.yul\":4088:4089   */\n      0x01\n        /* \"#utility.yul\":4081:4086   */\n      dup3\n        /* \"#utility.yul\":4077:4090   */\n      add\n        /* \"#utility.yul\":4070:4090   */\n      swap1\n      pop\n        /* \"#utility.yul\":3863:4096   */\n      swap2\n      swap1\n      pop\n      jump\t// out\n        /* \"#utility.yul\":4102:4220   */\n    tag_93:\n        /* \"#utility.yul\":4189:4213   */\n      tag_149\n        /* \"#utility.yul\":4207:4212   */\n      dup2\n        /* \"#utility.yul\":4189:4213   */\n      tag_82\n      jump\t// in\n    tag_149:\n        /* \"#utility.yul\":4184:4187   */\n      dup3\n        /* \"#utility.yul\":4177:4214   */\n      mstore\n        /* \"#utility.yul\":4102:4220   */\n      pop\n      pop\n      jump\t// out\n        /* \"#utility.yul\":4226:4558   */\n    tag_51:\n        /* \"#utility.yul\":4347:4351   */\n      0x00\n        /* \"#utility.yul\":4385:4387   */\n      0x40\n        /* \"#utility.yul\":4374:4383   */\n      dup3\n        /* \"#utility.yul\":4370:4388   */\n      add\n        /* \"#utility.yul\":4362:4388   */\n      swap1\n      pop\n        /* \"#utility.yul\":4398:4469   */\n      tag_151\n        /* \"#utility.yul\":4466:4467   */\n      0x00\n        /* \"#utility.yul\":4455:4464   */\n      dup4\n        /* \"#utility.yul\":4451:4468   */\n      add\n        /* \"#utility.yul\":4442:4448   */\n      dup6\n        /* \"#utility.yul\":4398:4469   */\n      tag_93\n      jump\t// in\n    tag_151:\n        /* \"#utility.yul\":4479:4551   */\n      tag_152\n        /* \"#utility.yul\":4547:4549   */\n      0x20\n        /* \"#utility.yul\":4536:4545   */\n      dup4\n        /* \"#utility.yul\":4532:4550   */\n      add\n        /* \"#utility.yul\":4523:4529   */\n      dup5\n        /* \"#utility.yul\":4479:4551   */\n      tag_86\n      jump\t// in\n    tag_152:\n        /* \"#utility.yul\":4226:4558   */\n      swap4\n      swap3\n      pop\n      pop\n      pop\n      jump\t// out\n        /* \"#utility.yul\":4564:4741   */\n    tag_94:\n        /* \"#utility.yul\":4704:4733   */\n      0x6e6f207075656465732072657469726172206d61732064652035300000000000\n        /* \"#utility.yul\":4700:4701   */\n      0x00\n        /* \"#utility.yul\":4692:4698   */\n      dup3\n        /* \"#utility.yul\":4688:4702   */\n      add\n        /* \"#utility.yul\":4681:4734   */\n      mstore\n        /* \"#utility.yul\":4564:4741   */\n      pop\n      jump\t// out\n        /* \"#utility.yul\":4747:5113   */\n    tag_95:\n        /* \"#utility.yul\":4889:4892   */\n      0x00\n        /* \"#utility.yul\":4910:4977   */\n      tag_155\n        /* \"#utility.yul\":4974:4976   */\n      0x1b\n        /* \"#utility.yul\":4969:4972   */\n      dup4\n        /* \"#utility.yul\":4910:4977   */\n      tag_89\n      jump\t// in\n    tag_155:\n        /* \"#utility.yul\":4903:4977   */\n      swap2\n      pop\n        /* \"#utility.yul\":4986:5079   */\n      tag_156\n        /* \"#utility.yul\":5075:5078   */\n      dup3\n        /* \"#utility.yul\":4986:5079   */\n      tag_94\n      jump\t// in\n    tag_156:\n        /* \"#utility.yul\":5104:5106   */\n      0x20\n        /* \"#utility.yul\":5099:5102   */\n      dup3\n        /* \"#utility.yul\":5095:5107   */\n      add\n        /* \"#utility.yul\":5088:5107   */\n      swap1\n      pop\n        /* \"#utility.yul\":4747:5113   */\n      swap2\n      swap1\n      pop\n      jump\t// out\n        /* \"#utility.yul\":5119:5758   */\n    tag_59:\n        /* \"#utility.yul\":5341:5345   */\n      0x00\n        /* \"#utility.yul\":5379:5381   */\n      0x60\n        /* \"#utility.yul\":5368:5377   */\n      dup3\n        /* \"#utility.yul\":5364:5382   */\n      add\n        /* \"#utility.yul\":5356:5382   */\n      swap1\n      pop\n        /* \"#utility.yul\":5392:5463   */\n      tag_158\n        /* \"#utility.yul\":5460:5461   */\n      0x00\n        /* \"#utility.yul\":5449:5458   */\n      dup4\n        /* \"#utility.yul\":5445:5462   */\n      add\n        /* \"#utility.yul\":5436:5442   */\n      dup6\n        /* \"#utility.yul\":5392:5463   */\n      tag_86\n      jump\t// in\n    tag_158:\n        /* \"#utility.yul\":5473:5545   */\n      tag_159\n        /* \"#utility.yul\":5541:5543   */\n      0x20\n        /* \"#utility.yul\":5530:5539   */\n      dup4\n        /* \"#utility.yul\":5526:5544   */\n      add\n        /* \"#utility.yul\":5517:5523   */\n      dup5\n        /* \"#utility.yul\":5473:5545   */\n      tag_93\n      jump\t// in\n    tag_159:\n        /* \"#utility.yul\":5592:5601   */\n      dup2\n        /* \"#utility.yul\":5586:5590   */\n      dup2\n        /* \"#utility.yul\":5582:5602   */\n      sub\n        /* \"#utility.yul\":5577:5579   */\n      0x40\n        /* \"#utility.yul\":5566:5575   */\n      dup4\n        /* \"#utility.yul\":5562:5580   */\n      add\n        /* \"#utility.yul\":5555:5603   */\n      mstore\n        /* \"#utility.yul\":5620:5751   */\n      tag_160\n        /* \"#utility.yul\":5746:5750   */\n      dup2\n        /* \"#utility.yul\":5620:5751   */\n      tag_95\n      jump\t// in\n    tag_160:\n        /* \"#utility.yul\":5612:5751   */\n      swap1\n      pop\n        /* \"#utility.yul\":5119:5758   */\n      swap4\n      swap3\n      pop\n      pop\n      pop\n      jump\t// out\n        /* \"#utility.yul\":5764:5932   */\n    tag_96:\n        /* \"#utility.yul\":5904:5924   */\n      0x536c61646f20696e737566696369656e74650000000000000000000000000000\n        /* \"#utility.yul\":5900:5901   */\n      0x00\n        /* \"#utility.yul\":5892:5898   */\n      dup3\n        /* \"#utility.yul\":5888:5902   */\n      add\n        /* \"#utility.yul\":5881:5925   */\n      mstore\n        /* \"#utility.yul\":5764:5932   */\n      pop\n      jump\t// out\n        /* \"#utility.yul\":5938:6304   */\n    tag_97:\n        /* \"#utility.yul\":6080:6083   */\n      0x00\n        /* \"#utility.yul\":6101:6168   */\n      tag_163\n        /* \"#utility.yul\":6165:6167   */\n      0x12\n        /* \"#utility.yul\":6160:6163   */\n      dup4\n        /* \"#utility.yul\":6101:6168   */\n      tag_89\n      jump\t// in\n    tag_163:\n        /* \"#utility.yul\":6094:6168   */\n      swap2\n      pop\n        /* \"#utility.yul\":6177:6270   */\n      tag_164\n        /* \"#utility.yul\":6266:6269   */\n      dup3\n        /* \"#utility.yul\":6177:6270   */\n      tag_96\n      jump\t// in\n    tag_164:\n        /* \"#utility.yul\":6295:6297   */\n      0x20\n        /* \"#utility.yul\":6290:6293   */\n      dup3\n        /* \"#utility.yul\":6286:6298   */\n      add\n        /* \"#utility.yul\":6279:6298   */\n      swap1\n      pop\n        /* \"#utility.yul\":5938:6304   */\n      swap2\n      swap1\n      pop\n      jump\t// out\n        /* \"#utility.yul\":6310:6949   */\n    tag_63:\n        /* \"#utility.yul\":6532:6536   */\n      0x00\n        /* \"#utility.yul\":6570:6572   */\n      0x60\n        /* \"#utility.yul\":6559:6568   */\n      dup3\n        /* \"#utility.yul\":6555:6573   */\n      add\n        /* \"#utility.yul\":6547:6573   */\n      swap1\n      pop\n        /* \"#utility.yul\":6583:6654   */\n      tag_166\n        /* \"#utility.yul\":6651:6652   */\n      0x00\n        /* \"#utility.yul\":6640:6649   */\n      dup4\n        /* \"#utility.yul\":6636:6653   */\n      add\n        /* \"#utility.yul\":6627:6633   */\n      dup6\n        /* \"#utility.yul\":6583:6654   */\n      tag_86\n      jump\t// in\n    tag_166:\n        /* \"#utility.yul\":6664:6736   */\n      tag_167\n        /* \"#utility.yul\":6732:6734   */\n      0x20\n        /* \"#utility.yul\":6721:6730   */\n      dup4\n        /* \"#utility.yul\":6717:6735   */\n      add\n        /* \"#utility.yul\":6708:6714   */\n      dup5\n        /* \"#utility.yul\":6664:6736   */\n      tag_93\n      jump\t// in\n    tag_167:\n        /* \"#utility.yul\":6783:6792   */\n      dup2\n        /* \"#utility.yul\":6777:6781   */\n      dup2\n        /* \"#utility.yul\":6773:6793   */\n      sub\n        /* \"#utility.yul\":6768:6770   */\n      0x40\n        /* \"#utility.yul\":6757:6766   */\n      dup4\n        /* \"#utility.yul\":6753:6771   */\n      add\n        /* \"#utility.yul\":6746:6794   */\n      mstore\n        /* \"#utility.yul\":6811:6942   */\n      tag_168\n        /* \"#utility.yul\":6937:6941   */\n      dup2\n        /* \"#utility.yul\":6811:6942   */\n      tag_97\n      jump\t// in\n    tag_168:\n        /* \"#utility.yul\":6803:6942   */\n      swap1\n      pop\n        /* \"#utility.yul\":6310:6949   */\n      swap4\n      swap3\n      pop\n      pop\n      pop\n      jump\t// out\n        /* \"#utility.yul\":6955:7149   */\n    tag_65:\n        /* \"#utility.yul\":6995:6999   */\n      0x00\n        /* \"#utility.yul\":7015:7035   */\n      tag_170\n        /* \"#utility.yul\":7033:7034   */\n      dup3\n        /* \"#utility.yul\":7015:7035   */\n      tag_85\n      jump\t// in\n    tag_170:\n        /* \"#utility.yul\":7010:7035   */\n      swap2\n      pop\n        /* \"#utility.yul\":7049:7069   */\n      tag_171\n        /* \"#utility.yul\":7067:7068   */\n      dup4\n        /* \"#utility.yul\":7049:7069   */\n      tag_85\n      jump\t// in\n    tag_171:\n        /* \"#utility.yul\":7044:7069   */\n      swap3\n      pop\n        /* \"#utility.yul\":7093:7094   */\n      dup3\n        /* \"#utility.yul\":7090:7091   */\n      dup3\n        /* \"#utility.yul\":7086:7095   */\n      sub\n        /* \"#utility.yul\":7078:7095   */\n      swap1\n      pop\n        /* \"#utility.yul\":7117:7118   */\n      dup2\n        /* \"#utility.yul\":7111:7115   */\n      dup2\n        /* \"#utility.yul\":7108:7119   */\n      gt\n        /* \"#utility.yul\":7105:7142   */\n      iszero\n      tag_172\n      jumpi\n        /* \"#utility.yul\":7122:7140   */\n      tag_173\n      tag_92\n      jump\t// in\n    tag_173:\n        /* \"#utility.yul\":7105:7142   */\n    tag_172:\n        /* \"#utility.yul\":6955:7149   */\n      swap3\n      swap2\n      pop\n      pop\n      jump\t// out\n        /* \"#utility.yul\":7155:7336   */\n    tag_98:\n        /* \"#utility.yul\":7295:7328   */\n      0x5265656e7472616e637947756172643a207265656e7472616e742063616c6c00\n        /* \"#utility.yul\":7291:7292   */\n      0x00\n        /* \"#utility.yul\":7283:7289   */\n      dup3\n        /* \"#utility.yul\":7279:7293   */\n      add\n        /* \"#utility.yul\":7272:7329   */\n      mstore\n        /* \"#utility.yul\":7155:7336   */\n      pop\n      jump\t// out\n        /* \"#utility.yul\":7342:7708   */\n    tag_99:\n        /* \"#utility.yul\":7484:7487   */\n      0x00\n        /* \"#utility.yul\":7505:7572   */\n      tag_176\n        /* \"#utility.yul\":7569:7571   */\n      0x1f\n        /* \"#utility.yul\":7564:7567   */\n      dup4\n        /* \"#utility.yul\":7505:7572   */\n      tag_89\n      jump\t// in\n    tag_176:\n        /* \"#utility.yul\":7498:7572   */\n      swap2\n      pop\n        /* \"#utility.yul\":7581:7674   */\n      tag_177\n        /* \"#utility.yul\":7670:7673   */\n      dup3\n        /* \"#utility.yul\":7581:7674   */\n      tag_98\n      jump\t// in\n    tag_177:\n        /* \"#utility.yul\":7699:7701   */\n      0x20\n        /* \"#utility.yul\":7694:7697   */\n      dup3\n        /* \"#utility.yul\":7690:7702   */\n      add\n        /* \"#utility.yul\":7683:7702   */\n      swap1\n      pop\n        /* \"#utility.yul\":7342:7708   */\n      swap2\n      swap1\n      pop\n      jump\t// out\n        /* \"#utility.yul\":7714:8133   */\n    tag_74:\n        /* \"#utility.yul\":7880:7884   */\n      0x00\n        /* \"#utility.yul\":7918:7920   */\n      0x20\n        /* \"#utility.yul\":7907:7916   */\n      dup3\n        /* \"#utility.yul\":7903:7921   */\n      add\n        /* \"#utility.yul\":7895:7921   */\n      swap1\n      pop\n        /* \"#utility.yul\":7967:7976   */\n      dup2\n        /* \"#utility.yul\":7961:7965   */\n      dup2\n        /* \"#utility.yul\":7957:7977   */\n      sub\n        /* \"#utility.yul\":7953:7954   */\n      0x00\n        /* \"#utility.yul\":7942:7951   */\n      dup4\n        /* \"#utility.yul\":7938:7955   */\n      add\n        /* \"#utility.yul\":7931:7978   */\n      mstore\n        /* \"#utility.yul\":7995:8126   */\n      tag_179\n        /* \"#utility.yul\":8121:8125   */\n      dup2\n        /* \"#utility.yul\":7995:8126   */\n      tag_99\n      jump\t// in\n    tag_179:\n        /* \"#utility.yul\":7987:8126   */\n      swap1\n      pop\n        /* \"#utility.yul\":7714:8133   */\n      swap2\n      swap1\n      pop\n      jump\t// out\n\n    auxdata: 0xa26469706673582212209ad88b9d9f648667309348a064b90da64d4315d720f1154a3874d73ced3e86e164736f6c634300081e0033\n}\n",
				"bytecode": {
					"linkReferences": {},
					"object": "6080604052348015600e575f5ffd5b50604051610a73380380610a738339818101604052810190602e91906073565b60015f8190555080600281905550506099565b5f5ffd5b5f819050919050565b6055816045565b8114605e575f5ffd5b50565b5f81519050606d81604e565b92915050565b5f6020828403121560855760846041565b5b5f6090848285016061565b91505092915050565b6109cd806100a65f395ff3fe608060405260043610610054575f3560e01c80631b1355a7146100585780631b3670d7146100945780637af327a0146100be578063a185891e146100c8578063e8b1298f14610104578063e8dc43f81461012c575b5f5ffd5b348015610063575f5ffd5b5061007e600480360381019061007991906105e0565b610156565b60405161008b9190610623565b60405180910390f35b34801561009f575f5ffd5b506100a861019c565b6040516100b59190610623565b60405180910390f35b6100c66101a2565b005b3480156100d3575f5ffd5b506100ee60048036038101906100e991906105e0565b6102f1565b6040516100fb9190610623565b60405180910390f35b34801561010f575f5ffd5b5061012a60048036038101906101259190610666565b610306565b005b348015610137575f5ffd5b5061014061050b565b60405161014d9190610623565b60405180910390f35b5f60015f8373ffffffffffffffffffffffffffffffffffffffff1673ffffffffffffffffffffffffffffffffffffffff1681526020019081526020015f20549050919050565b60045481565b6101aa610511565b6101b33461055e565b156101f557346040517f0524ade10000000000000000000000000000000000000000000000000000000081526004016101ec91906106eb565b60405180910390fd5b3460015f3373ffffffffffffffffffffffffffffffffffffffff1673ffffffffffffffffffffffffffffffffffffffff1681526020019081526020015f205461023e9190610744565b60015f3373ffffffffffffffffffffffffffffffffffffffff1673ffffffffffffffffffffffffffffffffffffffff1681526020019081526020015f20819055503460035f8282546102909190610744565b9250508190555060055f8154809291906102a990610777565b91905055507f8e13c232b6ad491513c1540f8bc226e1c5072f2f8b9bcd13088a478c67fd5a4933346040516102df9291906107cd565b60405180910390a16102ef610579565b565b6001602052805f5260405f205f915090505481565b61030e610511565b6802b5e3af16b188000081111561035e5780336040517f21c3329f00000000000000000000000000000000000000000000000000000000815260040161035592919061083e565b60405180910390fd5b8060015f3373ffffffffffffffffffffffffffffffffffffffff1673ffffffffffffffffffffffffffffffffffffffff1681526020019081526020015f205410156103e25780336040517f7807e8140000000000000000000000000000000000000000000000000000000081526004016103d99291906108c2565b60405180910390fd5b8060015f3373ffffffffffffffffffffffffffffffffffffffff1673ffffffffffffffffffffffffffffffffffffffff1681526020019081526020015f205461042b91906108fc565b60015f3373ffffffffffffffffffffffffffffffffffffffff1673ffffffffffffffffffffffffffffffffffffffff1681526020019081526020015f208190555060045f81548092919061047e90610777565b91905055503373ffffffffffffffffffffffffffffffffffffffff166108fc8290811502906040515f60405180830381858888f193505050501580156104c6573d5f5f3e3d5ffd5b507f6553d752fc46d96aab714525ba8f58c666892e2a31f2bf65d6d87db515bf81aa33826040516104f89291906107cd565b60405180910390a1610508610579565b50565b60055481565b60025f5403610555576040517f08c379a000000000000000000000000000000000000000000000000000000000815260040161054c90610979565b60405180910390fd5b60025f81905550565b5f600254826003546105709190610744565b10159050919050565b60015f81905550565b5f5ffd5b5f73ffffffffffffffffffffffffffffffffffffffff82169050919050565b5f6105af82610586565b9050919050565b6105bf816105a5565b81146105c9575f5ffd5b50565b5f813590506105da816105b6565b92915050565b5f602082840312156105f5576105f4610582565b5b5f610602848285016105cc565b91505092915050565b5f819050919050565b61061d8161060b565b82525050565b5f6020820190506106365f830184610614565b92915050565b6106458161060b565b811461064f575f5ffd5b50565b5f813590506106608161063c565b92915050565b5f6020828403121561067b5761067a610582565b5b5f61068884828501610652565b91505092915050565b5f82825260208201905092915050565b7f4c696d69746520676c6f62616c20616c63616e7a61646f0000000000000000005f82015250565b5f6106d5601783610691565b91506106e0826106a1565b602082019050919050565b5f6040820190506106fe5f830184610614565b818103602083015261070f816106c9565b905092915050565b7f4e487b71000000000000000000000000000000000000000000000000000000005f52601160045260245ffd5b5f61074e8261060b565b91506107598361060b565b925082820190508082111561077157610770610717565b5b92915050565b5f6107818261060b565b91507fffffffffffffffffffffffffffffffffffffffffffffffffffffffffffffffff82036107b3576107b2610717565b5b600182019050919050565b6107c7816105a5565b82525050565b5f6040820190506107e05f8301856107be565b6107ed6020830184610614565b9392505050565b7f6e6f207075656465732072657469726172206d617320646520353000000000005f82015250565b5f610828601b83610691565b9150610833826107f4565b602082019050919050565b5f6060820190506108515f830185610614565b61085e60208301846107be565b818103604083015261086f8161081c565b90509392505050565b7f536c61646f20696e737566696369656e746500000000000000000000000000005f82015250565b5f6108ac601283610691565b91506108b782610878565b602082019050919050565b5f6060820190506108d55f830185610614565b6108e260208301846107be565b81810360408301526108f3816108a0565b90509392505050565b5f6109068261060b565b91506109118361060b565b925082820390508181111561092957610928610717565b5b92915050565b7f5265656e7472616e637947756172643a207265656e7472616e742063616c6c005f82015250565b5f610963601f83610691565b915061096e8261092f565b602082019050919050565b5f6020820190508181035f83015261099081610957565b905091905056fea26469706673582212209ad88b9d9f648667309348a064b90da64d4315d720f1154a3874d73ced3e86e164736f6c634300081e0033",
					"opcodes": "PUSH1 0x80 PUSH1 0x40 MSTORE CALLVALUE DUP1 ISZERO PUSH1 0xE JUMPI PUSH0 PUSH0 REVERT JUMPDEST POP PUSH1 0x40 MLOAD PUSH2 0xA73 CODESIZE SUB DUP1 PUSH2 0xA73 DUP4 CODECOPY DUP2 DUP2 ADD PUSH1 0x40 MSTORE DUP2 ADD SWAP1 PUSH1 0x2E SWAP2 SWAP1 PUSH1 0x73 JUMP JUMPDEST PUSH1 0x1 PUSH0 DUP2 SWAP1 SSTORE POP DUP1 PUSH1 0x2 DUP2 SWAP1 SSTORE POP POP PUSH1 0x99 JUMP JUMPDEST PUSH0 PUSH0 REVERT JUMPDEST PUSH0 DUP2 SWAP1 POP SWAP2 SWAP1 POP JUMP JUMPDEST PUSH1 0x55 DUP2 PUSH1 0x45 JUMP JUMPDEST DUP2 EQ PUSH1 0x5E JUMPI PUSH0 PUSH0 REVERT JUMPDEST POP JUMP JUMPDEST PUSH0 DUP2 MLOAD SWAP1 POP PUSH1 0x6D DUP2 PUSH1 0x4E JUMP JUMPDEST SWAP3 SWAP2 POP POP JUMP JUMPDEST PUSH0 PUSH1 0x20 DUP3 DUP5 SUB SLT ISZERO PUSH1 0x85 JUMPI PUSH1 0x84 PUSH1 0x41 JUMP JUMPDEST JUMPDEST PUSH0 PUSH1 0x90 DUP5 DUP3 DUP6 ADD PUSH1 0x61 JUMP JUMPDEST SWAP2 POP POP SWAP3 SWAP2 POP POP JUMP JUMPDEST PUSH2 0x9CD DUP1 PUSH2 0xA6 PUSH0 CODECOPY PUSH0 RETURN INVALID PUSH1 0x80 PUSH1 0x40 MSTORE PUSH1 0x4 CALLDATASIZE LT PUSH2 0x54 JUMPI PUSH0 CALLDATALOAD PUSH1 0xE0 SHR DUP1 PUSH4 0x1B1355A7 EQ PUSH2 0x58 JUMPI DUP1 PUSH4 0x1B3670D7 EQ PUSH2 0x94 JUMPI DUP1 PUSH4 0x7AF327A0 EQ PUSH2 0xBE JUMPI DUP1 PUSH4 0xA185891E EQ PUSH2 0xC8 JUMPI DUP1 PUSH4 0xE8B1298F EQ PUSH2 0x104 JUMPI DUP1 PUSH4 0xE8DC43F8 EQ PUSH2 0x12C JUMPI JUMPDEST PUSH0 PUSH0 REVERT JUMPDEST CALLVALUE DUP1 ISZERO PUSH2 0x63 JUMPI PUSH0 PUSH0 REVERT JUMPDEST POP PUSH2 0x7E PUSH1 0x4 DUP1 CALLDATASIZE SUB DUP2 ADD SWAP1 PUSH2 0x79 SWAP2 SWAP1 PUSH2 0x5E0 JUMP JUMPDEST PUSH2 0x156 JUMP JUMPDEST PUSH1 0x40 MLOAD PUSH2 0x8B SWAP2 SWAP1 PUSH2 0x623 JUMP JUMPDEST PUSH1 0x40 MLOAD DUP1 SWAP2 SUB SWAP1 RETURN JUMPDEST CALLVALUE DUP1 ISZERO PUSH2 0x9F JUMPI PUSH0 PUSH0 REVERT JUMPDEST POP PUSH2 0xA8 PUSH2 0x19C JUMP JUMPDEST PUSH1 0x40 MLOAD PUSH2 0xB5 SWAP2 SWAP1 PUSH2 0x623 JUMP JUMPDEST PUSH1 0x40 MLOAD DUP1 SWAP2 SUB SWAP1 RETURN JUMPDEST PUSH2 0xC6 PUSH2 0x1A2 JUMP JUMPDEST STOP JUMPDEST CALLVALUE DUP1 ISZERO PUSH2 0xD3 JUMPI PUSH0 PUSH0 REVERT JUMPDEST POP PUSH2 0xEE PUSH1 0x4 DUP1 CALLDATASIZE SUB DUP2 ADD SWAP1 PUSH2 0xE9 SWAP2 SWAP1 PUSH2 0x5E0 JUMP JUMPDEST PUSH2 0x2F1 JUMP JUMPDEST PUSH1 0x40 MLOAD PUSH2 0xFB SWAP2 SWAP1 PUSH2 0x623 JUMP JUMPDEST PUSH1 0x40 MLOAD DUP1 SWAP2 SUB SWAP1 RETURN JUMPDEST CALLVALUE DUP1 ISZERO PUSH2 0x10F JUMPI PUSH0 PUSH0 REVERT JUMPDEST POP PUSH2 0x12A PUSH1 0x4 DUP1 CALLDATASIZE SUB DUP2 ADD SWAP1 PUSH2 0x125 SWAP2 SWAP1 PUSH2 0x666 JUMP JUMPDEST PUSH2 0x306 JUMP JUMPDEST STOP JUMPDEST CALLVALUE DUP1 ISZERO PUSH2 0x137 JUMPI PUSH0 PUSH0 REVERT JUMPDEST POP PUSH2 0x140 PUSH2 0x50B JUMP JUMPDEST PUSH1 0x40 MLOAD PUSH2 0x14D SWAP2 SWAP1 PUSH2 0x623 JUMP JUMPDEST PUSH1 0x40 MLOAD DUP1 SWAP2 SUB SWAP1 RETURN JUMPDEST PUSH0 PUSH1 0x1 PUSH0 DUP4 PUSH20 0xFFFFFFFFFFFFFFFFFFFFFFFFFFFFFFFFFFFFFFFF AND PUSH20 0xFFFFFFFFFFFFFFFFFFFFFFFFFFFFFFFFFFFFFFFF AND DUP2 MSTORE PUSH1 0x20 ADD SWAP1 DUP2 MSTORE PUSH1 0x20 ADD PUSH0 KECCAK256 SLOAD SWAP1 POP SWAP2 SWAP1 POP JUMP JUMPDEST PUSH1 0x4 SLOAD DUP2 JUMP JUMPDEST PUSH2 0x1AA PUSH2 0x511 JUMP JUMPDEST PUSH2 0x1B3 CALLVALUE PUSH2 0x55E JUMP JUMPDEST ISZERO PUSH2 0x1F5 JUMPI CALLVALUE PUSH1 0x40 MLOAD PUSH32 0x524ADE100000000000000000000000000000000000000000000000000000000 DUP2 MSTORE PUSH1 0x4 ADD PUSH2 0x1EC SWAP2 SWAP1 PUSH2 0x6EB JUMP JUMPDEST PUSH1 0x40 MLOAD DUP1 SWAP2 SUB SWAP1 REVERT JUMPDEST CALLVALUE PUSH1 0x1 PUSH0 CALLER PUSH20 0xFFFFFFFFFFFFFFFFFFFFFFFFFFFFFFFFFFFFFFFF AND PUSH20 0xFFFFFFFFFFFFFFFFFFFFFFFFFFFFFFFFFFFFFFFF AND DUP2 MSTORE PUSH1 0x20 ADD SWAP1 DUP2 MSTORE PUSH1 0x20 ADD PUSH0 KECCAK256 SLOAD PUSH2 0x23E SWAP2 SWAP1 PUSH2 0x744 JUMP JUMPDEST PUSH1 0x1 PUSH0 CALLER PUSH20 0xFFFFFFFFFFFFFFFFFFFFFFFFFFFFFFFFFFFFFFFF AND PUSH20 0xFFFFFFFFFFFFFFFFFFFFFFFFFFFFFFFFFFFFFFFF AND DUP2 MSTORE PUSH1 0x20 ADD SWAP1 DUP2 MSTORE PUSH1 0x20 ADD PUSH0 KECCAK256 DUP2 SWAP1 SSTORE POP CALLVALUE PUSH1 0x3 PUSH0 DUP3 DUP3 SLOAD PUSH2 0x290 SWAP2 SWAP1 PUSH2 0x744 JUMP JUMPDEST SWAP3 POP POP DUP2 SWAP1 SSTORE POP PUSH1 0x5 PUSH0 DUP2 SLOAD DUP1 SWAP3 SWAP2 SWAP1 PUSH2 0x2A9 SWAP1 PUSH2 0x777 JUMP JUMPDEST SWAP2 SWAP1 POP SSTORE POP PUSH32 0x8E13C232B6AD491513C1540F8BC226E1C5072F2F8B9BCD13088A478C67FD5A49 CALLER CALLVALUE PUSH1 0x40 MLOAD PUSH2 0x2DF SWAP3 SWAP2 SWAP1 PUSH2 0x7CD JUMP JUMPDEST PUSH1 0x40 MLOAD DUP1 SWAP2 SUB SWAP1 LOG1 PUSH2 0x2EF PUSH2 0x579 JUMP JUMPDEST JUMP JUMPDEST PUSH1 0x1 PUSH1 0x20 MSTORE DUP1 PUSH0 MSTORE PUSH1 0x40 PUSH0 KECCAK256 PUSH0 SWAP2 POP SWAP1 POP SLOAD DUP2 JUMP JUMPDEST PUSH2 0x30E PUSH2 0x511 JUMP JUMPDEST PUSH9 0x2B5E3AF16B1880000 DUP2 GT ISZERO PUSH2 0x35E JUMPI DUP1 CALLER PUSH1 0x40 MLOAD PUSH32 0x21C3329F00000000000000000000000000000000000000000000000000000000 DUP2 MSTORE PUSH1 0x4 ADD PUSH2 0x355 SWAP3 SWAP2 SWAP1 PUSH2 0x83E JUMP JUMPDEST PUSH1 0x40 MLOAD DUP1 SWAP2 SUB SWAP1 REVERT JUMPDEST DUP1 PUSH1 0x1 PUSH0 CALLER PUSH20 0xFFFFFFFFFFFFFFFFFFFFFFFFFFFFFFFFFFFFFFFF AND PUSH20 0xFFFFFFFFFFFFFFFFFFFFFFFFFFFFFFFFFFFFFFFF AND DUP2 MSTORE PUSH1 0x20 ADD SWAP1 DUP2 MSTORE PUSH1 0x20 ADD PUSH0 KECCAK256 SLOAD LT ISZERO PUSH2 0x3E2 JUMPI DUP1 CALLER PUSH1 0x40 MLOAD PUSH32 0x7807E81400000000000000000000000000000000000000000000000000000000 DUP2 MSTORE PUSH1 0x4 ADD PUSH2 0x3D9 SWAP3 SWAP2 SWAP1 PUSH2 0x8C2 JUMP JUMPDEST PUSH1 0x40 MLOAD DUP1 SWAP2 SUB SWAP1 REVERT JUMPDEST DUP1 PUSH1 0x1 PUSH0 CALLER PUSH20 0xFFFFFFFFFFFFFFFFFFFFFFFFFFFFFFFFFFFFFFFF AND PUSH20 0xFFFFFFFFFFFFFFFFFFFFFFFFFFFFFFFFFFFFFFFF AND DUP2 MSTORE PUSH1 0x20 ADD SWAP1 DUP2 MSTORE PUSH1 0x20 ADD PUSH0 KECCAK256 SLOAD PUSH2 0x42B SWAP2 SWAP1 PUSH2 0x8FC JUMP JUMPDEST PUSH1 0x1 PUSH0 CALLER PUSH20 0xFFFFFFFFFFFFFFFFFFFFFFFFFFFFFFFFFFFFFFFF AND PUSH20 0xFFFFFFFFFFFFFFFFFFFFFFFFFFFFFFFFFFFFFFFF AND DUP2 MSTORE PUSH1 0x20 ADD SWAP1 DUP2 MSTORE PUSH1 0x20 ADD PUSH0 KECCAK256 DUP2 SWAP1 SSTORE POP PUSH1 0x4 PUSH0 DUP2 SLOAD DUP1 SWAP3 SWAP2 SWAP1 PUSH2 0x47E SWAP1 PUSH2 0x777 JUMP JUMPDEST SWAP2 SWAP1 POP SSTORE POP CALLER PUSH20 0xFFFFFFFFFFFFFFFFFFFFFFFFFFFFFFFFFFFFFFFF AND PUSH2 0x8FC DUP3 SWAP1 DUP2 ISZERO MUL SWAP1 PUSH1 0x40 MLOAD PUSH0 PUSH1 0x40 MLOAD DUP1 DUP4 SUB DUP2 DUP6 DUP9 DUP9 CALL SWAP4 POP POP POP POP ISZERO DUP1 ISZERO PUSH2 0x4C6 JUMPI RETURNDATASIZE PUSH0 PUSH0 RETURNDATACOPY RETURNDATASIZE PUSH0 REVERT JUMPDEST POP PUSH32 0x6553D752FC46D96AAB714525BA8F58C666892E2A31F2BF65D6D87DB515BF81AA CALLER DUP3 PUSH1 0x40 MLOAD PUSH2 0x4F8 SWAP3 SWAP2 SWAP1 PUSH2 0x7CD JUMP JUMPDEST PUSH1 0x40 MLOAD DUP1 SWAP2 SUB SWAP1 LOG1 PUSH2 0x508 PUSH2 0x579 JUMP JUMPDEST POP JUMP JUMPDEST PUSH1 0x5 SLOAD DUP2 JUMP JUMPDEST PUSH1 0x2 PUSH0 SLOAD SUB PUSH2 0x555 JUMPI PUSH1 0x40 MLOAD PUSH32 0x8C379A000000000000000000000000000000000000000000000000000000000 DUP2 MSTORE PUSH1 0x4 ADD PUSH2 0x54C SWAP1 PUSH2 0x979 JUMP JUMPDEST PUSH1 0x40 MLOAD DUP1 SWAP2 SUB SWAP1 REVERT JUMPDEST PUSH1 0x2 PUSH0 DUP2 SWAP1 SSTORE POP JUMP JUMPDEST PUSH0 PUSH1 0x2 SLOAD DUP3 PUSH1 0x3 SLOAD PUSH2 0x570 SWAP2 SWAP1 PUSH2 0x744 JUMP JUMPDEST LT ISZERO SWAP1 POP SWAP2 SWAP1 POP JUMP JUMPDEST PUSH1 0x1 PUSH0 DUP2 SWAP1 SSTORE POP JUMP JUMPDEST PUSH0 PUSH0 REVERT JUMPDEST PUSH0 PUSH20 0xFFFFFFFFFFFFFFFFFFFFFFFFFFFFFFFFFFFFFFFF DUP3 AND SWAP1 POP SWAP2 SWAP1 POP JUMP JUMPDEST PUSH0 PUSH2 0x5AF DUP3 PUSH2 0x586 JUMP JUMPDEST SWAP1 POP SWAP2 SWAP1 POP JUMP JUMPDEST PUSH2 0x5BF DUP2 PUSH2 0x5A5 JUMP JUMPDEST DUP2 EQ PUSH2 0x5C9 JUMPI PUSH0 PUSH0 REVERT JUMPDEST POP JUMP JUMPDEST PUSH0 DUP2 CALLDATALOAD SWAP1 POP PUSH2 0x5DA DUP2 PUSH2 0x5B6 JUMP JUMPDEST SWAP3 SWAP2 POP POP JUMP JUMPDEST PUSH0 PUSH1 0x20 DUP3 DUP5 SUB SLT ISZERO PUSH2 0x5F5 JUMPI PUSH2 0x5F4 PUSH2 0x582 JUMP JUMPDEST JUMPDEST PUSH0 PUSH2 0x602 DUP5 DUP3 DUP6 ADD PUSH2 0x5CC JUMP JUMPDEST SWAP2 POP POP SWAP3 SWAP2 POP POP JUMP JUMPDEST PUSH0 DUP2 SWAP1 POP SWAP2 SWAP1 POP JUMP JUMPDEST PUSH2 0x61D DUP2 PUSH2 0x60B JUMP JUMPDEST DUP3 MSTORE POP POP JUMP JUMPDEST PUSH0 PUSH1 0x20 DUP3 ADD SWAP1 POP PUSH2 0x636 PUSH0 DUP4 ADD DUP5 PUSH2 0x614 JUMP JUMPDEST SWAP3 SWAP2 POP POP JUMP JUMPDEST PUSH2 0x645 DUP2 PUSH2 0x60B JUMP JUMPDEST DUP2 EQ PUSH2 0x64F JUMPI PUSH0 PUSH0 REVERT JUMPDEST POP JUMP JUMPDEST PUSH0 DUP2 CALLDATALOAD SWAP1 POP PUSH2 0x660 DUP2 PUSH2 0x63C JUMP JUMPDEST SWAP3 SWAP2 POP POP JUMP JUMPDEST PUSH0 PUSH1 0x20 DUP3 DUP5 SUB SLT ISZERO PUSH2 0x67B JUMPI PUSH2 0x67A PUSH2 0x582 JUMP JUMPDEST JUMPDEST PUSH0 PUSH2 0x688 DUP5 DUP3 DUP6 ADD PUSH2 0x652 JUMP JUMPDEST SWAP2 POP POP SWAP3 SWAP2 POP POP JUMP JUMPDEST PUSH0 DUP3 DUP3 MSTORE PUSH1 0x20 DUP3 ADD SWAP1 POP SWAP3 SWAP2 POP POP JUMP JUMPDEST PUSH32 0x4C696D69746520676C6F62616C20616C63616E7A61646F000000000000000000 PUSH0 DUP3 ADD MSTORE POP JUMP JUMPDEST PUSH0 PUSH2 0x6D5 PUSH1 0x17 DUP4 PUSH2 0x691 JUMP JUMPDEST SWAP2 POP PUSH2 0x6E0 DUP3 PUSH2 0x6A1 JUMP JUMPDEST PUSH1 0x20 DUP3 ADD SWAP1 POP SWAP2 SWAP1 POP JUMP JUMPDEST PUSH0 PUSH1 0x40 DUP3 ADD SWAP1 POP PUSH2 0x6FE PUSH0 DUP4 ADD DUP5 PUSH2 0x614 JUMP JUMPDEST DUP2 DUP2 SUB PUSH1 0x20 DUP4 ADD MSTORE PUSH2 0x70F DUP2 PUSH2 0x6C9 JUMP JUMPDEST SWAP1 POP SWAP3 SWAP2 POP POP JUMP JUMPDEST PUSH32 0x4E487B7100000000000000000000000000000000000000000000000000000000 PUSH0 MSTORE PUSH1 0x11 PUSH1 0x4 MSTORE PUSH1 0x24 PUSH0 REVERT JUMPDEST PUSH0 PUSH2 0x74E DUP3 PUSH2 0x60B JUMP JUMPDEST SWAP2 POP PUSH2 0x759 DUP4 PUSH2 0x60B JUMP JUMPDEST SWAP3 POP DUP3 DUP3 ADD SWAP1 POP DUP1 DUP3 GT ISZERO PUSH2 0x771 JUMPI PUSH2 0x770 PUSH2 0x717 JUMP JUMPDEST JUMPDEST SWAP3 SWAP2 POP POP JUMP JUMPDEST PUSH0 PUSH2 0x781 DUP3 PUSH2 0x60B JUMP JUMPDEST SWAP2 POP PUSH32 0xFFFFFFFFFFFFFFFFFFFFFFFFFFFFFFFFFFFFFFFFFFFFFFFFFFFFFFFFFFFFFFFF DUP3 SUB PUSH2 0x7B3 JUMPI PUSH2 0x7B2 PUSH2 0x717 JUMP JUMPDEST JUMPDEST PUSH1 0x1 DUP3 ADD SWAP1 POP SWAP2 SWAP1 POP JUMP JUMPDEST PUSH2 0x7C7 DUP2 PUSH2 0x5A5 JUMP JUMPDEST DUP3 MSTORE POP POP JUMP JUMPDEST PUSH0 PUSH1 0x40 DUP3 ADD SWAP1 POP PUSH2 0x7E0 PUSH0 DUP4 ADD DUP6 PUSH2 0x7BE JUMP JUMPDEST PUSH2 0x7ED PUSH1 0x20 DUP4 ADD DUP5 PUSH2 0x614 JUMP JUMPDEST SWAP4 SWAP3 POP POP POP JUMP JUMPDEST PUSH32 0x6E6F207075656465732072657469726172206D61732064652035300000000000 PUSH0 DUP3 ADD MSTORE POP JUMP JUMPDEST PUSH0 PUSH2 0x828 PUSH1 0x1B DUP4 PUSH2 0x691 JUMP JUMPDEST SWAP2 POP PUSH2 0x833 DUP3 PUSH2 0x7F4 JUMP JUMPDEST PUSH1 0x20 DUP3 ADD SWAP1 POP SWAP2 SWAP1 POP JUMP JUMPDEST PUSH0 PUSH1 0x60 DUP3 ADD SWAP1 POP PUSH2 0x851 PUSH0 DUP4 ADD DUP6 PUSH2 0x614 JUMP JUMPDEST PUSH2 0x85E PUSH1 0x20 DUP4 ADD DUP5 PUSH2 0x7BE JUMP JUMPDEST DUP2 DUP2 SUB PUSH1 0x40 DUP4 ADD MSTORE PUSH2 0x86F DUP2 PUSH2 0x81C JUMP JUMPDEST SWAP1 POP SWAP4 SWAP3 POP POP POP JUMP JUMPDEST PUSH32 0x536C61646F20696E737566696369656E74650000000000000000000000000000 PUSH0 DUP3 ADD MSTORE POP JUMP JUMPDEST PUSH0 PUSH2 0x8AC PUSH1 0x12 DUP4 PUSH2 0x691 JUMP JUMPDEST SWAP2 POP PUSH2 0x8B7 DUP3 PUSH2 0x878 JUMP JUMPDEST PUSH1 0x20 DUP3 ADD SWAP1 POP SWAP2 SWAP1 POP JUMP JUMPDEST PUSH0 PUSH1 0x60 DUP3 ADD SWAP1 POP PUSH2 0x8D5 PUSH0 DUP4 ADD DUP6 PUSH2 0x614 JUMP JUMPDEST PUSH2 0x8E2 PUSH1 0x20 DUP4 ADD DUP5 PUSH2 0x7BE JUMP JUMPDEST DUP2 DUP2 SUB PUSH1 0x40 DUP4 ADD MSTORE PUSH2 0x8F3 DUP2 PUSH2 0x8A0 JUMP JUMPDEST SWAP1 POP SWAP4 SWAP3 POP POP POP JUMP JUMPDEST PUSH0 PUSH2 0x906 DUP3 PUSH2 0x60B JUMP JUMPDEST SWAP2 POP PUSH2 0x911 DUP4 PUSH2 0x60B JUMP JUMPDEST SWAP3 POP DUP3 DUP3 SUB SWAP1 POP DUP2 DUP2 GT ISZERO PUSH2 0x929 JUMPI PUSH2 0x928 PUSH2 0x717 JUMP JUMPDEST JUMPDEST SWAP3 SWAP2 POP POP JUMP JUMPDEST PUSH32 0x5265656E7472616E637947756172643A207265656E7472616E742063616C6C00 PUSH0 DUP3 ADD MSTORE POP JUMP JUMPDEST PUSH0 PUSH2 0x963 PUSH1 0x1F DUP4 PUSH2 0x691 JUMP JUMPDEST SWAP2 POP PUSH2 0x96E DUP3 PUSH2 0x92F JUMP JUMPDEST PUSH1 0x20 DUP3 ADD SWAP1 POP SWAP2 SWAP1 POP JUMP JUMPDEST PUSH0 PUSH1 0x20 DUP3 ADD SWAP1 POP DUP2 DUP2 SUB PUSH0 DUP4 ADD MSTORE PUSH2 0x990 DUP2 PUSH2 0x957 JUMP JUMPDEST SWAP1 POP SWAP2 SWAP1 POP JUMP INVALID LOG2 PUSH5 0x6970667358 0x22 SLT KECCAK256 SWAP11 0xD8 DUP12 SWAP14 SWAP16 PUSH5 0x8667309348 LOG0 PUSH5 0xB90DA64D43 ISZERO 0xD7 KECCAK256 CALL ISZERO BLOBBASEFEE CODESIZE PUSH21 0xD73CED3E86E164736F6C634300081E003300000000 "
				},
				"gasEstimates": {
					"creation": {
						"codeDepositCost": "501800",
						"executionCost": "infinite",
						"totalCost": "infinite"
					},
					"external": {
						"bovedaPersonal(address)": "2846",
						"cantidadDepositos()": "2513",
						"cantidadRetiros()": "2425",
						"deposito()": "infinite",
						"retirar(uint256)": "infinite",
						"verSaldo(address)": "2807"
					},
					"internal": {
						"_pasoLimiteDepositos(uint256)": "infinite"
					}
				},
				"methodIdentifiers": {
					"bovedaPersonal(address)": "a185891e",
					"cantidadDepositos()": "e8dc43f8",
					"cantidadRetiros()": "1b3670d7",
					"deposito()": "7af327a0",
					"retirar(uint256)": "e8b1298f",
					"verSaldo(address)": "1b1355a7"
				}
			},
			"storageLayout": {
				"storage": [
					{
						"astId": 10,
						"contract": "contracts/Kipubank.sol:Kipubank",
						"label": "_status",
						"offset": 0,
						"slot": "0",
						"type": "t_uint256"
					},
					{
						"astId": 74,
						"contract": "contracts/Kipubank.sol:Kipubank",
						"label": "bovedaPersonal",
						"offset": 0,
						"slot": "1",
						"type": "t_mapping(t_address,t_uint256)"
					},
					{
						"astId": 77,
						"contract": "contracts/Kipubank.sol:Kipubank",
						"label": "limiteDepositos",
						"offset": 0,
						"slot": "2",
						"type": "t_uint256"
					},
					{
						"astId": 80,
						"contract": "contracts/Kipubank.sol:Kipubank",
						"label": "totalDepositos",
						"offset": 0,
						"slot": "3",
						"type": "t_uint256"
					},
					{
						"astId": 87,
						"contract": "contracts/Kipubank.sol:Kipubank",
						"label": "cantidadRetiros",
						"offset": 0,
						"slot": "4",
						"type": "t_uint256"
					},
					{
						"astId": 90,
						"contract": "contracts/Kipubank.sol:Kipubank",
						"label": "cantidadDepositos",
						"offset": 0,
						"slot": "5",
						"type": "t_uint256"
					}
				],
				"types": {
					"t_address": {
						"encoding": "inplace",
						"label": "address",
						"numberOfBytes": "20"
					},
					"t_mapping(t_address,t_uint256)": {
						"encoding": "mapping",
						"key": "t_address",
						"label": "mapping(address => uint256)",
						"numberOfBytes": "32",
						"value": "t_uint256"
					},
					"t_uint256": {
						"encoding": "inplace",
						"label": "uint256",
						"numberOfBytes": "32"
					}
				}
			},
			"userdoc": {
				"kind": "user",
				"methods": {
					"bovedaPersonal(address)": {
						"notice": "Bóveda personal de cada usuario, almacena cuánto ETH tiene depositado."
					},
					"cantidadDepositos()": {
						"notice": "Contador del número de depósitos realizados en el contrato."
					},
					"cantidadRetiros()": {
						"notice": "Contador del número de retiros realizados en el contrato."
					},
					"constructor": {
						"notice": "Inicializa el contrato con un límite global de depósitos."
					},
					"deposito()": {
						"notice": "Permite a un usuario depositar ETH en su bóveda personal."
					},
					"retirar(uint256)": {
						"notice": "Permite a un usuario retirar fondos de su bóveda personal."
					},
					"verSaldo(address)": {
						"notice": "Devuelve el saldo en la bóveda personal de un usuario."
					}
				},
				"version": 1
			}
		}
	}
}