{
	"contracts/KipuBankV2.sol": {
		"KipuBankV2": {
			"abi": [
				{
					"inputs": [
						{
							"internalType": "uint256",
							"name": "_bankCapital",
							"type": "uint256"
						},
						{
							"internalType": "uint256",
							"name": "_depositLimitUSDC",
							"type": "uint256"
						},
						{
							"internalType": "address",
							"name": "_oracle",
							"type": "address"
						},
						{
							"internalType": "address",
							"name": "_usdc",
							"type": "address"
						},
						{
							"internalType": "address",
							"name": "_owner",
							"type": "address"
						}
					],
					"stateMutability": "nonpayable",
					"type": "constructor"
				},
				{
					"inputs": [
						{
							"internalType": "uint256",
							"name": "bankLimit",
							"type": "uint256"
						}
					],
					"name": "BankLimitReached",
					"type": "error"
				},
				{
					"inputs": [
						{
							"internalType": "uint256",
							"name": "amount",
							"type": "uint256"
						},
						{
							"internalType": "string",
							"name": "detail",
							"type": "string"
						}
					],
					"name": "GlobalLimit",
					"type": "error"
				},
				{
					"inputs": [
						{
							"internalType": "uint256",
							"name": "amount",
							"type": "uint256"
						},
						{
							"internalType": "address",
							"name": "user",
							"type": "address"
						},
						{
							"internalType": "string",
							"name": "detail",
							"type": "string"
						}
					],
					"name": "InsufficientBalance",
					"type": "error"
				},
				{
					"inputs": [
						{
							"internalType": "uint256",
							"name": "amount",
							"type": "uint256"
						},
						{
							"internalType": "address",
							"name": "user",
							"type": "address"
						},
						{
							"internalType": "string",
							"name": "detail",
							"type": "string"
						}
					],
					"name": "MoneyLimit",
					"type": "error"
				},
				{
					"inputs": [],
					"name": "OracleCompromised",
					"type": "error"
				},
				{
					"inputs": [],
					"name": "OracleOutdated",
					"type": "error"
				},
				{
					"inputs": [
						{
							"internalType": "address",
							"name": "owner",
							"type": "address"
						}
					],
					"name": "OwnableInvalidOwner",
					"type": "error"
				},
				{
					"inputs": [
						{
							"internalType": "address",
							"name": "account",
							"type": "address"
						}
					],
					"name": "OwnableUnauthorizedAccount",
					"type": "error"
				},
				{
					"inputs": [
						{
							"internalType": "address",
							"name": "token",
							"type": "address"
						}
					],
					"name": "SafeERC20FailedOperation",
					"type": "error"
				},
				{
					"inputs": [],
					"name": "WithdrawalFailed",
					"type": "error"
				},
				{
					"anonymous": false,
					"inputs": [
						{
							"indexed": false,
							"internalType": "address",
							"name": "newOracle",
							"type": "address"
						}
					],
					"name": "OracleUpdated",
					"type": "event"
				},
				{
					"anonymous": false,
					"inputs": [
						{
							"indexed": true,
							"internalType": "address",
							"name": "previousOwner",
							"type": "address"
						},
						{
							"indexed": true,
							"internalType": "address",
							"name": "newOwner",
							"type": "address"
						}
					],
					"name": "OwnershipTransferred",
					"type": "event"
				},
				{
					"anonymous": false,
					"inputs": [
						{
							"indexed": false,
							"internalType": "address",
							"name": "user",
							"type": "address"
						},
						{
							"indexed": false,
							"internalType": "address",
							"name": "currency",
							"type": "address"
						},
						{
							"indexed": false,
							"internalType": "uint256",
							"name": "amount",
							"type": "uint256"
						}
					],
					"name": "SuccessfulDeposit",
					"type": "event"
				},
				{
					"anonymous": false,
					"inputs": [
						{
							"indexed": false,
							"internalType": "address",
							"name": "user",
							"type": "address"
						},
						{
							"indexed": false,
							"internalType": "uint256",
							"name": "amount",
							"type": "uint256"
						}
					],
					"name": "SuccessfulWithdrawal",
					"type": "event"
				},
				{
					"inputs": [],
					"name": "contractBalanceInUSDC",
					"outputs": [
						{
							"internalType": "uint256",
							"name": "totalBalance",
							"type": "uint256"
						}
					],
					"stateMutability": "view",
					"type": "function"
				},
				{
					"inputs": [],
					"name": "depositETH",
					"outputs": [],
					"stateMutability": "payable",
					"type": "function"
				},
				{
					"inputs": [
						{
							"internalType": "uint256",
							"name": "_usdcAmount",
							"type": "uint256"
						}
					],
					"name": "depositUSDC",
					"outputs": [],
					"stateMutability": "nonpayable",
					"type": "function"
				},
				{
					"inputs": [],
					"name": "i_usdc",
					"outputs": [
						{
							"internalType": "contract IERC20",
							"name": "",
							"type": "address"
						}
					],
					"stateMutability": "view",
					"type": "function"
				},
				{
					"inputs": [],
					"name": "owner",
					"outputs": [
						{
							"internalType": "address",
							"name": "",
							"type": "address"
						}
					],
					"stateMutability": "view",
					"type": "function"
				},
				{
					"inputs": [],
					"name": "renounceOwnership",
					"outputs": [],
					"stateMutability": "nonpayable",
					"type": "function"
				},
				{
					"inputs": [],
					"name": "s_bankCapital",
					"outputs": [
						{
							"internalType": "uint256",
							"name": "",
							"type": "uint256"
						}
					],
					"stateMutability": "view",
					"type": "function"
				},
				{
					"inputs": [],
					"name": "s_depositCount",
					"outputs": [
						{
							"internalType": "uint256",
							"name": "",
							"type": "uint256"
						}
					],
					"stateMutability": "view",
					"type": "function"
				},
				{
					"inputs": [],
					"name": "s_depositLimit",
					"outputs": [
						{
							"internalType": "uint256",
							"name": "",
							"type": "uint256"
						}
					],
					"stateMutability": "view",
					"type": "function"
				},
				{
					"inputs": [],
					"name": "s_oracle",
					"outputs": [
						{
							"internalType": "contract AggregatorV3Interface",
							"name": "",
							"type": "address"
						}
					],
					"stateMutability": "view",
					"type": "function"
				},
				{
					"inputs": [],
					"name": "s_totalDeposits",
					"outputs": [
						{
							"internalType": "uint256",
							"name": "",
							"type": "uint256"
						}
					],
					"stateMutability": "view",
					"type": "function"
				},
				{
					"inputs": [
						{
							"internalType": "address",
							"name": "user",
							"type": "address"
						},
						{
							"internalType": "address",
							"name": "token",
							"type": "address"
						}
					],
					"name": "s_vault",
					"outputs": [
						{
							"internalType": "uint256",
							"name": "amount",
							"type": "uint256"
						}
					],
					"stateMutability": "view",
					"type": "function"
				},
				{
					"inputs": [],
					"name": "s_withdrawCount",
					"outputs": [
						{
							"internalType": "uint256",
							"name": "",
							"type": "uint256"
						}
					],
					"stateMutability": "view",
					"type": "function"
				},
				{
					"inputs": [
						{
							"internalType": "uint256",
							"name": "_newCapital",
							"type": "uint256"
						}
					],
					"name": "setBankCapital",
					"outputs": [],
					"stateMutability": "nonpayable",
					"type": "function"
				},
				{
					"inputs": [
						{
							"internalType": "uint256",
							"name": "_newLimit",
							"type": "uint256"
						}
					],
					"name": "setDepositLimit",
					"outputs": [],
					"stateMutability": "nonpayable",
					"type": "function"
				},
				{
					"inputs": [
						{
							"internalType": "address",
							"name": "_newOracle",
							"type": "address"
						}
					],
					"name": "setOracle",
					"outputs": [],
					"stateMutability": "nonpayable",
					"type": "function"
				},
				{
					"inputs": [
						{
							"internalType": "address",
							"name": "newOwner",
							"type": "address"
						}
					],
					"name": "transferOwnership",
					"outputs": [],
					"stateMutability": "nonpayable",
					"type": "function"
				},
				{
					"inputs": [
						{
							"internalType": "address",
							"name": "user",
							"type": "address"
						}
					],
					"name": "viewETHBalance",
					"outputs": [
						{
							"internalType": "uint256",
							"name": "",
							"type": "uint256"
						}
					],
					"stateMutability": "view",
					"type": "function"
				},
				{
					"inputs": [
						{
							"internalType": "address",
							"name": "user",
							"type": "address"
						}
					],
					"name": "viewUSDCBalance",
					"outputs": [
						{
							"internalType": "uint256",
							"name": "",
							"type": "uint256"
						}
					],
					"stateMutability": "view",
					"type": "function"
				},
				{
					"inputs": [
						{
							"internalType": "uint256",
							"name": "_withdrawAmount",
							"type": "uint256"
						}
					],
					"name": "withdrawETH",
					"outputs": [],
					"stateMutability": "nonpayable",
					"type": "function"
				},
				{
					"inputs": [
						{
							"internalType": "uint256",
							"name": "_usdcAmount",
							"type": "uint256"
						}
					],
					"name": "withdrawUSDC",
					"outputs": [],
					"stateMutability": "nonpayable",
					"type": "function"
				}
			],
			"devdoc": {
				"author": "Antony Arguello",
				"details": "Implementa seguridad contra reentradas y permisos de propietario.",
				"errors": {
					"OwnableInvalidOwner(address)": [
						{
							"details": "The owner is not a valid owner account. (eg. `address(0)`)"
						}
					],
					"OwnableUnauthorizedAccount(address)": [
						{
							"details": "The caller account is not authorized to perform an operation."
						}
					],
					"SafeERC20FailedOperation(address)": [
						{
							"details": "An operation with an ERC-20 token failed."
						}
					]
				},
				"kind": "dev",
				"methods": {
					"constructor": {
						"params": {
							"_bankCapital": "Límite máximo de capital del banco (en USDC-units).",
							"_depositLimitUSDC": "Límite global de depósitos (en USDC-units).",
							"_oracle": "Dirección del oráculo de Chainlink (ETH/USD).",
							"_owner": "Dirección del propietario del contrato.",
							"_usdc": "Dirección del contrato del token USDC."
						}
					},
					"depositUSDC(uint256)": {
						"params": {
							"_usdcAmount": "Cantidad en unidades USDC (6 decimales)."
						}
					},
					"owner()": {
						"details": "Returns the address of the current owner."
					},
					"renounceOwnership()": {
						"details": "Leaves the contract without owner. It will not be possible to call `onlyOwner` functions. Can only be called by the current owner. NOTE: Renouncing ownership will leave the contract without an owner, thereby disabling any functionality that is only available to the owner."
					},
					"setBankCapital(uint256)": {
						"params": {
							"_newCapital": "Límite en unidades USDC."
						}
					},
					"setDepositLimit(uint256)": {
						"params": {
							"_newLimit": "Nuevo límite en unidades USDC."
						}
					},
					"setOracle(address)": {
						"params": {
							"_newOracle": "Nueva dirección del oráculo Chainlink."
						}
					},
					"transferOwnership(address)": {
						"details": "Transfers ownership of the contract to a new account (`newOwner`). Can only be called by the current owner."
					},
					"withdrawETH(uint256)": {
						"params": {
							"_withdrawAmount": "Cantidad a retirar en wei."
						}
					},
					"withdrawUSDC(uint256)": {
						"params": {
							"_usdcAmount": "Cantidad en USDC (6 decimales)."
						}
					}
				},
				"title": "Banco Kipu (KipuBankV2)",
				"version": 1
			},
			"evm": {
				"assembly": "    /* \"contracts/KipuBankV2.sol\":789:11447  contract KipuBankV2 is Ownable, ReentrancyGuard {... */\n  mstore(0x40, 0xa0)\n    /* \"contracts/KipuBankV2.sol\":5115:5458  constructor(... */\n  callvalue\n  dup1\n  iszero\n  tag_1\n  jumpi\n  revert(0x00, 0x00)\ntag_1:\n  pop\n  mload(0x40)\n  sub(codesize, bytecodeSize)\n  dup1\n  bytecodeSize\n  dup4\n  codecopy\n  dup2\n  dup2\n  add\n  0x40\n  mstore\n  dup2\n  add\n  swap1\n  tag_2\n  swap2\n  swap1\n  tag_3\n  jump\t// in\ntag_2:\n    /* \"contracts/KipuBankV2.sol\":5278:5284  _owner */\n  dup1\n    /* \"@openzeppelin/contracts/access/Ownable.sol\":1297:1298  0 */\n  0x00\n    /* \"@openzeppelin/contracts/access/Ownable.sol\":1273:1299  initialOwner == address(0) */\n  0xffffffffffffffffffffffffffffffffffffffff\n  and\n    /* \"@openzeppelin/contracts/access/Ownable.sol\":1273:1285  initialOwner */\n  dup2\n    /* \"@openzeppelin/contracts/access/Ownable.sol\":1273:1299  initialOwner == address(0) */\n  0xffffffffffffffffffffffffffffffffffffffff\n  and\n  sub\n    /* \"@openzeppelin/contracts/access/Ownable.sol\":1269:1364  if (initialOwner == address(0)) {... */\n  tag_8\n  jumpi\n    /* \"@openzeppelin/contracts/access/Ownable.sol\":1350:1351  0 */\n  0x00\n    /* \"@openzeppelin/contracts/access/Ownable.sol\":1322:1353  OwnableInvalidOwner(address(0)) */\n  mload(0x40)\n  0x1e4fbdf700000000000000000000000000000000000000000000000000000000\n  dup2\n  mstore\n  0x04\n  add\n  tag_9\n  swap2\n  swap1\n  tag_10\n  jump\t// in\ntag_9:\n  mload(0x40)\n  dup1\n  swap2\n  sub\n  swap1\n  revert\n    /* \"@openzeppelin/contracts/access/Ownable.sol\":1269:1364  if (initialOwner == address(0)) {... */\ntag_8:\n    /* \"@openzeppelin/contracts/access/Ownable.sol\":1373:1405  _transferOwnership(initialOwner) */\n  tag_11\n    /* \"@openzeppelin/contracts/access/Ownable.sol\":1392:1404  initialOwner */\n  dup2\n    /* \"@openzeppelin/contracts/access/Ownable.sol\":1373:1391  _transferOwnership */\n  shl(0x20, tag_12)\n    /* \"@openzeppelin/contracts/access/Ownable.sol\":1373:1405  _transferOwnership(initialOwner) */\n  0x20\n  shr\n  jump\t// in\ntag_11:\n    /* \"@openzeppelin/contracts/access/Ownable.sol\":1225:1412  constructor(address initialOwner) {... */\n  pop\n    /* \"@openzeppelin/contracts/security/ReentrancyGuard.sol\":1716:1717  1 */\n  0x01\n    /* \"@openzeppelin/contracts/security/ReentrancyGuard.sol\":1821:1828  _status */\n  dup1\n    /* \"@openzeppelin/contracts/security/ReentrancyGuard.sol\":1821:1843  _status = _NOT_ENTERED */\n  dup2\n  swap1\n  sstore\n  pop\n    /* \"contracts/KipuBankV2.sol\":5329:5336  _oracle */\n  dup3\n    /* \"contracts/KipuBankV2.sol\":5296:5304  s_oracle */\n  0x03\n  0x00\n    /* \"contracts/KipuBankV2.sol\":5296:5337  s_oracle = AggregatorV3Interface(_oracle) */\n  0x0100\n  exp\n  dup2\n  sload\n  dup2\n  0xffffffffffffffffffffffffffffffffffffffff\n  mul\n  not\n  and\n  swap1\n  dup4\n  0xffffffffffffffffffffffffffffffffffffffff\n  and\n  mul\n  or\n  swap1\n  sstore\n  pop\n    /* \"contracts/KipuBankV2.sol\":5363:5368  _usdc */\n  dup2\n    /* \"contracts/KipuBankV2.sol\":5347:5369  i_usdc = IERC20(_usdc) */\n  0xffffffffffffffffffffffffffffffffffffffff\n  and\n  0x80\n  dup2\n  0xffffffffffffffffffffffffffffffffffffffff\n  and\n  dup2\n  mstore\n  pop\n  pop\n    /* \"contracts/KipuBankV2.sol\":5395:5407  _bankCapital */\n  dup5\n    /* \"contracts/KipuBankV2.sol\":5379:5392  s_bankCapital */\n  0x06\n    /* \"contracts/KipuBankV2.sol\":5379:5407  s_bankCapital = _bankCapital */\n  dup2\n  swap1\n  sstore\n  pop\n    /* \"contracts/KipuBankV2.sol\":5434:5451  _depositLimitUSDC */\n  dup4\n    /* \"contracts/KipuBankV2.sol\":5417:5431  s_depositLimit */\n  0x04\n    /* \"contracts/KipuBankV2.sol\":5417:5451  s_depositLimit = _depositLimitUSDC */\n  dup2\n  swap1\n  sstore\n  pop\n    /* \"contracts/KipuBankV2.sol\":5115:5458  constructor(... */\n  pop\n  pop\n  pop\n  pop\n  pop\n    /* \"contracts/KipuBankV2.sol\":789:11447  contract KipuBankV2 is Ownable, ReentrancyGuard {... */\n  jump(tag_15)\n    /* \"@openzeppelin/contracts/access/Ownable.sol\":2912:3099  function _transferOwnership(address newOwner) internal virtual {... */\ntag_12:\n    /* \"@openzeppelin/contracts/access/Ownable.sol\":2985:3001  address oldOwner */\n  0x00\n    /* \"@openzeppelin/contracts/access/Ownable.sol\":3004:3010  _owner */\n  0x00\n  0x00\n  swap1\n  sload\n  swap1\n  0x0100\n  exp\n  swap1\n  div\n  0xffffffffffffffffffffffffffffffffffffffff\n  and\n    /* \"@openzeppelin/contracts/access/Ownable.sol\":2985:3010  address oldOwner = _owner */\n  swap1\n  pop\n    /* \"@openzeppelin/contracts/access/Ownable.sol\":3029:3037  newOwner */\n  dup2\n    /* \"@openzeppelin/contracts/access/Ownable.sol\":3020:3026  _owner */\n  0x00\n  0x00\n    /* \"@openzeppelin/contracts/access/Ownable.sol\":3020:3037  _owner = newOwner */\n  0x0100\n  exp\n  dup2\n  sload\n  dup2\n  0xffffffffffffffffffffffffffffffffffffffff\n  mul\n  not\n  and\n  swap1\n  dup4\n  0xffffffffffffffffffffffffffffffffffffffff\n  and\n  mul\n  or\n  swap1\n  sstore\n  pop\n    /* \"@openzeppelin/contracts/access/Ownable.sol\":3083:3091  newOwner */\n  dup2\n    /* \"@openzeppelin/contracts/access/Ownable.sol\":3052:3092  OwnershipTransferred(oldOwner, newOwner) */\n  0xffffffffffffffffffffffffffffffffffffffff\n  and\n    /* \"@openzeppelin/contracts/access/Ownable.sol\":3073:3081  oldOwner */\n  dup2\n    /* \"@openzeppelin/contracts/access/Ownable.sol\":3052:3092  OwnershipTransferred(oldOwner, newOwner) */\n  0xffffffffffffffffffffffffffffffffffffffff\n  and\n  0x8be0079c531659141344cd1fd0a4f28419497f9722a3daafe3b4186f6b6457e0\n  mload(0x40)\n  mload(0x40)\n  dup1\n  swap2\n  sub\n  swap1\n  log3\n    /* \"@openzeppelin/contracts/access/Ownable.sol\":2975:3099  {... */\n  pop\n    /* \"@openzeppelin/contracts/access/Ownable.sol\":2912:3099  function _transferOwnership(address newOwner) internal virtual {... */\n  pop\n  jump\t// out\n    /* \"#utility.yul\":88:205   */\ntag_18:\n    /* \"#utility.yul\":197:198   */\n  0x00\n    /* \"#utility.yul\":194:195   */\n  0x00\n    /* \"#utility.yul\":187:199   */\n  revert\n    /* \"#utility.yul\":334:411   */\ntag_20:\n    /* \"#utility.yul\":371:378   */\n  0x00\n    /* \"#utility.yul\":400:405   */\n  dup2\n    /* \"#utility.yul\":389:405   */\n  swap1\n  pop\n    /* \"#utility.yul\":334:411   */\n  swap2\n  swap1\n  pop\n  jump\t// out\n    /* \"#utility.yul\":417:539   */\ntag_21:\n    /* \"#utility.yul\":490:514   */\n  tag_34\n    /* \"#utility.yul\":508:513   */\n  dup2\n    /* \"#utility.yul\":490:514   */\n  tag_20\n  jump\t// in\ntag_34:\n    /* \"#utility.yul\":483:488   */\n  dup2\n    /* \"#utility.yul\":480:515   */\n  eq\n    /* \"#utility.yul\":470:533   */\n  tag_35\n  jumpi\n    /* \"#utility.yul\":529:530   */\n  0x00\n    /* \"#utility.yul\":526:527   */\n  0x00\n    /* \"#utility.yul\":519:531   */\n  revert\n    /* \"#utility.yul\":470:533   */\ntag_35:\n    /* \"#utility.yul\":417:539   */\n  pop\n  jump\t// out\n    /* \"#utility.yul\":545:688   */\ntag_22:\n    /* \"#utility.yul\":602:607   */\n  0x00\n    /* \"#utility.yul\":633:639   */\n  dup2\n    /* \"#utility.yul\":627:640   */\n  mload\n    /* \"#utility.yul\":618:640   */\n  swap1\n  pop\n    /* \"#utility.yul\":649:682   */\n  tag_37\n    /* \"#utility.yul\":676:681   */\n  dup2\n    /* \"#utility.yul\":649:682   */\n  tag_21\n  jump\t// in\ntag_37:\n    /* \"#utility.yul\":545:688   */\n  swap3\n  swap2\n  pop\n  pop\n  jump\t// out\n    /* \"#utility.yul\":694:820   */\ntag_23:\n    /* \"#utility.yul\":731:738   */\n  0x00\n    /* \"#utility.yul\":771:813   */\n  0xffffffffffffffffffffffffffffffffffffffff\n    /* \"#utility.yul\":764:769   */\n  dup3\n    /* \"#utility.yul\":760:814   */\n  and\n    /* \"#utility.yul\":749:814   */\n  swap1\n  pop\n    /* \"#utility.yul\":694:820   */\n  swap2\n  swap1\n  pop\n  jump\t// out\n    /* \"#utility.yul\":826:922   */\ntag_24:\n    /* \"#utility.yul\":863:870   */\n  0x00\n    /* \"#utility.yul\":892:916   */\n  tag_40\n    /* \"#utility.yul\":910:915   */\n  dup3\n    /* \"#utility.yul\":892:916   */\n  tag_23\n  jump\t// in\ntag_40:\n    /* \"#utility.yul\":881:916   */\n  swap1\n  pop\n    /* \"#utility.yul\":826:922   */\n  swap2\n  swap1\n  pop\n  jump\t// out\n    /* \"#utility.yul\":928:1050   */\ntag_25:\n    /* \"#utility.yul\":1001:1025   */\n  tag_42\n    /* \"#utility.yul\":1019:1024   */\n  dup2\n    /* \"#utility.yul\":1001:1025   */\n  tag_24\n  jump\t// in\ntag_42:\n    /* \"#utility.yul\":994:999   */\n  dup2\n    /* \"#utility.yul\":991:1026   */\n  eq\n    /* \"#utility.yul\":981:1044   */\n  tag_43\n  jumpi\n    /* \"#utility.yul\":1040:1041   */\n  0x00\n    /* \"#utility.yul\":1037:1038   */\n  0x00\n    /* \"#utility.yul\":1030:1042   */\n  revert\n    /* \"#utility.yul\":981:1044   */\ntag_43:\n    /* \"#utility.yul\":928:1050   */\n  pop\n  jump\t// out\n    /* \"#utility.yul\":1056:1199   */\ntag_26:\n    /* \"#utility.yul\":1113:1118   */\n  0x00\n    /* \"#utility.yul\":1144:1150   */\n  dup2\n    /* \"#utility.yul\":1138:1151   */\n  mload\n    /* \"#utility.yul\":1129:1151   */\n  swap1\n  pop\n    /* \"#utility.yul\":1160:1193   */\n  tag_45\n    /* \"#utility.yul\":1187:1192   */\n  dup2\n    /* \"#utility.yul\":1160:1193   */\n  tag_25\n  jump\t// in\ntag_45:\n    /* \"#utility.yul\":1056:1199   */\n  swap3\n  swap2\n  pop\n  pop\n  jump\t// out\n    /* \"#utility.yul\":1205:2182   */\ntag_3:\n    /* \"#utility.yul\":1311:1317   */\n  0x00\n    /* \"#utility.yul\":1319:1325   */\n  0x00\n    /* \"#utility.yul\":1327:1333   */\n  0x00\n    /* \"#utility.yul\":1335:1341   */\n  0x00\n    /* \"#utility.yul\":1343:1349   */\n  0x00\n    /* \"#utility.yul\":1392:1395   */\n  0xa0\n    /* \"#utility.yul\":1380:1389   */\n  dup7\n    /* \"#utility.yul\":1371:1378   */\n  dup9\n    /* \"#utility.yul\":1367:1390   */\n  sub\n    /* \"#utility.yul\":1363:1396   */\n  slt\n    /* \"#utility.yul\":1360:1480   */\n  iszero\n  tag_47\n  jumpi\n    /* \"#utility.yul\":1399:1478   */\n  tag_48\n  tag_18\n  jump\t// in\ntag_48:\n    /* \"#utility.yul\":1360:1480   */\ntag_47:\n    /* \"#utility.yul\":1519:1520   */\n  0x00\n    /* \"#utility.yul\":1544:1608   */\n  tag_49\n    /* \"#utility.yul\":1600:1607   */\n  dup9\n    /* \"#utility.yul\":1591:1597   */\n  dup3\n    /* \"#utility.yul\":1580:1589   */\n  dup10\n    /* \"#utility.yul\":1576:1598   */\n  add\n    /* \"#utility.yul\":1544:1608   */\n  tag_22\n  jump\t// in\ntag_49:\n    /* \"#utility.yul\":1534:1608   */\n  swap6\n  pop\n    /* \"#utility.yul\":1490:1618   */\n  pop\n    /* \"#utility.yul\":1657:1659   */\n  0x20\n    /* \"#utility.yul\":1683:1747   */\n  tag_50\n    /* \"#utility.yul\":1739:1746   */\n  dup9\n    /* \"#utility.yul\":1730:1736   */\n  dup3\n    /* \"#utility.yul\":1719:1728   */\n  dup10\n    /* \"#utility.yul\":1715:1737   */\n  add\n    /* \"#utility.yul\":1683:1747   */\n  tag_22\n  jump\t// in\ntag_50:\n    /* \"#utility.yul\":1673:1747   */\n  swap5\n  pop\n    /* \"#utility.yul\":1628:1757   */\n  pop\n    /* \"#utility.yul\":1796:1798   */\n  0x40\n    /* \"#utility.yul\":1822:1886   */\n  tag_51\n    /* \"#utility.yul\":1878:1885   */\n  dup9\n    /* \"#utility.yul\":1869:1875   */\n  dup3\n    /* \"#utility.yul\":1858:1867   */\n  dup10\n    /* \"#utility.yul\":1854:1876   */\n  add\n    /* \"#utility.yul\":1822:1886   */\n  tag_26\n  jump\t// in\ntag_51:\n    /* \"#utility.yul\":1812:1886   */\n  swap4\n  pop\n    /* \"#utility.yul\":1767:1896   */\n  pop\n    /* \"#utility.yul\":1935:1937   */\n  0x60\n    /* \"#utility.yul\":1961:2025   */\n  tag_52\n    /* \"#utility.yul\":2017:2024   */\n  dup9\n    /* \"#utility.yul\":2008:2014   */\n  dup3\n    /* \"#utility.yul\":1997:2006   */\n  dup10\n    /* \"#utility.yul\":1993:2015   */\n  add\n    /* \"#utility.yul\":1961:2025   */\n  tag_26\n  jump\t// in\ntag_52:\n    /* \"#utility.yul\":1951:2025   */\n  swap3\n  pop\n    /* \"#utility.yul\":1906:2035   */\n  pop\n    /* \"#utility.yul\":2074:2077   */\n  0x80\n    /* \"#utility.yul\":2101:2165   */\n  tag_53\n    /* \"#utility.yul\":2157:2164   */\n  dup9\n    /* \"#utility.yul\":2148:2154   */\n  dup3\n    /* \"#utility.yul\":2137:2146   */\n  dup10\n    /* \"#utility.yul\":2133:2155   */\n  add\n    /* \"#utility.yul\":2101:2165   */\n  tag_26\n  jump\t// in\ntag_53:\n    /* \"#utility.yul\":2091:2165   */\n  swap2\n  pop\n    /* \"#utility.yul\":2045:2175   */\n  pop\n    /* \"#utility.yul\":1205:2182   */\n  swap3\n  swap6\n  pop\n  swap3\n  swap6\n  swap1\n  swap4\n  pop\n  jump\t// out\n    /* \"#utility.yul\":2188:2306   */\ntag_27:\n    /* \"#utility.yul\":2275:2299   */\n  tag_55\n    /* \"#utility.yul\":2293:2298   */\n  dup2\n    /* \"#utility.yul\":2275:2299   */\n  tag_24\n  jump\t// in\ntag_55:\n    /* \"#utility.yul\":2270:2273   */\n  dup3\n    /* \"#utility.yul\":2263:2300   */\n  mstore\n    /* \"#utility.yul\":2188:2306   */\n  pop\n  pop\n  jump\t// out\n    /* \"#utility.yul\":2312:2534   */\ntag_10:\n    /* \"#utility.yul\":2405:2409   */\n  0x00\n    /* \"#utility.yul\":2443:2445   */\n  0x20\n    /* \"#utility.yul\":2432:2441   */\n  dup3\n    /* \"#utility.yul\":2428:2446   */\n  add\n    /* \"#utility.yul\":2420:2446   */\n  swap1\n  pop\n    /* \"#utility.yul\":2456:2527   */\n  tag_57\n    /* \"#utility.yul\":2524:2525   */\n  0x00\n    /* \"#utility.yul\":2513:2522   */\n  dup4\n    /* \"#utility.yul\":2509:2526   */\n  add\n    /* \"#utility.yul\":2500:2506   */\n  dup5\n    /* \"#utility.yul\":2456:2527   */\n  tag_27\n  jump\t// in\ntag_57:\n    /* \"#utility.yul\":2312:2534   */\n  swap3\n  swap2\n  pop\n  pop\n  jump\t// out\n    /* \"contracts/KipuBankV2.sol\":789:11447  contract KipuBankV2 is Ownable, ReentrancyGuard {... */\ntag_15:\n  mload(0x80)\n  codecopy(0x00, dataOffset(sub_0), dataSize(sub_0))\n  0x00\n  assignImmutable(\"0xd981c1aa70496adbf331222473f4f790f8f1219995826de705ab70eb68beb770\")\n  return(0x00, dataSize(sub_0))\nstop\n\nsub_0: assembly {\n        /* \"contracts/KipuBankV2.sol\":789:11447  contract KipuBankV2 is Ownable, ReentrancyGuard {... */\n      mstore(0x40, 0x80)\n      jumpi(tag_1, lt(calldatasize, 0x04))\n      shr(0xe0, calldataload(0x00))\n      dup1\n      0xa1eaa644\n      gt\n      tag_23\n      jumpi\n      dup1\n      0xf14210a6\n      gt\n      tag_24\n      jumpi\n      dup1\n      0xf14210a6\n      eq\n      tag_17\n      jumpi\n      dup1\n      0xf2fde38b\n      eq\n      tag_18\n      jumpi\n      dup1\n      0xf6326fb3\n      eq\n      tag_19\n      jumpi\n      dup1\n      0xf688bcfb\n      eq\n      tag_20\n      jumpi\n      dup1\n      0xfc457792\n      eq\n      tag_21\n      jumpi\n      dup1\n      0xff40e1d0\n      eq\n      tag_22\n      jumpi\n      jump(tag_1)\n    tag_24:\n      dup1\n      0xa1eaa644\n      eq\n      tag_12\n      jumpi\n      dup1\n      0xbdc8144b\n      eq\n      tag_13\n      jumpi\n      dup1\n      0xcac2e25f\n      eq\n      tag_14\n      jumpi\n      dup1\n      0xdb81f99b\n      eq\n      tag_15\n      jumpi\n      dup1\n      0xdcd725a7\n      eq\n      tag_16\n      jumpi\n      jump(tag_1)\n    tag_23:\n      dup1\n      0x7adbf973\n      gt\n      tag_25\n      jumpi\n      dup1\n      0x7adbf973\n      eq\n      tag_7\n      jumpi\n      dup1\n      0x8c8bdae9\n      eq\n      tag_8\n      jumpi\n      dup1\n      0x8da5cb5b\n      eq\n      tag_9\n      jumpi\n      dup1\n      0x8eddc8f9\n      eq\n      tag_10\n      jumpi\n      dup1\n      0xa00cad48\n      eq\n      tag_11\n      jumpi\n      jump(tag_1)\n    tag_25:\n      dup1\n      0x16123524\n      eq\n      tag_2\n      jumpi\n      dup1\n      0x52963c2b\n      eq\n      tag_3\n      jumpi\n      dup1\n      0x6bec1ed0\n      eq\n      tag_4\n      jumpi\n      dup1\n      0x715018a6\n      eq\n      tag_5\n      jumpi\n      dup1\n      0x78234a3b\n      eq\n      tag_6\n      jumpi\n    tag_1:\n      revert(0x00, 0x00)\n        /* \"contracts/KipuBankV2.sol\":1968:1996  uint256 public s_bankCapital */\n    tag_2:\n      callvalue\n      dup1\n      iszero\n      tag_26\n      jumpi\n      revert(0x00, 0x00)\n    tag_26:\n      pop\n      tag_27\n      tag_28\n      jump\t// in\n    tag_27:\n      mload(0x40)\n      tag_29\n      swap2\n      swap1\n      tag_30\n      jump\t// in\n    tag_29:\n      mload(0x40)\n      dup1\n      swap2\n      sub\n      swap1\n      return\n        /* \"contracts/KipuBankV2.sol\":1876:1906  uint256 public s_totalDeposits */\n    tag_3:\n      callvalue\n      dup1\n      iszero\n      tag_31\n      jumpi\n      revert(0x00, 0x00)\n    tag_31:\n      pop\n      tag_32\n      tag_33\n      jump\t// in\n    tag_32:\n      mload(0x40)\n      tag_34\n      swap2\n      swap1\n      tag_30\n      jump\t// in\n    tag_34:\n      mload(0x40)\n      dup1\n      swap2\n      sub\n      swap1\n      return\n        /* \"contracts/KipuBankV2.sol\":7152:7416  function contractBalanceInUSDC() public view returns (uint256 totalBalance) {... */\n    tag_4:\n      callvalue\n      dup1\n      iszero\n      tag_35\n      jumpi\n      revert(0x00, 0x00)\n    tag_35:\n      pop\n      tag_36\n      tag_37\n      jump\t// in\n    tag_36:\n      mload(0x40)\n      tag_38\n      swap2\n      swap1\n      tag_30\n      jump\t// in\n    tag_38:\n      mload(0x40)\n      dup1\n      swap2\n      sub\n      swap1\n      return\n        /* \"@openzeppelin/contracts/access/Ownable.sol\":2293:2394  function renounceOwnership() public virtual onlyOwner {... */\n    tag_5:\n      callvalue\n      dup1\n      iszero\n      tag_39\n      jumpi\n      revert(0x00, 0x00)\n    tag_39:\n      pop\n      tag_40\n      tag_41\n      jump\t// in\n    tag_40:\n      stop\n        /* \"contracts/KipuBankV2.sol\":2155:2185  uint256 public s_withdrawCount */\n    tag_6:\n      callvalue\n      dup1\n      iszero\n      tag_42\n      jumpi\n      revert(0x00, 0x00)\n    tag_42:\n      pop\n      tag_43\n      tag_44\n      jump\t// in\n    tag_43:\n      mload(0x40)\n      tag_45\n      swap2\n      swap1\n      tag_30\n      jump\t// in\n    tag_45:\n      mload(0x40)\n      dup1\n      swap2\n      sub\n      swap1\n      return\n        /* \"contracts/KipuBankV2.sol\":10765:10924  function setOracle(address _newOracle) external onlyOwner {... */\n    tag_7:\n      callvalue\n      dup1\n      iszero\n      tag_46\n      jumpi\n      revert(0x00, 0x00)\n    tag_46:\n      pop\n      tag_47\n      0x04\n      dup1\n      calldatasize\n      sub\n      dup2\n      add\n      swap1\n      tag_48\n      swap2\n      swap1\n      tag_49\n      jump\t// in\n    tag_48:\n      tag_50\n      jump\t// in\n    tag_47:\n      stop\n        /* \"contracts/KipuBankV2.sol\":7721:7846  function viewUSDCBalance(address user) external view returns (uint256) {... */\n    tag_8:\n      callvalue\n      dup1\n      iszero\n      tag_51\n      jumpi\n      revert(0x00, 0x00)\n    tag_51:\n      pop\n      tag_52\n      0x04\n      dup1\n      calldatasize\n      sub\n      dup2\n      add\n      swap1\n      tag_53\n      swap2\n      swap1\n      tag_49\n      jump\t// in\n    tag_53:\n      tag_54\n      jump\t// in\n    tag_52:\n      mload(0x40)\n      tag_55\n      swap2\n      swap1\n      tag_30\n      jump\t// in\n    tag_55:\n      mload(0x40)\n      dup1\n      swap2\n      sub\n      swap1\n      return\n        /* \"@openzeppelin/contracts/access/Ownable.sol\":1638:1723  function owner() public view virtual returns (address) {... */\n    tag_9:\n      callvalue\n      dup1\n      iszero\n      tag_56\n      jumpi\n      revert(0x00, 0x00)\n    tag_56:\n      pop\n      tag_57\n      tag_58\n      jump\t// in\n    tag_57:\n      mload(0x40)\n      tag_59\n      swap2\n      swap1\n      tag_60\n      jump\t// in\n    tag_59:\n      mload(0x40)\n      dup1\n      swap2\n      sub\n      swap1\n      return\n        /* \"contracts/KipuBankV2.sol\":11074:11182  function setBankCapital(uint256 _newCapital) external onlyOwner {... */\n    tag_10:\n      callvalue\n      dup1\n      iszero\n      tag_61\n      jumpi\n      revert(0x00, 0x00)\n    tag_61:\n      pop\n      tag_62\n      0x04\n      dup1\n      calldatasize\n      sub\n      dup2\n      add\n      swap1\n      tag_63\n      swap2\n      swap1\n      tag_64\n      jump\t// in\n    tag_63:\n      tag_65\n      jump\t// in\n    tag_62:\n      stop\n        /* \"contracts/KipuBankV2.sol\":1777:1806  uint256 public s_depositLimit */\n    tag_11:\n      callvalue\n      dup1\n      iszero\n      tag_66\n      jumpi\n      revert(0x00, 0x00)\n    tag_66:\n      pop\n      tag_67\n      tag_68\n      jump\t// in\n    tag_67:\n      mload(0x40)\n      tag_69\n      swap2\n      swap1\n      tag_30\n      jump\t// in\n    tag_69:\n      mload(0x40)\n      dup1\n      swap2\n      sub\n      swap1\n      return\n        /* \"contracts/KipuBankV2.sol\":1143:1223  mapping(address user => mapping(address token => uint256 amount)) public s_vault */\n    tag_12:\n      callvalue\n      dup1\n      iszero\n      tag_70\n      jumpi\n      revert(0x00, 0x00)\n    tag_70:\n      pop\n      tag_71\n      0x04\n      dup1\n      calldatasize\n      sub\n      dup2\n      add\n      swap1\n      tag_72\n      swap2\n      swap1\n      tag_73\n      jump\t// in\n    tag_72:\n      tag_74\n      jump\t// in\n    tag_71:\n      mload(0x40)\n      tag_75\n      swap2\n      swap1\n      tag_30\n      jump\t// in\n    tag_75:\n      mload(0x40)\n      dup1\n      swap2\n      sub\n      swap1\n      return\n        /* \"contracts/KipuBankV2.sol\":11339:11445  function setDepositLimit(uint256 _newLimit) external onlyOwner {... */\n    tag_13:\n      callvalue\n      dup1\n      iszero\n      tag_76\n      jumpi\n      revert(0x00, 0x00)\n    tag_76:\n      pop\n      tag_77\n      0x04\n      dup1\n      calldatasize\n      sub\n      dup2\n      add\n      swap1\n      tag_78\n      swap2\n      swap1\n      tag_64\n      jump\t// in\n    tag_78:\n      tag_79\n      jump\t// in\n    tag_77:\n      stop\n        /* \"contracts/KipuBankV2.sol\":2191:2220  uint256 public s_depositCount */\n    tag_14:\n      callvalue\n      dup1\n      iszero\n      tag_80\n      jumpi\n      revert(0x00, 0x00)\n    tag_80:\n      pop\n      tag_81\n      tag_82\n      jump\t// in\n    tag_81:\n      mload(0x40)\n      tag_83\n      swap2\n      swap1\n      tag_30\n      jump\t// in\n    tag_83:\n      mload(0x40)\n      dup1\n      swap2\n      sub\n      swap1\n      return\n        /* \"contracts/KipuBankV2.sol\":9965:10407  function withdrawUSDC(uint256 _usdcAmount) external nonReentrant {... */\n    tag_15:\n      callvalue\n      dup1\n      iszero\n      tag_84\n      jumpi\n      revert(0x00, 0x00)\n    tag_84:\n      pop\n      tag_85\n      0x04\n      dup1\n      calldatasize\n      sub\n      dup2\n      add\n      swap1\n      tag_86\n      swap2\n      swap1\n      tag_64\n      jump\t// in\n    tag_86:\n      tag_87\n      jump\t// in\n    tag_85:\n      stop\n        /* \"contracts/KipuBankV2.sol\":7508:7646  function viewETHBalance(address user) external view returns (uint256) {... */\n    tag_16:\n      callvalue\n      dup1\n      iszero\n      tag_88\n      jumpi\n      revert(0x00, 0x00)\n    tag_88:\n      pop\n      tag_89\n      0x04\n      dup1\n      calldatasize\n      sub\n      dup2\n      add\n      swap1\n      tag_90\n      swap2\n      swap1\n      tag_49\n      jump\t// in\n    tag_90:\n      tag_91\n      jump\t// in\n    tag_89:\n      mload(0x40)\n      tag_92\n      swap2\n      swap1\n      tag_30\n      jump\t// in\n    tag_92:\n      mload(0x40)\n      dup1\n      swap2\n      sub\n      swap1\n      return\n        /* \"contracts/KipuBankV2.sol\":8193:8610  function withdrawETH(uint256 _withdrawAmount)... */\n    tag_17:\n      callvalue\n      dup1\n      iszero\n      tag_93\n      jumpi\n      revert(0x00, 0x00)\n    tag_93:\n      pop\n      tag_94\n      0x04\n      dup1\n      calldatasize\n      sub\n      dup2\n      add\n      swap1\n      tag_95\n      swap2\n      swap1\n      tag_64\n      jump\t// in\n    tag_95:\n      tag_96\n      jump\t// in\n    tag_94:\n      stop\n        /* \"@openzeppelin/contracts/access/Ownable.sol\":2543:2758  function transferOwnership(address newOwner) public virtual onlyOwner {... */\n    tag_18:\n      callvalue\n      dup1\n      iszero\n      tag_97\n      jumpi\n      revert(0x00, 0x00)\n    tag_97:\n      pop\n      tag_98\n      0x04\n      dup1\n      calldatasize\n      sub\n      dup2\n      add\n      swap1\n      tag_99\n      swap2\n      swap1\n      tag_49\n      jump\t// in\n    tag_99:\n      tag_100\n      jump\t// in\n    tag_98:\n      stop\n        /* \"contracts/KipuBankV2.sol\":8693:9185  function depositETH()... */\n    tag_19:\n      tag_101\n      tag_102\n      jump\t// in\n    tag_101:\n      stop\n        /* \"contracts/KipuBankV2.sol\":9326:9822  function depositUSDC(uint256 _usdcAmount)... */\n    tag_20:\n      callvalue\n      dup1\n      iszero\n      tag_103\n      jumpi\n      revert(0x00, 0x00)\n    tag_103:\n      pop\n      tag_104\n      0x04\n      dup1\n      calldatasize\n      sub\n      dup2\n      add\n      swap1\n      tag_105\n      swap2\n      swap1\n      tag_64\n      jump\t// in\n    tag_105:\n      tag_106\n      jump\t// in\n    tag_104:\n      stop\n        /* \"contracts/KipuBankV2.sol\":1303:1340  AggregatorV3Interface public s_oracle */\n    tag_21:\n      callvalue\n      dup1\n      iszero\n      tag_107\n      jumpi\n      revert(0x00, 0x00)\n    tag_107:\n      pop\n      tag_108\n      tag_109\n      jump\t// in\n    tag_108:\n      mload(0x40)\n      tag_110\n      swap2\n      swap1\n      tag_111\n      jump\t// in\n    tag_110:\n      mload(0x40)\n      dup1\n      swap2\n      sub\n      swap1\n      return\n        /* \"contracts/KipuBankV2.sol\":1662:1692  IERC20 public immutable i_usdc */\n    tag_22:\n      callvalue\n      dup1\n      iszero\n      tag_112\n      jumpi\n      revert(0x00, 0x00)\n    tag_112:\n      pop\n      tag_113\n      tag_114\n      jump\t// in\n    tag_113:\n      mload(0x40)\n      tag_115\n      swap2\n      swap1\n      tag_116\n      jump\t// in\n    tag_115:\n      mload(0x40)\n      dup1\n      swap2\n      sub\n      swap1\n      return\n        /* \"contracts/KipuBankV2.sol\":1968:1996  uint256 public s_bankCapital */\n    tag_28:\n      sload(0x06)\n      dup2\n      jump\t// out\n        /* \"contracts/KipuBankV2.sol\":1876:1906  uint256 public s_totalDeposits */\n    tag_33:\n      sload(0x05)\n      dup2\n      jump\t// out\n        /* \"contracts/KipuBankV2.sol\":7152:7416  function contractBalanceInUSDC() public view returns (uint256 totalBalance) {... */\n    tag_37:\n        /* \"contracts/KipuBankV2.sol\":7206:7226  uint256 totalBalance */\n      0x00\n        /* \"contracts/KipuBankV2.sol\":7238:7255  uint256 ethInUSDC */\n      0x00\n        /* \"contracts/KipuBankV2.sol\":7258:7298  _convertETHtoUSDC(address(this).balance) */\n      tag_118\n        /* \"contracts/KipuBankV2.sol\":7276:7297  address(this).balance */\n      selfbalance\n        /* \"contracts/KipuBankV2.sol\":7258:7275  _convertETHtoUSDC */\n      tag_119\n        /* \"contracts/KipuBankV2.sol\":7258:7298  _convertETHtoUSDC(address(this).balance) */\n      jump\t// in\n    tag_118:\n        /* \"contracts/KipuBankV2.sol\":7238:7298  uint256 ethInUSDC = _convertETHtoUSDC(address(this).balance) */\n      swap1\n      pop\n        /* \"contracts/KipuBankV2.sol\":7308:7327  uint256 usdcBalance */\n      0x00\n        /* \"contracts/KipuBankV2.sol\":7330:7336  i_usdc */\n      immutable(\"0xd981c1aa70496adbf331222473f4f790f8f1219995826de705ab70eb68beb770\")\n        /* \"contracts/KipuBankV2.sol\":7330:7346  i_usdc.balanceOf */\n      0xffffffffffffffffffffffffffffffffffffffff\n      and\n      0x70a08231\n        /* \"contracts/KipuBankV2.sol\":7355:7359  this */\n      address\n        /* \"contracts/KipuBankV2.sol\":7330:7361  i_usdc.balanceOf(address(this)) */\n      mload(0x40)\n      dup3\n      0xffffffff\n      and\n      0xe0\n      shl\n      dup2\n      mstore\n      0x04\n      add\n      tag_120\n      swap2\n      swap1\n      tag_60\n      jump\t// in\n    tag_120:\n      0x20\n      mload(0x40)\n      dup1\n      dup4\n      sub\n      dup2\n      dup7\n      gas\n      staticcall\n      iszero\n      dup1\n      iszero\n      tag_122\n      jumpi\n      returndatacopy(0x00, 0x00, returndatasize)\n      revert(0x00, returndatasize)\n    tag_122:\n      pop\n      pop\n      pop\n      pop\n      mload(0x40)\n      returndatasize\n      not(0x1f)\n      0x1f\n      dup3\n      add\n      and\n      dup3\n      add\n      dup1\n      0x40\n      mstore\n      pop\n      dup2\n      add\n      swap1\n      tag_123\n      swap2\n      swap1\n      tag_124\n      jump\t// in\n    tag_123:\n        /* \"contracts/KipuBankV2.sol\":7308:7361  uint256 usdcBalance = i_usdc.balanceOf(address(this)) */\n      swap1\n      pop\n        /* \"contracts/KipuBankV2.sol\":7398:7409  usdcBalance */\n      dup1\n        /* \"contracts/KipuBankV2.sol\":7386:7395  ethInUSDC */\n      dup3\n        /* \"contracts/KipuBankV2.sol\":7386:7409  ethInUSDC + usdcBalance */\n      tag_125\n      swap2\n      swap1\n      tag_126\n      jump\t// in\n    tag_125:\n        /* \"contracts/KipuBankV2.sol\":7371:7409  totalBalance = ethInUSDC + usdcBalance */\n      swap3\n      pop\n        /* \"contracts/KipuBankV2.sol\":7228:7416  {... */\n      pop\n      pop\n        /* \"contracts/KipuBankV2.sol\":7152:7416  function contractBalanceInUSDC() public view returns (uint256 totalBalance) {... */\n      swap1\n      jump\t// out\n        /* \"@openzeppelin/contracts/access/Ownable.sol\":2293:2394  function renounceOwnership() public virtual onlyOwner {... */\n    tag_41:\n        /* \"@openzeppelin/contracts/access/Ownable.sol\":1531:1544  _checkOwner() */\n      tag_128\n        /* \"@openzeppelin/contracts/access/Ownable.sol\":1531:1542  _checkOwner */\n      tag_129\n        /* \"@openzeppelin/contracts/access/Ownable.sol\":1531:1544  _checkOwner() */\n      jump\t// in\n    tag_128:\n        /* \"@openzeppelin/contracts/access/Ownable.sol\":2357:2387  _transferOwnership(address(0)) */\n      tag_131\n        /* \"@openzeppelin/contracts/access/Ownable.sol\":2384:2385  0 */\n      0x00\n        /* \"@openzeppelin/contracts/access/Ownable.sol\":2357:2375  _transferOwnership */\n      tag_132\n        /* \"@openzeppelin/contracts/access/Ownable.sol\":2357:2387  _transferOwnership(address(0)) */\n      jump\t// in\n    tag_131:\n        /* \"@openzeppelin/contracts/access/Ownable.sol\":2293:2394  function renounceOwnership() public virtual onlyOwner {... */\n      jump\t// out\n        /* \"contracts/KipuBankV2.sol\":2155:2185  uint256 public s_withdrawCount */\n    tag_44:\n      sload(0x07)\n      dup2\n      jump\t// out\n        /* \"contracts/KipuBankV2.sol\":10765:10924  function setOracle(address _newOracle) external onlyOwner {... */\n    tag_50:\n        /* \"@openzeppelin/contracts/access/Ownable.sol\":1531:1544  _checkOwner() */\n      tag_134\n        /* \"@openzeppelin/contracts/access/Ownable.sol\":1531:1542  _checkOwner */\n      tag_129\n        /* \"@openzeppelin/contracts/access/Ownable.sol\":1531:1544  _checkOwner() */\n      jump\t// in\n    tag_134:\n        /* \"contracts/KipuBankV2.sol\":10866:10876  _newOracle */\n      dup1\n        /* \"contracts/KipuBankV2.sol\":10833:10841  s_oracle */\n      0x03\n      0x00\n        /* \"contracts/KipuBankV2.sol\":10833:10877  s_oracle = AggregatorV3Interface(_newOracle) */\n      0x0100\n      exp\n      dup2\n      sload\n      dup2\n      0xffffffffffffffffffffffffffffffffffffffff\n      mul\n      not\n      and\n      swap1\n      dup4\n      0xffffffffffffffffffffffffffffffffffffffff\n      and\n      mul\n      or\n      swap1\n      sstore\n      pop\n        /* \"contracts/KipuBankV2.sol\":10892:10917  OracleUpdated(_newOracle) */\n      0x3df77beb5db05fcdd70a30fc8adf3f83f9501b68579455adbd100b8180940394\n        /* \"contracts/KipuBankV2.sol\":10906:10916  _newOracle */\n      dup2\n        /* \"contracts/KipuBankV2.sol\":10892:10917  OracleUpdated(_newOracle) */\n      mload(0x40)\n      tag_136\n      swap2\n      swap1\n      tag_60\n      jump\t// in\n    tag_136:\n      mload(0x40)\n      dup1\n      swap2\n      sub\n      swap1\n      log1\n        /* \"contracts/KipuBankV2.sol\":10765:10924  function setOracle(address _newOracle) external onlyOwner {... */\n      pop\n      jump\t// out\n        /* \"contracts/KipuBankV2.sol\":7721:7846  function viewUSDCBalance(address user) external view returns (uint256) {... */\n    tag_54:\n        /* \"contracts/KipuBankV2.sol\":7783:7790  uint256 */\n      0x00\n        /* \"contracts/KipuBankV2.sol\":7809:7816  s_vault */\n      0x02\n        /* \"contracts/KipuBankV2.sol\":7809:7822  s_vault[user] */\n      0x00\n        /* \"contracts/KipuBankV2.sol\":7817:7821  user */\n      dup4\n        /* \"contracts/KipuBankV2.sol\":7809:7822  s_vault[user] */\n      0xffffffffffffffffffffffffffffffffffffffff\n      and\n      0xffffffffffffffffffffffffffffffffffffffff\n      and\n      dup2\n      mstore\n      0x20\n      add\n      swap1\n      dup2\n      mstore\n      0x20\n      add\n      0x00\n      keccak256\n        /* \"contracts/KipuBankV2.sol\":7809:7839  s_vault[user][address(i_usdc)] */\n      0x00\n        /* \"contracts/KipuBankV2.sol\":7831:7837  i_usdc */\n      immutable(\"0xd981c1aa70496adbf331222473f4f790f8f1219995826de705ab70eb68beb770\")\n        /* \"contracts/KipuBankV2.sol\":7809:7839  s_vault[user][address(i_usdc)] */\n      0xffffffffffffffffffffffffffffffffffffffff\n      and\n      0xffffffffffffffffffffffffffffffffffffffff\n      and\n      dup2\n      mstore\n      0x20\n      add\n      swap1\n      dup2\n      mstore\n      0x20\n      add\n      0x00\n      keccak256\n      sload\n        /* \"contracts/KipuBankV2.sol\":7802:7839  return s_vault[user][address(i_usdc)] */\n      swap1\n      pop\n        /* \"contracts/KipuBankV2.sol\":7721:7846  function viewUSDCBalance(address user) external view returns (uint256) {... */\n      swap2\n      swap1\n      pop\n      jump\t// out\n        /* \"@openzeppelin/contracts/access/Ownable.sol\":1638:1723  function owner() public view virtual returns (address) {... */\n    tag_58:\n        /* \"@openzeppelin/contracts/access/Ownable.sol\":1684:1691  address */\n      0x00\n        /* \"@openzeppelin/contracts/access/Ownable.sol\":1710:1716  _owner */\n      0x00\n      0x00\n      swap1\n      sload\n      swap1\n      0x0100\n      exp\n      swap1\n      div\n      0xffffffffffffffffffffffffffffffffffffffff\n      and\n        /* \"@openzeppelin/contracts/access/Ownable.sol\":1703:1716  return _owner */\n      swap1\n      pop\n        /* \"@openzeppelin/contracts/access/Ownable.sol\":1638:1723  function owner() public view virtual returns (address) {... */\n      swap1\n      jump\t// out\n        /* \"contracts/KipuBankV2.sol\":11074:11182  function setBankCapital(uint256 _newCapital) external onlyOwner {... */\n    tag_65:\n        /* \"@openzeppelin/contracts/access/Ownable.sol\":1531:1544  _checkOwner() */\n      tag_140\n        /* \"@openzeppelin/contracts/access/Ownable.sol\":1531:1542  _checkOwner */\n      tag_129\n        /* \"@openzeppelin/contracts/access/Ownable.sol\":1531:1544  _checkOwner() */\n      jump\t// in\n    tag_140:\n        /* \"contracts/KipuBankV2.sol\":11164:11175  _newCapital */\n      dup1\n        /* \"contracts/KipuBankV2.sol\":11148:11161  s_bankCapital */\n      0x06\n        /* \"contracts/KipuBankV2.sol\":11148:11175  s_bankCapital = _newCapital */\n      dup2\n      swap1\n      sstore\n      pop\n        /* \"contracts/KipuBankV2.sol\":11074:11182  function setBankCapital(uint256 _newCapital) external onlyOwner {... */\n      pop\n      jump\t// out\n        /* \"contracts/KipuBankV2.sol\":1777:1806  uint256 public s_depositLimit */\n    tag_68:\n      sload(0x04)\n      dup2\n      jump\t// out\n        /* \"contracts/KipuBankV2.sol\":1143:1223  mapping(address user => mapping(address token => uint256 amount)) public s_vault */\n    tag_74:\n      mstore(0x20, 0x02)\n      dup2\n      0x00\n      mstore\n      mstore(0x20, keccak256(0x00, 0x40))\n      dup1\n      0x00\n      mstore\n      keccak256(0x00, 0x40)\n      0x00\n      swap2\n      pop\n      swap2\n      pop\n      pop\n      sload\n      dup2\n      jump\t// out\n        /* \"contracts/KipuBankV2.sol\":11339:11445  function setDepositLimit(uint256 _newLimit) external onlyOwner {... */\n    tag_79:\n        /* \"@openzeppelin/contracts/access/Ownable.sol\":1531:1544  _checkOwner() */\n      tag_143\n        /* \"@openzeppelin/contracts/access/Ownable.sol\":1531:1542  _checkOwner */\n      tag_129\n        /* \"@openzeppelin/contracts/access/Ownable.sol\":1531:1544  _checkOwner() */\n      jump\t// in\n    tag_143:\n        /* \"contracts/KipuBankV2.sol\":11429:11438  _newLimit */\n      dup1\n        /* \"contracts/KipuBankV2.sol\":11412:11426  s_depositLimit */\n      0x04\n        /* \"contracts/KipuBankV2.sol\":11412:11438  s_depositLimit = _newLimit */\n      dup2\n      swap1\n      sstore\n      pop\n        /* \"contracts/KipuBankV2.sol\":11339:11445  function setDepositLimit(uint256 _newLimit) external onlyOwner {... */\n      pop\n      jump\t// out\n        /* \"contracts/KipuBankV2.sol\":2191:2220  uint256 public s_depositCount */\n    tag_82:\n      sload(0x08)\n      dup2\n      jump\t// out\n        /* \"contracts/KipuBankV2.sol\":9965:10407  function withdrawUSDC(uint256 _usdcAmount) external nonReentrant {... */\n    tag_87:\n        /* \"@openzeppelin/contracts/security/ReentrancyGuard.sol\":2261:2282  _nonReentrantBefore() */\n      tag_146\n        /* \"@openzeppelin/contracts/security/ReentrancyGuard.sol\":2261:2280  _nonReentrantBefore */\n      tag_147\n        /* \"@openzeppelin/contracts/security/ReentrancyGuard.sol\":2261:2282  _nonReentrantBefore() */\n      jump\t// in\n    tag_146:\n        /* \"contracts/KipuBankV2.sol\":10083:10094  _usdcAmount */\n      dup1\n        /* \"contracts/KipuBankV2.sol\":10044:10051  s_vault */\n      0x02\n        /* \"contracts/KipuBankV2.sol\":10044:10063  s_vault[msg.sender] */\n      0x00\n        /* \"contracts/KipuBankV2.sol\":10052:10062  msg.sender */\n      caller\n        /* \"contracts/KipuBankV2.sol\":10044:10063  s_vault[msg.sender] */\n      0xffffffffffffffffffffffffffffffffffffffff\n      and\n      0xffffffffffffffffffffffffffffffffffffffff\n      and\n      dup2\n      mstore\n      0x20\n      add\n      swap1\n      dup2\n      mstore\n      0x20\n      add\n      0x00\n      keccak256\n        /* \"contracts/KipuBankV2.sol\":10044:10080  s_vault[msg.sender][address(i_usdc)] */\n      0x00\n        /* \"contracts/KipuBankV2.sol\":10072:10078  i_usdc */\n      immutable(\"0xd981c1aa70496adbf331222473f4f790f8f1219995826de705ab70eb68beb770\")\n        /* \"contracts/KipuBankV2.sol\":10044:10080  s_vault[msg.sender][address(i_usdc)] */\n      0xffffffffffffffffffffffffffffffffffffffff\n      and\n      0xffffffffffffffffffffffffffffffffffffffff\n      and\n      dup2\n      mstore\n      0x20\n      add\n      swap1\n      dup2\n      mstore\n      0x20\n      add\n      0x00\n      keccak256\n      sload\n        /* \"contracts/KipuBankV2.sol\":10044:10094  s_vault[msg.sender][address(i_usdc)] < _usdcAmount */\n      lt\n        /* \"contracts/KipuBankV2.sol\":10040:10196  if (s_vault[msg.sender][address(i_usdc)] < _usdcAmount) {... */\n      iszero\n      tag_149\n      jumpi\n        /* \"contracts/KipuBankV2.sol\":10137:10148  _usdcAmount */\n      dup1\n        /* \"contracts/KipuBankV2.sol\":10150:10160  msg.sender */\n      caller\n        /* \"contracts/KipuBankV2.sol\":10117:10185  InsufficientBalance(_usdcAmount, msg.sender, \"Insufficient balance\") */\n      mload(0x40)\n      0x7c4f8b5d00000000000000000000000000000000000000000000000000000000\n      dup2\n      mstore\n      0x04\n      add\n      tag_150\n      swap3\n      swap2\n      swap1\n      tag_151\n      jump\t// in\n    tag_150:\n      mload(0x40)\n      dup1\n      swap2\n      sub\n      swap1\n      revert\n        /* \"contracts/KipuBankV2.sol\":10040:10196  if (s_vault[msg.sender][address(i_usdc)] < _usdcAmount) {... */\n    tag_149:\n        /* \"contracts/KipuBankV2.sol\":10246:10257  _usdcAmount */\n      dup1\n        /* \"contracts/KipuBankV2.sol\":10206:10213  s_vault */\n      0x02\n        /* \"contracts/KipuBankV2.sol\":10206:10225  s_vault[msg.sender] */\n      0x00\n        /* \"contracts/KipuBankV2.sol\":10214:10224  msg.sender */\n      caller\n        /* \"contracts/KipuBankV2.sol\":10206:10225  s_vault[msg.sender] */\n      0xffffffffffffffffffffffffffffffffffffffff\n      and\n      0xffffffffffffffffffffffffffffffffffffffff\n      and\n      dup2\n      mstore\n      0x20\n      add\n      swap1\n      dup2\n      mstore\n      0x20\n      add\n      0x00\n      keccak256\n        /* \"contracts/KipuBankV2.sol\":10206:10242  s_vault[msg.sender][address(i_usdc)] */\n      0x00\n        /* \"contracts/KipuBankV2.sol\":10234:10240  i_usdc */\n      immutable(\"0xd981c1aa70496adbf331222473f4f790f8f1219995826de705ab70eb68beb770\")\n        /* \"contracts/KipuBankV2.sol\":10206:10242  s_vault[msg.sender][address(i_usdc)] */\n      0xffffffffffffffffffffffffffffffffffffffff\n      and\n      0xffffffffffffffffffffffffffffffffffffffff\n      and\n      dup2\n      mstore\n      0x20\n      add\n      swap1\n      dup2\n      mstore\n      0x20\n      add\n      0x00\n      keccak256\n      0x00\n        /* \"contracts/KipuBankV2.sol\":10206:10257  s_vault[msg.sender][address(i_usdc)] -= _usdcAmount */\n      dup3\n      dup3\n      sload\n      tag_152\n      swap2\n      swap1\n      tag_153\n      jump\t// in\n    tag_152:\n      swap3\n      pop\n      pop\n      dup2\n      swap1\n      sstore\n      pop\n        /* \"contracts/KipuBankV2.sol\":10267:10282  s_withdrawCount */\n      0x07\n      0x00\n        /* \"contracts/KipuBankV2.sol\":10267:10284  s_withdrawCount++ */\n      dup2\n      sload\n      dup1\n      swap3\n      swap2\n      swap1\n      tag_154\n      swap1\n      tag_155\n      jump\t// in\n    tag_154:\n      swap2\n      swap1\n      pop\n      sstore\n      pop\n        /* \"contracts/KipuBankV2.sol\":10295:10339  i_usdc.safeTransfer(msg.sender, _usdcAmount) */\n      tag_156\n        /* \"contracts/KipuBankV2.sol\":10315:10325  msg.sender */\n      caller\n        /* \"contracts/KipuBankV2.sol\":10327:10338  _usdcAmount */\n      dup3\n        /* \"contracts/KipuBankV2.sol\":10295:10301  i_usdc */\n      immutable(\"0xd981c1aa70496adbf331222473f4f790f8f1219995826de705ab70eb68beb770\")\n        /* \"contracts/KipuBankV2.sol\":10295:10314  i_usdc.safeTransfer */\n      0xffffffffffffffffffffffffffffffffffffffff\n      and\n      tag_157\n      swap1\n        /* \"contracts/KipuBankV2.sol\":10295:10339  i_usdc.safeTransfer(msg.sender, _usdcAmount) */\n      swap3\n      swap2\n      swap1\n      0xffffffff\n      and\n      jump\t// in\n    tag_156:\n        /* \"contracts/KipuBankV2.sol\":10355:10400  SuccessfulWithdrawal(msg.sender, _usdcAmount) */\n      0x3f8f630c8b146486a33afc98f55bd1fdd5d4717deab161c649b6fe758d877289\n        /* \"contracts/KipuBankV2.sol\":10376:10386  msg.sender */\n      caller\n        /* \"contracts/KipuBankV2.sol\":10388:10399  _usdcAmount */\n      dup3\n        /* \"contracts/KipuBankV2.sol\":10355:10400  SuccessfulWithdrawal(msg.sender, _usdcAmount) */\n      mload(0x40)\n      tag_158\n      swap3\n      swap2\n      swap1\n      tag_159\n      jump\t// in\n    tag_158:\n      mload(0x40)\n      dup1\n      swap2\n      sub\n      swap1\n      log1\n        /* \"@openzeppelin/contracts/security/ReentrancyGuard.sol\":2303:2323  _nonReentrantAfter() */\n      tag_160\n        /* \"@openzeppelin/contracts/security/ReentrancyGuard.sol\":2303:2321  _nonReentrantAfter */\n      tag_161\n        /* \"@openzeppelin/contracts/security/ReentrancyGuard.sol\":2303:2323  _nonReentrantAfter() */\n      jump\t// in\n    tag_160:\n        /* \"contracts/KipuBankV2.sol\":9965:10407  function withdrawUSDC(uint256 _usdcAmount) external nonReentrant {... */\n      pop\n      jump\t// out\n        /* \"contracts/KipuBankV2.sol\":7508:7646  function viewETHBalance(address user) external view returns (uint256) {... */\n    tag_91:\n        /* \"contracts/KipuBankV2.sol\":7569:7576  uint256 */\n      0x00\n        /* \"contracts/KipuBankV2.sol\":7595:7639  _convertETHtoUSDC(s_vault[user][address(0)]) */\n      tag_163\n        /* \"contracts/KipuBankV2.sol\":7613:7620  s_vault */\n      0x02\n        /* \"contracts/KipuBankV2.sol\":7613:7626  s_vault[user] */\n      0x00\n        /* \"contracts/KipuBankV2.sol\":7621:7625  user */\n      dup5\n        /* \"contracts/KipuBankV2.sol\":7613:7626  s_vault[user] */\n      0xffffffffffffffffffffffffffffffffffffffff\n      and\n      0xffffffffffffffffffffffffffffffffffffffff\n      and\n      dup2\n      mstore\n      0x20\n      add\n      swap1\n      dup2\n      mstore\n      0x20\n      add\n      0x00\n      keccak256\n        /* \"contracts/KipuBankV2.sol\":7613:7638  s_vault[user][address(0)] */\n      0x00\n        /* \"contracts/KipuBankV2.sol\":7635:7636  0 */\n      0x00\n        /* \"contracts/KipuBankV2.sol\":7613:7638  s_vault[user][address(0)] */\n      0xffffffffffffffffffffffffffffffffffffffff\n      and\n      0xffffffffffffffffffffffffffffffffffffffff\n      and\n      dup2\n      mstore\n      0x20\n      add\n      swap1\n      dup2\n      mstore\n      0x20\n      add\n      0x00\n      keccak256\n      sload\n        /* \"contracts/KipuBankV2.sol\":7595:7612  _convertETHtoUSDC */\n      tag_119\n        /* \"contracts/KipuBankV2.sol\":7595:7639  _convertETHtoUSDC(s_vault[user][address(0)]) */\n      jump\t// in\n    tag_163:\n        /* \"contracts/KipuBankV2.sol\":7588:7639  return _convertETHtoUSDC(s_vault[user][address(0)]) */\n      swap1\n      pop\n        /* \"contracts/KipuBankV2.sol\":7508:7646  function viewETHBalance(address user) external view returns (uint256) {... */\n      swap2\n      swap1\n      pop\n      jump\t// out\n        /* \"contracts/KipuBankV2.sol\":8193:8610  function withdrawETH(uint256 _withdrawAmount)... */\n    tag_96:\n        /* \"@openzeppelin/contracts/security/ReentrancyGuard.sol\":2261:2282  _nonReentrantBefore() */\n      tag_165\n        /* \"@openzeppelin/contracts/security/ReentrancyGuard.sol\":2261:2280  _nonReentrantBefore */\n      tag_147\n        /* \"@openzeppelin/contracts/security/ReentrancyGuard.sol\":2261:2282  _nonReentrantBefore() */\n      jump\t// in\n    tag_165:\n        /* \"contracts/KipuBankV2.sol\":8301:8316  _withdrawAmount */\n      dup1\n        /* \"contracts/KipuBankV2.sol\":2095:2105  0.01 ether */\n      0x2386f26fc10000\n        /* \"contracts/KipuBankV2.sol\":4251:4258  _amount */\n      dup2\n        /* \"contracts/KipuBankV2.sol\":4251:4275  _amount > WITHDRAW_LIMIT */\n      gt\n        /* \"contracts/KipuBankV2.sol\":4247:4527  if (_amount > WITHDRAW_LIMIT) {... */\n      iszero\n      tag_167\n      jumpi\n        /* \"contracts/KipuBankV2.sol\":4309:4316  _amount */\n      dup1\n        /* \"contracts/KipuBankV2.sol\":4318:4328  msg.sender */\n      caller\n        /* \"contracts/KipuBankV2.sol\":4298:4367  MoneyLimit(_amount, msg.sender, \"Cannot withdraw more than 0.01 ETH\") */\n      mload(0x40)\n      0x2183cae300000000000000000000000000000000000000000000000000000000\n      dup2\n      mstore\n      0x04\n      add\n      tag_168\n      swap3\n      swap2\n      swap1\n      tag_169\n      jump\t// in\n    tag_168:\n      mload(0x40)\n      dup1\n      swap2\n      sub\n      swap1\n      revert\n        /* \"contracts/KipuBankV2.sol\":4247:4527  if (_amount > WITHDRAW_LIMIT) {... */\n    tag_167:\n        /* \"contracts/KipuBankV2.sol\":4422:4429  _amount */\n      dup1\n        /* \"contracts/KipuBankV2.sol\":4388:4395  s_vault */\n      0x02\n        /* \"contracts/KipuBankV2.sol\":4388:4407  s_vault[msg.sender] */\n      0x00\n        /* \"contracts/KipuBankV2.sol\":4396:4406  msg.sender */\n      caller\n        /* \"contracts/KipuBankV2.sol\":4388:4407  s_vault[msg.sender] */\n      0xffffffffffffffffffffffffffffffffffffffff\n      and\n      0xffffffffffffffffffffffffffffffffffffffff\n      and\n      dup2\n      mstore\n      0x20\n      add\n      swap1\n      dup2\n      mstore\n      0x20\n      add\n      0x00\n      keccak256\n        /* \"contracts/KipuBankV2.sol\":4388:4419  s_vault[msg.sender][address(0)] */\n      0x00\n        /* \"contracts/KipuBankV2.sol\":4416:4417  0 */\n      0x00\n        /* \"contracts/KipuBankV2.sol\":4388:4419  s_vault[msg.sender][address(0)] */\n      0xffffffffffffffffffffffffffffffffffffffff\n      and\n      0xffffffffffffffffffffffffffffffffffffffff\n      and\n      dup2\n      mstore\n      0x20\n      add\n      swap1\n      dup2\n      mstore\n      0x20\n      add\n      0x00\n      keccak256\n      sload\n        /* \"contracts/KipuBankV2.sol\":4388:4429  s_vault[msg.sender][address(0)] < _amount */\n      lt\n        /* \"contracts/KipuBankV2.sol\":4384:4527  if (s_vault[msg.sender][address(0)] < _amount) {... */\n      iszero\n      tag_171\n      jumpi\n        /* \"contracts/KipuBankV2.sol\":4472:4479  _amount */\n      dup1\n        /* \"contracts/KipuBankV2.sol\":4481:4491  msg.sender */\n      caller\n        /* \"contracts/KipuBankV2.sol\":4452:4516  InsufficientBalance(_amount, msg.sender, \"Insufficient balance\") */\n      mload(0x40)\n      0x7c4f8b5d00000000000000000000000000000000000000000000000000000000\n      dup2\n      mstore\n      0x04\n      add\n      tag_172\n      swap3\n      swap2\n      swap1\n      tag_151\n      jump\t// in\n    tag_172:\n      mload(0x40)\n      dup1\n      swap2\n      sub\n      swap1\n      revert\n        /* \"contracts/KipuBankV2.sol\":4384:4527  if (s_vault[msg.sender][address(0)] < _amount) {... */\n    tag_171:\n        /* \"contracts/KipuBankV2.sol\":8367:8382  _withdrawAmount */\n      dup2\n        /* \"contracts/KipuBankV2.sol\":8332:8339  s_vault */\n      0x02\n        /* \"contracts/KipuBankV2.sol\":8332:8351  s_vault[msg.sender] */\n      0x00\n        /* \"contracts/KipuBankV2.sol\":8340:8350  msg.sender */\n      caller\n        /* \"contracts/KipuBankV2.sol\":8332:8351  s_vault[msg.sender] */\n      0xffffffffffffffffffffffffffffffffffffffff\n      and\n      0xffffffffffffffffffffffffffffffffffffffff\n      and\n      dup2\n      mstore\n      0x20\n      add\n      swap1\n      dup2\n      mstore\n      0x20\n      add\n      0x00\n      keccak256\n        /* \"contracts/KipuBankV2.sol\":8332:8363  s_vault[msg.sender][address(0)] */\n      0x00\n        /* \"contracts/KipuBankV2.sol\":8360:8361  0 */\n      0x00\n        /* \"contracts/KipuBankV2.sol\":8332:8363  s_vault[msg.sender][address(0)] */\n      0xffffffffffffffffffffffffffffffffffffffff\n      and\n      0xffffffffffffffffffffffffffffffffffffffff\n      and\n      dup2\n      mstore\n      0x20\n      add\n      swap1\n      dup2\n      mstore\n      0x20\n      add\n      0x00\n      keccak256\n      0x00\n        /* \"contracts/KipuBankV2.sol\":8332:8382  s_vault[msg.sender][address(0)] -= _withdrawAmount */\n      dup3\n      dup3\n      sload\n      tag_174\n      swap2\n      swap1\n      tag_153\n      jump\t// in\n    tag_174:\n      swap3\n      pop\n      pop\n      dup2\n      swap1\n      sstore\n      pop\n        /* \"contracts/KipuBankV2.sol\":8392:8407  s_withdrawCount */\n      0x07\n      0x00\n        /* \"contracts/KipuBankV2.sol\":8392:8409  s_withdrawCount++ */\n      dup2\n      sload\n      dup1\n      swap3\n      swap2\n      swap1\n      tag_175\n      swap1\n      tag_155\n      jump\t// in\n    tag_175:\n      swap2\n      swap1\n      pop\n      sstore\n      pop\n        /* \"contracts/KipuBankV2.sol\":8421:8433  bool success */\n      0x00\n        /* \"contracts/KipuBankV2.sol\":8447:8457  msg.sender */\n      caller\n        /* \"contracts/KipuBankV2.sol\":8439:8463  payable(msg.sender).call */\n      0xffffffffffffffffffffffffffffffffffffffff\n      and\n        /* \"contracts/KipuBankV2.sol\":8471:8486  _withdrawAmount */\n      dup4\n        /* \"contracts/KipuBankV2.sol\":8439:8491  payable(msg.sender).call{value: _withdrawAmount}(\"\") */\n      mload(0x40)\n      tag_176\n      swap1\n      tag_177\n      jump\t// in\n    tag_176:\n      0x00\n      mload(0x40)\n      dup1\n      dup4\n      sub\n      dup2\n      dup6\n      dup8\n      gas\n      call\n      swap3\n      pop\n      pop\n      pop\n      returndatasize\n      dup1\n      0x00\n      dup2\n      eq\n      tag_180\n      jumpi\n      mload(0x40)\n      swap2\n      pop\n      and(add(returndatasize, 0x3f), not(0x1f))\n      dup3\n      add\n      0x40\n      mstore\n      returndatasize\n      dup3\n      mstore\n      returndatasize\n      0x00\n      0x20\n      dup5\n      add\n      returndatacopy\n      jump(tag_179)\n    tag_180:\n      0x60\n      swap2\n      pop\n    tag_179:\n      pop\n        /* \"contracts/KipuBankV2.sol\":8420:8491  (bool success, ) = payable(msg.sender).call{value: _withdrawAmount}(\"\") */\n      pop\n      swap1\n      pop\n        /* \"contracts/KipuBankV2.sol\":8509:8516  success */\n      dup1\n        /* \"contracts/KipuBankV2.sol\":8501:8538  require(success, \"Withdrawal failed\") */\n      tag_181\n      jumpi\n      mload(0x40)\n      0x08c379a000000000000000000000000000000000000000000000000000000000\n      dup2\n      mstore\n      0x04\n      add\n      tag_182\n      swap1\n      tag_183\n      jump\t// in\n    tag_182:\n      mload(0x40)\n      dup1\n      swap2\n      sub\n      swap1\n      revert\n    tag_181:\n        /* \"contracts/KipuBankV2.sol\":8554:8603  SuccessfulWithdrawal(msg.sender, _withdrawAmount) */\n      0x3f8f630c8b146486a33afc98f55bd1fdd5d4717deab161c649b6fe758d877289\n        /* \"contracts/KipuBankV2.sol\":8575:8585  msg.sender */\n      caller\n        /* \"contracts/KipuBankV2.sol\":8587:8602  _withdrawAmount */\n      dup5\n        /* \"contracts/KipuBankV2.sol\":8554:8603  SuccessfulWithdrawal(msg.sender, _withdrawAmount) */\n      mload(0x40)\n      tag_184\n      swap3\n      swap2\n      swap1\n      tag_159\n      jump\t// in\n    tag_184:\n      mload(0x40)\n      dup1\n      swap2\n      sub\n      swap1\n      log1\n        /* \"contracts/KipuBankV2.sol\":8322:8610  {... */\n      pop\n        /* \"@openzeppelin/contracts/security/ReentrancyGuard.sol\":2292:2293  _ */\n      pop\n        /* \"@openzeppelin/contracts/security/ReentrancyGuard.sol\":2303:2323  _nonReentrantAfter() */\n      tag_185\n        /* \"@openzeppelin/contracts/security/ReentrancyGuard.sol\":2303:2321  _nonReentrantAfter */\n      tag_161\n        /* \"@openzeppelin/contracts/security/ReentrancyGuard.sol\":2303:2323  _nonReentrantAfter() */\n      jump\t// in\n    tag_185:\n        /* \"contracts/KipuBankV2.sol\":8193:8610  function withdrawETH(uint256 _withdrawAmount)... */\n      pop\n      jump\t// out\n        /* \"@openzeppelin/contracts/access/Ownable.sol\":2543:2758  function transferOwnership(address newOwner) public virtual onlyOwner {... */\n    tag_100:\n        /* \"@openzeppelin/contracts/access/Ownable.sol\":1531:1544  _checkOwner() */\n      tag_187\n        /* \"@openzeppelin/contracts/access/Ownable.sol\":1531:1542  _checkOwner */\n      tag_129\n        /* \"@openzeppelin/contracts/access/Ownable.sol\":1531:1544  _checkOwner() */\n      jump\t// in\n    tag_187:\n        /* \"@openzeppelin/contracts/access/Ownable.sol\":2647:2648  0 */\n      0x00\n        /* \"@openzeppelin/contracts/access/Ownable.sol\":2627:2649  newOwner == address(0) */\n      0xffffffffffffffffffffffffffffffffffffffff\n      and\n        /* \"@openzeppelin/contracts/access/Ownable.sol\":2627:2635  newOwner */\n      dup2\n        /* \"@openzeppelin/contracts/access/Ownable.sol\":2627:2649  newOwner == address(0) */\n      0xffffffffffffffffffffffffffffffffffffffff\n      and\n      sub\n        /* \"@openzeppelin/contracts/access/Ownable.sol\":2623:2714  if (newOwner == address(0)) {... */\n      tag_189\n      jumpi\n        /* \"@openzeppelin/contracts/access/Ownable.sol\":2700:2701  0 */\n      0x00\n        /* \"@openzeppelin/contracts/access/Ownable.sol\":2672:2703  OwnableInvalidOwner(address(0)) */\n      mload(0x40)\n      0x1e4fbdf700000000000000000000000000000000000000000000000000000000\n      dup2\n      mstore\n      0x04\n      add\n      tag_190\n      swap2\n      swap1\n      tag_60\n      jump\t// in\n    tag_190:\n      mload(0x40)\n      dup1\n      swap2\n      sub\n      swap1\n      revert\n        /* \"@openzeppelin/contracts/access/Ownable.sol\":2623:2714  if (newOwner == address(0)) {... */\n    tag_189:\n        /* \"@openzeppelin/contracts/access/Ownable.sol\":2723:2751  _transferOwnership(newOwner) */\n      tag_191\n        /* \"@openzeppelin/contracts/access/Ownable.sol\":2742:2750  newOwner */\n      dup2\n        /* \"@openzeppelin/contracts/access/Ownable.sol\":2723:2741  _transferOwnership */\n      tag_132\n        /* \"@openzeppelin/contracts/access/Ownable.sol\":2723:2751  _transferOwnership(newOwner) */\n      jump\t// in\n    tag_191:\n        /* \"@openzeppelin/contracts/access/Ownable.sol\":2543:2758  function transferOwnership(address newOwner) public virtual onlyOwner {... */\n      pop\n      jump\t// out\n        /* \"contracts/KipuBankV2.sol\":8693:9185  function depositETH()... */\n    tag_102:\n        /* \"@openzeppelin/contracts/security/ReentrancyGuard.sol\":2261:2282  _nonReentrantBefore() */\n      tag_193\n        /* \"@openzeppelin/contracts/security/ReentrancyGuard.sol\":2261:2280  _nonReentrantBefore */\n      tag_147\n        /* \"@openzeppelin/contracts/security/ReentrancyGuard.sol\":2261:2282  _nonReentrantBefore() */\n      jump\t// in\n    tag_193:\n        /* \"contracts/KipuBankV2.sol\":8795:8823  _convertETHtoUSDC(msg.value) */\n      tag_194\n        /* \"contracts/KipuBankV2.sol\":8813:8822  msg.value */\n      callvalue\n        /* \"contracts/KipuBankV2.sol\":8795:8812  _convertETHtoUSDC */\n      tag_119\n        /* \"contracts/KipuBankV2.sol\":8795:8823  _convertETHtoUSDC(msg.value) */\n      jump\t// in\n    tag_194:\n        /* \"contracts/KipuBankV2.sol\":3553:3586  _exceedsDepositLimit(_usdcAmount) */\n      tag_196\n        /* \"contracts/KipuBankV2.sol\":3574:3585  _usdcAmount */\n      dup2\n        /* \"contracts/KipuBankV2.sol\":3553:3573  _exceedsDepositLimit */\n      tag_197\n        /* \"contracts/KipuBankV2.sol\":3553:3586  _exceedsDepositLimit(_usdcAmount) */\n      jump\t// in\n    tag_196:\n        /* \"contracts/KipuBankV2.sol\":3549:3668  if (_exceedsDepositLimit(_usdcAmount)) {... */\n      iszero\n      tag_198\n      jumpi\n        /* \"contracts/KipuBankV2.sol\":3621:3632  _usdcAmount */\n      dup1\n        /* \"contracts/KipuBankV2.sol\":3609:3657  GlobalLimit(_usdcAmount, \"Global limit reached\") */\n      mload(0x40)\n      0xa04dceba00000000000000000000000000000000000000000000000000000000\n      dup2\n      mstore\n      0x04\n      add\n      tag_199\n      swap2\n      swap1\n      tag_200\n      jump\t// in\n    tag_199:\n      mload(0x40)\n      dup1\n      swap2\n      sub\n      swap1\n      revert\n        /* \"contracts/KipuBankV2.sol\":3549:3668  if (_exceedsDepositLimit(_usdcAmount)) {... */\n    tag_198:\n        /* \"contracts/KipuBankV2.sol\":8851:8879  _convertETHtoUSDC(msg.value) */\n      tag_201\n        /* \"contracts/KipuBankV2.sol\":8869:8878  msg.value */\n      callvalue\n        /* \"contracts/KipuBankV2.sol\":8851:8868  _convertETHtoUSDC */\n      tag_119\n        /* \"contracts/KipuBankV2.sol\":8851:8879  _convertETHtoUSDC(msg.value) */\n      jump\t// in\n    tag_201:\n        /* \"contracts/KipuBankV2.sol\":3933:3946  s_bankCapital */\n      sload(0x06)\n        /* \"contracts/KipuBankV2.sol\":3919:3930  _usdcAmount */\n      dup2\n        /* \"contracts/KipuBankV2.sol\":3901:3916  s_totalDeposits */\n      sload(0x05)\n        /* \"contracts/KipuBankV2.sol\":3901:3930  s_totalDeposits + _usdcAmount */\n      tag_203\n      swap2\n      swap1\n      tag_126\n      jump\t// in\n    tag_203:\n        /* \"contracts/KipuBankV2.sol\":3901:3946  s_totalDeposits + _usdcAmount > s_bankCapital */\n      gt\n        /* \"contracts/KipuBankV2.sol\":3897:4011  if (s_totalDeposits + _usdcAmount > s_bankCapital) {... */\n      iszero\n      tag_204\n      jumpi\n        /* \"contracts/KipuBankV2.sol\":3986:3999  s_bankCapital */\n      sload(0x06)\n        /* \"contracts/KipuBankV2.sol\":3969:4000  BankLimitReached(s_bankCapital) */\n      mload(0x40)\n      0x430b43df00000000000000000000000000000000000000000000000000000000\n      dup2\n      mstore\n      0x04\n      add\n      tag_205\n      swap2\n      swap1\n      tag_30\n      jump\t// in\n    tag_205:\n      mload(0x40)\n      dup1\n      swap2\n      sub\n      swap1\n      revert\n        /* \"contracts/KipuBankV2.sol\":3897:4011  if (s_totalDeposits + _usdcAmount > s_bankCapital) {... */\n    tag_204:\n        /* \"contracts/KipuBankV2.sol\":8915:8916  0 */\n      0x00\n        /* \"contracts/KipuBankV2.sol\":8903:8912  msg.value */\n      callvalue\n        /* \"contracts/KipuBankV2.sol\":8903:8916  msg.value > 0 */\n      gt\n        /* \"contracts/KipuBankV2.sol\":8895:8933  require(msg.value > 0, \"Zero deposit\") */\n      tag_207\n      jumpi\n      mload(0x40)\n      0x08c379a000000000000000000000000000000000000000000000000000000000\n      dup2\n      mstore\n      0x04\n      add\n      tag_208\n      swap1\n      tag_209\n      jump\t// in\n    tag_208:\n      mload(0x40)\n      dup1\n      swap2\n      sub\n      swap1\n      revert\n    tag_207:\n        /* \"contracts/KipuBankV2.sol\":8944:8961  uint256 usdAmount */\n      0x00\n        /* \"contracts/KipuBankV2.sol\":8964:8992  _convertETHtoUSDC(msg.value) */\n      tag_210\n        /* \"contracts/KipuBankV2.sol\":8982:8991  msg.value */\n      callvalue\n        /* \"contracts/KipuBankV2.sol\":8964:8981  _convertETHtoUSDC */\n      tag_119\n        /* \"contracts/KipuBankV2.sol\":8964:8992  _convertETHtoUSDC(msg.value) */\n      jump\t// in\n    tag_210:\n        /* \"contracts/KipuBankV2.sol\":8944:8992  uint256 usdAmount = _convertETHtoUSDC(msg.value) */\n      swap1\n      pop\n        /* \"contracts/KipuBankV2.sol\":9002:9016  s_depositCount */\n      0x08\n      0x00\n        /* \"contracts/KipuBankV2.sol\":9002:9018  s_depositCount++ */\n      dup2\n      sload\n      dup1\n      swap3\n      swap2\n      swap1\n      tag_211\n      swap1\n      tag_155\n      jump\t// in\n    tag_211:\n      swap2\n      swap1\n      pop\n      sstore\n      pop\n        /* \"contracts/KipuBankV2.sol\":9047:9056  usdAmount */\n      dup1\n        /* \"contracts/KipuBankV2.sol\":9028:9043  s_totalDeposits */\n      0x05\n      0x00\n        /* \"contracts/KipuBankV2.sol\":9028:9056  s_totalDeposits += usdAmount */\n      dup3\n      dup3\n      sload\n      tag_212\n      swap2\n      swap1\n      tag_126\n      jump\t// in\n    tag_212:\n      swap3\n      pop\n      pop\n      dup2\n      swap1\n      sstore\n      pop\n        /* \"contracts/KipuBankV2.sol\":9101:9110  msg.value */\n      callvalue\n        /* \"contracts/KipuBankV2.sol\":9066:9073  s_vault */\n      0x02\n        /* \"contracts/KipuBankV2.sol\":9066:9085  s_vault[msg.sender] */\n      0x00\n        /* \"contracts/KipuBankV2.sol\":9074:9084  msg.sender */\n      caller\n        /* \"contracts/KipuBankV2.sol\":9066:9085  s_vault[msg.sender] */\n      0xffffffffffffffffffffffffffffffffffffffff\n      and\n      0xffffffffffffffffffffffffffffffffffffffff\n      and\n      dup2\n      mstore\n      0x20\n      add\n      swap1\n      dup2\n      mstore\n      0x20\n      add\n      0x00\n      keccak256\n        /* \"contracts/KipuBankV2.sol\":9066:9097  s_vault[msg.sender][address(0)] */\n      0x00\n        /* \"contracts/KipuBankV2.sol\":9094:9095  0 */\n      0x00\n        /* \"contracts/KipuBankV2.sol\":9066:9097  s_vault[msg.sender][address(0)] */\n      0xffffffffffffffffffffffffffffffffffffffff\n      and\n      0xffffffffffffffffffffffffffffffffffffffff\n      and\n      dup2\n      mstore\n      0x20\n      add\n      swap1\n      dup2\n      mstore\n      0x20\n      add\n      0x00\n      keccak256\n      0x00\n        /* \"contracts/KipuBankV2.sol\":9066:9110  s_vault[msg.sender][address(0)] += msg.value */\n      dup3\n      dup3\n      sload\n      tag_213\n      swap2\n      swap1\n      tag_126\n      jump\t// in\n    tag_213:\n      swap3\n      pop\n      pop\n      dup2\n      swap1\n      sstore\n      pop\n        /* \"contracts/KipuBankV2.sol\":9126:9178  SuccessfulDeposit(msg.sender, address(0), msg.value) */\n      0xe03f32ae5dcdd1e3d7d441be59e1650006aeb02c24faa7ef36785183d5c505\n        /* \"contracts/KipuBankV2.sol\":9144:9154  msg.sender */\n      caller\n        /* \"contracts/KipuBankV2.sol\":9164:9165  0 */\n      0x00\n        /* \"contracts/KipuBankV2.sol\":9168:9177  msg.value */\n      callvalue\n        /* \"contracts/KipuBankV2.sol\":9126:9178  SuccessfulDeposit(msg.sender, address(0), msg.value) */\n      mload(0x40)\n      tag_214\n      swap4\n      swap3\n      swap2\n      swap1\n      tag_215\n      jump\t// in\n    tag_214:\n      mload(0x40)\n      dup1\n      swap2\n      sub\n      swap1\n      log1\n        /* \"contracts/KipuBankV2.sol\":8885:9185  {... */\n      pop\n        /* \"contracts/KipuBankV2.sol\":3677:3678  _ */\n      pop\n        /* \"@openzeppelin/contracts/security/ReentrancyGuard.sol\":2292:2293  _ */\n      pop\n        /* \"@openzeppelin/contracts/security/ReentrancyGuard.sol\":2303:2323  _nonReentrantAfter() */\n      tag_216\n        /* \"@openzeppelin/contracts/security/ReentrancyGuard.sol\":2303:2321  _nonReentrantAfter */\n      tag_161\n        /* \"@openzeppelin/contracts/security/ReentrancyGuard.sol\":2303:2323  _nonReentrantAfter() */\n      jump\t// in\n    tag_216:\n        /* \"contracts/KipuBankV2.sol\":8693:9185  function depositETH()... */\n      jump\t// out\n        /* \"contracts/KipuBankV2.sol\":9326:9822  function depositUSDC(uint256 _usdcAmount)... */\n    tag_106:\n        /* \"@openzeppelin/contracts/security/ReentrancyGuard.sol\":2261:2282  _nonReentrantBefore() */\n      tag_218\n        /* \"@openzeppelin/contracts/security/ReentrancyGuard.sol\":2261:2280  _nonReentrantBefore */\n      tag_147\n        /* \"@openzeppelin/contracts/security/ReentrancyGuard.sol\":2261:2282  _nonReentrantBefore() */\n      jump\t// in\n    tag_218:\n        /* \"contracts/KipuBankV2.sol\":9432:9443  _usdcAmount */\n      dup1\n        /* \"contracts/KipuBankV2.sol\":3553:3586  _exceedsDepositLimit(_usdcAmount) */\n      tag_220\n        /* \"contracts/KipuBankV2.sol\":3574:3585  _usdcAmount */\n      dup2\n        /* \"contracts/KipuBankV2.sol\":3553:3573  _exceedsDepositLimit */\n      tag_197\n        /* \"contracts/KipuBankV2.sol\":3553:3586  _exceedsDepositLimit(_usdcAmount) */\n      jump\t// in\n    tag_220:\n        /* \"contracts/KipuBankV2.sol\":3549:3668  if (_exceedsDepositLimit(_usdcAmount)) {... */\n      iszero\n      tag_221\n      jumpi\n        /* \"contracts/KipuBankV2.sol\":3621:3632  _usdcAmount */\n      dup1\n        /* \"contracts/KipuBankV2.sol\":3609:3657  GlobalLimit(_usdcAmount, \"Global limit reached\") */\n      mload(0x40)\n      0xa04dceba00000000000000000000000000000000000000000000000000000000\n      dup2\n      mstore\n      0x04\n      add\n      tag_222\n      swap2\n      swap1\n      tag_200\n      jump\t// in\n    tag_222:\n      mload(0x40)\n      dup1\n      swap2\n      sub\n      swap1\n      revert\n        /* \"contracts/KipuBankV2.sol\":3549:3668  if (_exceedsDepositLimit(_usdcAmount)) {... */\n    tag_221:\n        /* \"contracts/KipuBankV2.sol\":9471:9482  _usdcAmount */\n      dup2\n        /* \"contracts/KipuBankV2.sol\":3933:3946  s_bankCapital */\n      sload(0x06)\n        /* \"contracts/KipuBankV2.sol\":3919:3930  _usdcAmount */\n      dup2\n        /* \"contracts/KipuBankV2.sol\":3901:3916  s_totalDeposits */\n      sload(0x05)\n        /* \"contracts/KipuBankV2.sol\":3901:3930  s_totalDeposits + _usdcAmount */\n      tag_224\n      swap2\n      swap1\n      tag_126\n      jump\t// in\n    tag_224:\n        /* \"contracts/KipuBankV2.sol\":3901:3946  s_totalDeposits + _usdcAmount > s_bankCapital */\n      gt\n        /* \"contracts/KipuBankV2.sol\":3897:4011  if (s_totalDeposits + _usdcAmount > s_bankCapital) {... */\n      iszero\n      tag_225\n      jumpi\n        /* \"contracts/KipuBankV2.sol\":3986:3999  s_bankCapital */\n      sload(0x06)\n        /* \"contracts/KipuBankV2.sol\":3969:4000  BankLimitReached(s_bankCapital) */\n      mload(0x40)\n      0x430b43df00000000000000000000000000000000000000000000000000000000\n      dup2\n      mstore\n      0x04\n      add\n      tag_226\n      swap2\n      swap1\n      tag_30\n      jump\t// in\n    tag_226:\n      mload(0x40)\n      dup1\n      swap2\n      sub\n      swap1\n      revert\n        /* \"contracts/KipuBankV2.sol\":3897:4011  if (s_totalDeposits + _usdcAmount > s_bankCapital) {... */\n    tag_225:\n        /* \"contracts/KipuBankV2.sol\":9520:9521  0 */\n      0x00\n        /* \"contracts/KipuBankV2.sol\":9506:9517  _usdcAmount */\n      dup4\n        /* \"contracts/KipuBankV2.sol\":9506:9521  _usdcAmount > 0 */\n      gt\n        /* \"contracts/KipuBankV2.sol\":9498:9538  require(_usdcAmount > 0, \"Zero deposit\") */\n      tag_228\n      jumpi\n      mload(0x40)\n      0x08c379a000000000000000000000000000000000000000000000000000000000\n      dup2\n      mstore\n      0x04\n      add\n      tag_229\n      swap1\n      tag_209\n      jump\t// in\n    tag_229:\n      mload(0x40)\n      dup1\n      swap2\n      sub\n      swap1\n      revert\n    tag_228:\n        /* \"contracts/KipuBankV2.sol\":9549:9563  s_depositCount */\n      0x08\n      0x00\n        /* \"contracts/KipuBankV2.sol\":9549:9565  s_depositCount++ */\n      dup2\n      sload\n      dup1\n      swap3\n      swap2\n      swap1\n      tag_230\n      swap1\n      tag_155\n      jump\t// in\n    tag_230:\n      swap2\n      swap1\n      pop\n      sstore\n      pop\n        /* \"contracts/KipuBankV2.sol\":9594:9605  _usdcAmount */\n      dup3\n        /* \"contracts/KipuBankV2.sol\":9575:9590  s_totalDeposits */\n      0x05\n      0x00\n        /* \"contracts/KipuBankV2.sol\":9575:9605  s_totalDeposits += _usdcAmount */\n      dup3\n      dup3\n      sload\n      tag_231\n      swap2\n      swap1\n      tag_126\n      jump\t// in\n    tag_231:\n      swap3\n      pop\n      pop\n      dup2\n      swap1\n      sstore\n      pop\n        /* \"contracts/KipuBankV2.sol\":9655:9666  _usdcAmount */\n      dup3\n        /* \"contracts/KipuBankV2.sol\":9615:9622  s_vault */\n      0x02\n        /* \"contracts/KipuBankV2.sol\":9615:9634  s_vault[msg.sender] */\n      0x00\n        /* \"contracts/KipuBankV2.sol\":9623:9633  msg.sender */\n      caller\n        /* \"contracts/KipuBankV2.sol\":9615:9634  s_vault[msg.sender] */\n      0xffffffffffffffffffffffffffffffffffffffff\n      and\n      0xffffffffffffffffffffffffffffffffffffffff\n      and\n      dup2\n      mstore\n      0x20\n      add\n      swap1\n      dup2\n      mstore\n      0x20\n      add\n      0x00\n      keccak256\n        /* \"contracts/KipuBankV2.sol\":9615:9651  s_vault[msg.sender][address(i_usdc)] */\n      0x00\n        /* \"contracts/KipuBankV2.sol\":9643:9649  i_usdc */\n      immutable(\"0xd981c1aa70496adbf331222473f4f790f8f1219995826de705ab70eb68beb770\")\n        /* \"contracts/KipuBankV2.sol\":9615:9651  s_vault[msg.sender][address(i_usdc)] */\n      0xffffffffffffffffffffffffffffffffffffffff\n      and\n      0xffffffffffffffffffffffffffffffffffffffff\n      and\n      dup2\n      mstore\n      0x20\n      add\n      swap1\n      dup2\n      mstore\n      0x20\n      add\n      0x00\n      keccak256\n      0x00\n        /* \"contracts/KipuBankV2.sol\":9615:9666  s_vault[msg.sender][address(i_usdc)] += _usdcAmount */\n      dup3\n      dup3\n      sload\n      tag_232\n      swap2\n      swap1\n      tag_126\n      jump\t// in\n    tag_232:\n      swap3\n      pop\n      pop\n      dup2\n      swap1\n      sstore\n      pop\n        /* \"contracts/KipuBankV2.sol\":9677:9740  i_usdc.safeTransferFrom(msg.sender, address(this), _usdcAmount) */\n      tag_233\n        /* \"contracts/KipuBankV2.sol\":9701:9711  msg.sender */\n      caller\n        /* \"contracts/KipuBankV2.sol\":9721:9725  this */\n      address\n        /* \"contracts/KipuBankV2.sol\":9728:9739  _usdcAmount */\n      dup6\n        /* \"contracts/KipuBankV2.sol\":9677:9683  i_usdc */\n      immutable(\"0xd981c1aa70496adbf331222473f4f790f8f1219995826de705ab70eb68beb770\")\n        /* \"contracts/KipuBankV2.sol\":9677:9700  i_usdc.safeTransferFrom */\n      0xffffffffffffffffffffffffffffffffffffffff\n      and\n      tag_234\n      swap1\n        /* \"contracts/KipuBankV2.sol\":9677:9740  i_usdc.safeTransferFrom(msg.sender, address(this), _usdcAmount) */\n      swap4\n      swap3\n      swap2\n      swap1\n      0xffffffff\n      and\n      jump\t// in\n    tag_233:\n        /* \"contracts/KipuBankV2.sol\":9756:9815  SuccessfulDeposit(msg.sender, address(i_usdc), _usdcAmount) */\n      0xe03f32ae5dcdd1e3d7d441be59e1650006aeb02c24faa7ef36785183d5c505\n        /* \"contracts/KipuBankV2.sol\":9774:9784  msg.sender */\n      caller\n        /* \"contracts/KipuBankV2.sol\":9794:9800  i_usdc */\n      immutable(\"0xd981c1aa70496adbf331222473f4f790f8f1219995826de705ab70eb68beb770\")\n        /* \"contracts/KipuBankV2.sol\":9803:9814  _usdcAmount */\n      dup6\n        /* \"contracts/KipuBankV2.sol\":9756:9815  SuccessfulDeposit(msg.sender, address(i_usdc), _usdcAmount) */\n      mload(0x40)\n      tag_235\n      swap4\n      swap3\n      swap2\n      swap1\n      tag_215\n      jump\t// in\n    tag_235:\n      mload(0x40)\n      dup1\n      swap2\n      sub\n      swap1\n      log1\n        /* \"contracts/KipuBankV2.sol\":3677:3678  _ */\n      pop\n        /* \"@openzeppelin/contracts/security/ReentrancyGuard.sol\":2292:2293  _ */\n      pop\n        /* \"@openzeppelin/contracts/security/ReentrancyGuard.sol\":2303:2323  _nonReentrantAfter() */\n      tag_236\n        /* \"@openzeppelin/contracts/security/ReentrancyGuard.sol\":2303:2321  _nonReentrantAfter */\n      tag_161\n        /* \"@openzeppelin/contracts/security/ReentrancyGuard.sol\":2303:2323  _nonReentrantAfter() */\n      jump\t// in\n    tag_236:\n        /* \"contracts/KipuBankV2.sol\":9326:9822  function depositUSDC(uint256 _usdcAmount)... */\n      pop\n      jump\t// out\n        /* \"contracts/KipuBankV2.sol\":1303:1340  AggregatorV3Interface public s_oracle */\n    tag_109:\n      0x03\n      0x00\n      swap1\n      sload\n      swap1\n      0x0100\n      exp\n      swap1\n      div\n      0xffffffffffffffffffffffffffffffffffffffff\n      and\n      dup2\n      jump\t// out\n        /* \"contracts/KipuBankV2.sol\":1662:1692  IERC20 public immutable i_usdc */\n    tag_114:\n      immutable(\"0xd981c1aa70496adbf331222473f4f790f8f1219995826de705ab70eb68beb770\")\n      dup2\n      jump\t// out\n        /* \"contracts/KipuBankV2.sol\":6354:6561  function _convertETHtoUSDC(uint256 _ethAmount)... */\n    tag_119:\n        /* \"contracts/KipuBankV2.sol\":6448:6471  uint256 convertedAmount */\n      0x00\n        /* \"contracts/KipuBankV2.sol\":1593:1605  1 * 10 ** 20 */\n      0x056bc75e2d63100000\n        /* \"contracts/KipuBankV2.sol\":6519:6536  _getETHUSDPrice() */\n      tag_238\n        /* \"contracts/KipuBankV2.sol\":6519:6534  _getETHUSDPrice */\n      tag_239\n        /* \"contracts/KipuBankV2.sol\":6519:6536  _getETHUSDPrice() */\n      jump\t// in\n    tag_238:\n        /* \"contracts/KipuBankV2.sol\":6506:6516  _ethAmount */\n      dup4\n        /* \"contracts/KipuBankV2.sol\":6506:6536  _ethAmount * _getETHUSDPrice() */\n      tag_240\n      swap2\n      swap1\n      tag_241\n      jump\t// in\n    tag_240:\n        /* \"contracts/KipuBankV2.sol\":6505:6554  (_ethAmount * _getETHUSDPrice()) / DECIMAL_FACTOR */\n      tag_242\n      swap2\n      swap1\n      tag_243\n      jump\t// in\n    tag_242:\n        /* \"contracts/KipuBankV2.sol\":6487:6554  convertedAmount = (_ethAmount * _getETHUSDPrice()) / DECIMAL_FACTOR */\n      swap1\n      pop\n        /* \"contracts/KipuBankV2.sol\":6354:6561  function _convertETHtoUSDC(uint256 _ethAmount)... */\n      swap2\n      swap1\n      pop\n      jump\t// out\n        /* \"@openzeppelin/contracts/access/Ownable.sol\":1796:1958  function _checkOwner() internal view virtual {... */\n    tag_129:\n        /* \"@openzeppelin/contracts/access/Ownable.sol\":1866:1878  _msgSender() */\n      tag_245\n        /* \"@openzeppelin/contracts/access/Ownable.sol\":1866:1876  _msgSender */\n      tag_246\n        /* \"@openzeppelin/contracts/access/Ownable.sol\":1866:1878  _msgSender() */\n      jump\t// in\n    tag_245:\n        /* \"@openzeppelin/contracts/access/Ownable.sol\":1855:1878  owner() != _msgSender() */\n      0xffffffffffffffffffffffffffffffffffffffff\n      and\n        /* \"@openzeppelin/contracts/access/Ownable.sol\":1855:1862  owner() */\n      tag_247\n        /* \"@openzeppelin/contracts/access/Ownable.sol\":1855:1860  owner */\n      tag_58\n        /* \"@openzeppelin/contracts/access/Ownable.sol\":1855:1862  owner() */\n      jump\t// in\n    tag_247:\n        /* \"@openzeppelin/contracts/access/Ownable.sol\":1855:1878  owner() != _msgSender() */\n      0xffffffffffffffffffffffffffffffffffffffff\n      and\n      eq\n        /* \"@openzeppelin/contracts/access/Ownable.sol\":1851:1952  if (owner() != _msgSender()) {... */\n      tag_248\n      jumpi\n        /* \"@openzeppelin/contracts/access/Ownable.sol\":1928:1940  _msgSender() */\n      tag_249\n        /* \"@openzeppelin/contracts/access/Ownable.sol\":1928:1938  _msgSender */\n      tag_246\n        /* \"@openzeppelin/contracts/access/Ownable.sol\":1928:1940  _msgSender() */\n      jump\t// in\n    tag_249:\n        /* \"@openzeppelin/contracts/access/Ownable.sol\":1901:1941  OwnableUnauthorizedAccount(_msgSender()) */\n      mload(0x40)\n      0x118cdaa700000000000000000000000000000000000000000000000000000000\n      dup2\n      mstore\n      0x04\n      add\n      tag_250\n      swap2\n      swap1\n      tag_60\n      jump\t// in\n    tag_250:\n      mload(0x40)\n      dup1\n      swap2\n      sub\n      swap1\n      revert\n        /* \"@openzeppelin/contracts/access/Ownable.sol\":1851:1952  if (owner() != _msgSender()) {... */\n    tag_248:\n        /* \"@openzeppelin/contracts/access/Ownable.sol\":1796:1958  function _checkOwner() internal view virtual {... */\n      jump\t// out\n        /* \"@openzeppelin/contracts/access/Ownable.sol\":2912:3099  function _transferOwnership(address newOwner) internal virtual {... */\n    tag_132:\n        /* \"@openzeppelin/contracts/access/Ownable.sol\":2985:3001  address oldOwner */\n      0x00\n        /* \"@openzeppelin/contracts/access/Ownable.sol\":3004:3010  _owner */\n      0x00\n      0x00\n      swap1\n      sload\n      swap1\n      0x0100\n      exp\n      swap1\n      div\n      0xffffffffffffffffffffffffffffffffffffffff\n      and\n        /* \"@openzeppelin/contracts/access/Ownable.sol\":2985:3010  address oldOwner = _owner */\n      swap1\n      pop\n        /* \"@openzeppelin/contracts/access/Ownable.sol\":3029:3037  newOwner */\n      dup2\n        /* \"@openzeppelin/contracts/access/Ownable.sol\":3020:3026  _owner */\n      0x00\n      0x00\n        /* \"@openzeppelin/contracts/access/Ownable.sol\":3020:3037  _owner = newOwner */\n      0x0100\n      exp\n      dup2\n      sload\n      dup2\n      0xffffffffffffffffffffffffffffffffffffffff\n      mul\n      not\n      and\n      swap1\n      dup4\n      0xffffffffffffffffffffffffffffffffffffffff\n      and\n      mul\n      or\n      swap1\n      sstore\n      pop\n        /* \"@openzeppelin/contracts/access/Ownable.sol\":3083:3091  newOwner */\n      dup2\n        /* \"@openzeppelin/contracts/access/Ownable.sol\":3052:3092  OwnershipTransferred(oldOwner, newOwner) */\n      0xffffffffffffffffffffffffffffffffffffffff\n      and\n        /* \"@openzeppelin/contracts/access/Ownable.sol\":3073:3081  oldOwner */\n      dup2\n        /* \"@openzeppelin/contracts/access/Ownable.sol\":3052:3092  OwnershipTransferred(oldOwner, newOwner) */\n      0xffffffffffffffffffffffffffffffffffffffff\n      and\n      0x8be0079c531659141344cd1fd0a4f28419497f9722a3daafe3b4186f6b6457e0\n      mload(0x40)\n      mload(0x40)\n      dup1\n      swap2\n      sub\n      swap1\n      log3\n        /* \"@openzeppelin/contracts/access/Ownable.sol\":2975:3099  {... */\n      pop\n        /* \"@openzeppelin/contracts/access/Ownable.sol\":2912:3099  function _transferOwnership(address newOwner) internal virtual {... */\n      pop\n      jump\t// out\n        /* \"@openzeppelin/contracts/security/ReentrancyGuard.sol\":2336:2623  function _nonReentrantBefore() private {... */\n    tag_147:\n        /* \"@openzeppelin/contracts/security/ReentrancyGuard.sol\":1759:1760  2 */\n      0x02\n        /* \"@openzeppelin/contracts/security/ReentrancyGuard.sol\":2468:2475  _status */\n      sload(0x01)\n        /* \"@openzeppelin/contracts/security/ReentrancyGuard.sol\":2468:2487  _status != _ENTERED */\n      sub\n        /* \"@openzeppelin/contracts/security/ReentrancyGuard.sol\":2460:2523  require(_status != _ENTERED, \"ReentrancyGuard: reentrant call\") */\n      tag_253\n      jumpi\n      mload(0x40)\n      0x08c379a000000000000000000000000000000000000000000000000000000000\n      dup2\n      mstore\n      0x04\n      add\n      tag_254\n      swap1\n      tag_255\n      jump\t// in\n    tag_254:\n      mload(0x40)\n      dup1\n      swap2\n      sub\n      swap1\n      revert\n    tag_253:\n        /* \"@openzeppelin/contracts/security/ReentrancyGuard.sol\":1759:1760  2 */\n      0x02\n        /* \"@openzeppelin/contracts/security/ReentrancyGuard.sol\":2598:2605  _status */\n      0x01\n        /* \"@openzeppelin/contracts/security/ReentrancyGuard.sol\":2598:2616  _status = _ENTERED */\n      dup2\n      swap1\n      sstore\n      pop\n        /* \"@openzeppelin/contracts/security/ReentrancyGuard.sol\":2336:2623  function _nonReentrantBefore() private {... */\n      jump\t// out\n        /* \"@openzeppelin/contracts/token/ERC20/utils/SafeERC20.sol\":1219:1379  function safeTransfer(IERC20 token, address to, uint256 value) internal {... */\n    tag_157:\n        /* \"@openzeppelin/contracts/token/ERC20/utils/SafeERC20.sol\":1301:1372  _callOptionalReturn(token, abi.encodeCall(token.transfer, (to, value))) */\n      tag_257\n        /* \"@openzeppelin/contracts/token/ERC20/utils/SafeERC20.sol\":1321:1326  token */\n      dup4\n        /* \"@openzeppelin/contracts/token/ERC20/utils/SafeERC20.sol\":1343:1348  token */\n      dup5\n        /* \"@openzeppelin/contracts/token/ERC20/utils/SafeERC20.sol\":1343:1357  token.transfer */\n      0xffffffffffffffffffffffffffffffffffffffff\n      and\n      0xa9059cbb\n        /* \"@openzeppelin/contracts/token/ERC20/utils/SafeERC20.sol\":1360:1362  to */\n      dup6\n        /* \"@openzeppelin/contracts/token/ERC20/utils/SafeERC20.sol\":1364:1369  value */\n      dup6\n        /* \"@openzeppelin/contracts/token/ERC20/utils/SafeERC20.sol\":1328:1371  abi.encodeCall(token.transfer, (to, value)) */\n      add(0x24, mload(0x40))\n      tag_258\n      swap3\n      swap2\n      swap1\n      tag_159\n      jump\t// in\n    tag_258:\n      mload(0x40)\n      0x20\n      dup2\n      dup4\n      sub\n      sub\n      dup2\n      mstore\n      swap1\n      0x40\n      mstore\n      swap2\n      pop\n      0xe0\n      shl\n      0x20\n      dup3\n      add\n      dup1\n      mload\n      0xffffffffffffffffffffffffffffffffffffffffffffffffffffffff\n      dup4\n      dup2\n      dup4\n      and\n      or\n      dup4\n      mstore\n      pop\n      pop\n      pop\n      pop\n        /* \"@openzeppelin/contracts/token/ERC20/utils/SafeERC20.sol\":1301:1320  _callOptionalReturn */\n      tag_259\n        /* \"@openzeppelin/contracts/token/ERC20/utils/SafeERC20.sol\":1301:1372  _callOptionalReturn(token, abi.encodeCall(token.transfer, (to, value))) */\n      jump\t// in\n    tag_257:\n        /* \"@openzeppelin/contracts/token/ERC20/utils/SafeERC20.sol\":1219:1379  function safeTransfer(IERC20 token, address to, uint256 value) internal {... */\n      pop\n      pop\n      pop\n      jump\t// out\n        /* \"@openzeppelin/contracts/security/ReentrancyGuard.sol\":2629:2838  function _nonReentrantAfter() private {... */\n    tag_161:\n        /* \"@openzeppelin/contracts/security/ReentrancyGuard.sol\":1716:1717  1 */\n      0x01\n        /* \"@openzeppelin/contracts/security/ReentrancyGuard.sol\":2809:2816  _status */\n      dup1\n        /* \"@openzeppelin/contracts/security/ReentrancyGuard.sol\":2809:2831  _status = _NOT_ENTERED */\n      dup2\n      swap1\n      sstore\n      pop\n        /* \"@openzeppelin/contracts/security/ReentrancyGuard.sol\":2629:2838  function _nonReentrantAfter() private {... */\n      jump\t// out\n        /* \"contracts/KipuBankV2.sol\":6702:6851  function _exceedsDepositLimit(uint256 amountUSDC) private view returns (bool) {... */\n    tag_197:\n        /* \"contracts/KipuBankV2.sol\":6774:6778  bool */\n      0x00\n        /* \"contracts/KipuBankV2.sol\":6830:6844  s_depositLimit */\n      sload(0x04)\n        /* \"contracts/KipuBankV2.sol\":6816:6826  amountUSDC */\n      dup3\n        /* \"contracts/KipuBankV2.sol\":6798:6813  s_totalDeposits */\n      sload(0x05)\n        /* \"contracts/KipuBankV2.sol\":6798:6826  s_totalDeposits + amountUSDC */\n      tag_262\n      swap2\n      swap1\n      tag_126\n      jump\t// in\n    tag_262:\n        /* \"contracts/KipuBankV2.sol\":6797:6844  (s_totalDeposits + amountUSDC) > s_depositLimit */\n      gt\n        /* \"contracts/KipuBankV2.sol\":6790:6844  return (s_totalDeposits + amountUSDC) > s_depositLimit */\n      swap1\n      pop\n        /* \"contracts/KipuBankV2.sol\":6702:6851  function _exceedsDepositLimit(uint256 amountUSDC) private view returns (bool) {... */\n      swap2\n      swap1\n      pop\n      jump\t// out\n        /* \"@openzeppelin/contracts/token/ERC20/utils/SafeERC20.sol\":1618:1806  function safeTransferFrom(IERC20 token, address from, address to, uint256 value) internal {... */\n    tag_234:\n        /* \"@openzeppelin/contracts/token/ERC20/utils/SafeERC20.sol\":1718:1799  _callOptionalReturn(token, abi.encodeCall(token.transferFrom, (from, to, value))) */\n      tag_264\n        /* \"@openzeppelin/contracts/token/ERC20/utils/SafeERC20.sol\":1738:1743  token */\n      dup5\n        /* \"@openzeppelin/contracts/token/ERC20/utils/SafeERC20.sol\":1760:1765  token */\n      dup6\n        /* \"@openzeppelin/contracts/token/ERC20/utils/SafeERC20.sol\":1760:1778  token.transferFrom */\n      0xffffffffffffffffffffffffffffffffffffffff\n      and\n      0x23b872dd\n        /* \"@openzeppelin/contracts/token/ERC20/utils/SafeERC20.sol\":1781:1785  from */\n      dup7\n        /* \"@openzeppelin/contracts/token/ERC20/utils/SafeERC20.sol\":1787:1789  to */\n      dup7\n        /* \"@openzeppelin/contracts/token/ERC20/utils/SafeERC20.sol\":1791:1796  value */\n      dup7\n        /* \"@openzeppelin/contracts/token/ERC20/utils/SafeERC20.sol\":1745:1798  abi.encodeCall(token.transferFrom, (from, to, value)) */\n      add(0x24, mload(0x40))\n      tag_265\n      swap4\n      swap3\n      swap2\n      swap1\n      tag_215\n      jump\t// in\n    tag_265:\n      mload(0x40)\n      0x20\n      dup2\n      dup4\n      sub\n      sub\n      dup2\n      mstore\n      swap1\n      0x40\n      mstore\n      swap2\n      pop\n      0xe0\n      shl\n      0x20\n      dup3\n      add\n      dup1\n      mload\n      0xffffffffffffffffffffffffffffffffffffffffffffffffffffffff\n      dup4\n      dup2\n      dup4\n      and\n      or\n      dup4\n      mstore\n      pop\n      pop\n      pop\n      pop\n        /* \"@openzeppelin/contracts/token/ERC20/utils/SafeERC20.sol\":1718:1737  _callOptionalReturn */\n      tag_259\n        /* \"@openzeppelin/contracts/token/ERC20/utils/SafeERC20.sol\":1718:1799  _callOptionalReturn(token, abi.encodeCall(token.transferFrom, (from, to, value))) */\n      jump\t// in\n    tag_264:\n        /* \"@openzeppelin/contracts/token/ERC20/utils/SafeERC20.sol\":1618:1806  function safeTransferFrom(IERC20 token, address from, address to, uint256 value) internal {... */\n      pop\n      pop\n      pop\n      pop\n      jump\t// out\n        /* \"contracts/KipuBankV2.sol\":5820:6153  function _getETHUSDPrice() internal view returns (uint256 ethUSDPrice) {... */\n    tag_239:\n        /* \"contracts/KipuBankV2.sol\":5870:5889  uint256 ethUSDPrice */\n      0x00\n        /* \"contracts/KipuBankV2.sol\":5904:5916  int256 price */\n      0x00\n        /* \"contracts/KipuBankV2.sol\":5920:5937  uint256 updatedAt */\n      0x00\n        /* \"contracts/KipuBankV2.sol\":5943:5951  s_oracle */\n      0x03\n      0x00\n      swap1\n      sload\n      swap1\n      0x0100\n      exp\n      swap1\n      div\n      0xffffffffffffffffffffffffffffffffffffffff\n      and\n        /* \"contracts/KipuBankV2.sol\":5943:5967  s_oracle.latestRoundData */\n      0xffffffffffffffffffffffffffffffffffffffff\n      and\n      0xfeaf968c\n        /* \"contracts/KipuBankV2.sol\":5943:5969  s_oracle.latestRoundData() */\n      mload(0x40)\n      dup2\n      0xffffffff\n      and\n      0xe0\n      shl\n      dup2\n      mstore\n      0x04\n      add\n      0xa0\n      mload(0x40)\n      dup1\n      dup4\n      sub\n      dup2\n      dup7\n      gas\n      staticcall\n      iszero\n      dup1\n      iszero\n      tag_268\n      jumpi\n      returndatacopy(0x00, 0x00, returndatasize)\n      revert(0x00, returndatasize)\n    tag_268:\n      pop\n      pop\n      pop\n      pop\n      mload(0x40)\n      returndatasize\n      not(0x1f)\n      0x1f\n      dup3\n      add\n      and\n      dup3\n      add\n      dup1\n      0x40\n      mstore\n      pop\n      dup2\n      add\n      swap1\n      tag_269\n      swap2\n      swap1\n      tag_270\n      jump\t// in\n    tag_269:\n        /* \"contracts/KipuBankV2.sol\":5901:5969  (, int256 price, , uint256 updatedAt, ) = s_oracle.latestRoundData() */\n      pop\n      swap4\n      pop\n      pop\n      swap3\n      pop\n      pop\n        /* \"contracts/KipuBankV2.sol\":5993:5994  0 */\n      0x00\n        /* \"contracts/KipuBankV2.sol\":5984:5989  price */\n      dup3\n        /* \"contracts/KipuBankV2.sol\":5984:5994  price == 0 */\n      sub\n        /* \"contracts/KipuBankV2.sol\":5980:6022  if (price == 0) revert OracleCompromised() */\n      tag_271\n      jumpi\n        /* \"contracts/KipuBankV2.sol\":6003:6022  OracleCompromised() */\n      mload(0x40)\n      0x144c1d9500000000000000000000000000000000000000000000000000000000\n      dup2\n      mstore\n      0x04\n      add\n      mload(0x40)\n      dup1\n      swap2\n      sub\n      swap1\n      revert\n        /* \"contracts/KipuBankV2.sol\":5980:6022  if (price == 0) revert OracleCompromised() */\n    tag_271:\n        /* \"contracts/KipuBankV2.sol\":1466:1470  3600 */\n      0x0e10\n        /* \"contracts/KipuBankV2.sol\":6054:6063  updatedAt */\n      dup2\n        /* \"contracts/KipuBankV2.sol\":6036:6051  block.timestamp */\n      timestamp\n        /* \"contracts/KipuBankV2.sol\":6036:6063  block.timestamp - updatedAt */\n      tag_272\n      swap2\n      swap1\n      tag_153\n      jump\t// in\n    tag_272:\n        /* \"contracts/KipuBankV2.sol\":6036:6082  block.timestamp - updatedAt > ORACLE_HEARTBEAT */\n      gt\n        /* \"contracts/KipuBankV2.sol\":6032:6107  if (block.timestamp - updatedAt > ORACLE_HEARTBEAT) revert OracleOutdated() */\n      iszero\n      tag_273\n      jumpi\n        /* \"contracts/KipuBankV2.sol\":6091:6107  OracleOutdated() */\n      mload(0x40)\n      0x0b3126e600000000000000000000000000000000000000000000000000000000\n      dup2\n      mstore\n      0x04\n      add\n      mload(0x40)\n      dup1\n      swap2\n      sub\n      swap1\n      revert\n        /* \"contracts/KipuBankV2.sol\":6032:6107  if (block.timestamp - updatedAt > ORACLE_HEARTBEAT) revert OracleOutdated() */\n    tag_273:\n        /* \"contracts/KipuBankV2.sol\":6140:6145  price */\n      dup2\n        /* \"contracts/KipuBankV2.sol\":6118:6146  ethUSDPrice = uint256(price) */\n      swap3\n      pop\n        /* \"contracts/KipuBankV2.sol\":5891:6153  {... */\n      pop\n      pop\n        /* \"contracts/KipuBankV2.sol\":5820:6153  function _getETHUSDPrice() internal view returns (uint256 ethUSDPrice) {... */\n      swap1\n      jump\t// out\n        /* \"@openzeppelin/contracts/utils/Context.sol\":656:752  function _msgSender() internal view virtual returns (address) {... */\n    tag_246:\n        /* \"@openzeppelin/contracts/utils/Context.sol\":709:716  address */\n      0x00\n        /* \"@openzeppelin/contracts/utils/Context.sol\":735:745  msg.sender */\n      caller\n        /* \"@openzeppelin/contracts/utils/Context.sol\":728:745  return msg.sender */\n      swap1\n      pop\n        /* \"@openzeppelin/contracts/utils/Context.sol\":656:752  function _msgSender() internal view virtual returns (address) {... */\n      swap1\n      jump\t// out\n        /* \"@openzeppelin/contracts/token/ERC20/utils/SafeERC20.sol\":8370:9090  function _callOptionalReturn(IERC20 token, bytes memory data) private {... */\n    tag_259:\n        /* \"@openzeppelin/contracts/token/ERC20/utils/SafeERC20.sol\":8450:8468  uint256 returnSize */\n      0x00\n        /* \"@openzeppelin/contracts/token/ERC20/utils/SafeERC20.sol\":8478:8497  uint256 returnValue */\n      0x00\n        /* \"@openzeppelin/contracts/token/ERC20/utils/SafeERC20.sol\":8616:8620  0x20 */\n      0x20\n        /* \"@openzeppelin/contracts/token/ERC20/utils/SafeERC20.sol\":8613:8614  0 */\n      0x00\n        /* \"@openzeppelin/contracts/token/ERC20/utils/SafeERC20.sol\":8606:8610  data */\n      dup5\n        /* \"@openzeppelin/contracts/token/ERC20/utils/SafeERC20.sol\":8600:8611  mload(data) */\n      mload\n        /* \"@openzeppelin/contracts/token/ERC20/utils/SafeERC20.sol\":8593:8597  0x20 */\n      0x20\n        /* \"@openzeppelin/contracts/token/ERC20/utils/SafeERC20.sol\":8587:8591  data */\n      dup7\n        /* \"@openzeppelin/contracts/token/ERC20/utils/SafeERC20.sol\":8583:8598  add(data, 0x20) */\n      add\n        /* \"@openzeppelin/contracts/token/ERC20/utils/SafeERC20.sol\":8580:8581  0 */\n      0x00\n        /* \"@openzeppelin/contracts/token/ERC20/utils/SafeERC20.sol\":8573:8578  token */\n      dup9\n        /* \"@openzeppelin/contracts/token/ERC20/utils/SafeERC20.sol\":8566:8571  gas() */\n      gas\n        /* \"@openzeppelin/contracts/token/ERC20/utils/SafeERC20.sol\":8561:8621  call(gas(), token, 0, add(data, 0x20), mload(data), 0, 0x20) */\n      call\n        /* \"@openzeppelin/contracts/token/ERC20/utils/SafeERC20.sol\":8673:8680  success */\n      dup1\n        /* \"@openzeppelin/contracts/token/ERC20/utils/SafeERC20.sol\":8663:8839  if iszero(success) {... */\n      tag_276\n      jumpi\n        /* \"@openzeppelin/contracts/token/ERC20/utils/SafeERC20.sol\":8717:8721  0x40 */\n      0x40\n        /* \"@openzeppelin/contracts/token/ERC20/utils/SafeERC20.sol\":8711:8722  mload(0x40) */\n      mload\n        /* \"@openzeppelin/contracts/token/ERC20/utils/SafeERC20.sol\":8762:8778  returndatasize() */\n      returndatasize\n        /* \"@openzeppelin/contracts/token/ERC20/utils/SafeERC20.sol\":8759:8760  0 */\n      0x00\n        /* \"@openzeppelin/contracts/token/ERC20/utils/SafeERC20.sol\":8754:8757  ptr */\n      dup3\n        /* \"@openzeppelin/contracts/token/ERC20/utils/SafeERC20.sol\":8739:8779  returndatacopy(ptr, 0, returndatasize()) */\n      returndatacopy\n        /* \"@openzeppelin/contracts/token/ERC20/utils/SafeERC20.sol\":8808:8824  returndatasize() */\n      returndatasize\n        /* \"@openzeppelin/contracts/token/ERC20/utils/SafeERC20.sol\":8803:8806  ptr */\n      dup2\n        /* \"@openzeppelin/contracts/token/ERC20/utils/SafeERC20.sol\":8796:8825  revert(ptr, returndatasize()) */\n      revert\n        /* \"@openzeppelin/contracts/token/ERC20/utils/SafeERC20.sol\":8663:8839  if iszero(success) {... */\n    tag_276:\n        /* \"@openzeppelin/contracts/token/ERC20/utils/SafeERC20.sol\":8866:8882  returndatasize() */\n      returndatasize\n        /* \"@openzeppelin/contracts/token/ERC20/utils/SafeERC20.sol\":8852:8882  returnSize := returndatasize() */\n      swap3\n      pop\n        /* \"@openzeppelin/contracts/token/ERC20/utils/SafeERC20.sol\":8916:8917  0 */\n      0x00\n        /* \"@openzeppelin/contracts/token/ERC20/utils/SafeERC20.sol\":8910:8918  mload(0) */\n      mload\n        /* \"@openzeppelin/contracts/token/ERC20/utils/SafeERC20.sol\":8895:8918  returnValue := mload(0) */\n      swap2\n      pop\n        /* \"@openzeppelin/contracts/token/ERC20/utils/SafeERC20.sol\":8532:8928  {... */\n      pop\n        /* \"@openzeppelin/contracts/token/ERC20/utils/SafeERC20.sol\":8956:8957  0 */\n      0x00\n        /* \"@openzeppelin/contracts/token/ERC20/utils/SafeERC20.sol\":8942:8952  returnSize */\n      dup3\n        /* \"@openzeppelin/contracts/token/ERC20/utils/SafeERC20.sol\":8942:8957  returnSize == 0 */\n      eq\n        /* \"@openzeppelin/contracts/token/ERC20/utils/SafeERC20.sol\":8942:9010  returnSize == 0 ? address(token).code.length == 0 : returnValue != 1 */\n      tag_277\n      jumpi\n        /* \"@openzeppelin/contracts/token/ERC20/utils/SafeERC20.sol\":9009:9010  1 */\n      0x01\n        /* \"@openzeppelin/contracts/token/ERC20/utils/SafeERC20.sol\":8994:9005  returnValue */\n      dup2\n        /* \"@openzeppelin/contracts/token/ERC20/utils/SafeERC20.sol\":8994:9010  returnValue != 1 */\n      eq\n      iszero\n        /* \"@openzeppelin/contracts/token/ERC20/utils/SafeERC20.sol\":8942:9010  returnSize == 0 ? address(token).code.length == 0 : returnValue != 1 */\n      jump(tag_278)\n    tag_277:\n        /* \"@openzeppelin/contracts/token/ERC20/utils/SafeERC20.sol\":8990:8991  0 */\n      0x00\n        /* \"@openzeppelin/contracts/token/ERC20/utils/SafeERC20.sol\":8968:8973  token */\n      dup5\n        /* \"@openzeppelin/contracts/token/ERC20/utils/SafeERC20.sol\":8960:8986  address(token).code.length */\n      0xffffffffffffffffffffffffffffffffffffffff\n      and\n      extcodesize\n        /* \"@openzeppelin/contracts/token/ERC20/utils/SafeERC20.sol\":8960:8991  address(token).code.length == 0 */\n      eq\n        /* \"@openzeppelin/contracts/token/ERC20/utils/SafeERC20.sol\":8942:9010  returnSize == 0 ? address(token).code.length == 0 : returnValue != 1 */\n    tag_278:\n        /* \"@openzeppelin/contracts/token/ERC20/utils/SafeERC20.sol\":8938:9084  if (returnSize == 0 ? address(token).code.length == 0 : returnValue != 1) {... */\n      iszero\n      tag_279\n      jumpi\n        /* \"@openzeppelin/contracts/token/ERC20/utils/SafeERC20.sol\":9066:9071  token */\n      dup4\n        /* \"@openzeppelin/contracts/token/ERC20/utils/SafeERC20.sol\":9033:9073  SafeERC20FailedOperation(address(token)) */\n      mload(0x40)\n      0x5274afe700000000000000000000000000000000000000000000000000000000\n      dup2\n      mstore\n      0x04\n      add\n      tag_280\n      swap2\n      swap1\n      tag_60\n      jump\t// in\n    tag_280:\n      mload(0x40)\n      dup1\n      swap2\n      sub\n      swap1\n      revert\n        /* \"@openzeppelin/contracts/token/ERC20/utils/SafeERC20.sol\":8938:9084  if (returnSize == 0 ? address(token).code.length == 0 : returnValue != 1) {... */\n    tag_279:\n        /* \"@openzeppelin/contracts/token/ERC20/utils/SafeERC20.sol\":8440:9090  {... */\n      pop\n      pop\n        /* \"@openzeppelin/contracts/token/ERC20/utils/SafeERC20.sol\":8370:9090  function _callOptionalReturn(IERC20 token, bytes memory data) private {... */\n      pop\n      pop\n      jump\t// out\n        /* \"#utility.yul\":7:84   */\n    tag_281:\n        /* \"#utility.yul\":44:51   */\n      0x00\n        /* \"#utility.yul\":73:78   */\n      dup2\n        /* \"#utility.yul\":62:78   */\n      swap1\n      pop\n        /* \"#utility.yul\":7:84   */\n      swap2\n      swap1\n      pop\n      jump\t// out\n        /* \"#utility.yul\":90:208   */\n    tag_282:\n        /* \"#utility.yul\":177:201   */\n      tag_328\n        /* \"#utility.yul\":195:200   */\n      dup2\n        /* \"#utility.yul\":177:201   */\n      tag_281\n      jump\t// in\n    tag_328:\n        /* \"#utility.yul\":172:175   */\n      dup3\n        /* \"#utility.yul\":165:202   */\n      mstore\n        /* \"#utility.yul\":90:208   */\n      pop\n      pop\n      jump\t// out\n        /* \"#utility.yul\":214:436   */\n    tag_30:\n        /* \"#utility.yul\":307:311   */\n      0x00\n        /* \"#utility.yul\":345:347   */\n      0x20\n        /* \"#utility.yul\":334:343   */\n      dup3\n        /* \"#utility.yul\":330:348   */\n      add\n        /* \"#utility.yul\":322:348   */\n      swap1\n      pop\n        /* \"#utility.yul\":358:429   */\n      tag_330\n        /* \"#utility.yul\":426:427   */\n      0x00\n        /* \"#utility.yul\":415:424   */\n      dup4\n        /* \"#utility.yul\":411:428   */\n      add\n        /* \"#utility.yul\":402:408   */\n      dup5\n        /* \"#utility.yul\":358:429   */\n      tag_282\n      jump\t// in\n    tag_330:\n        /* \"#utility.yul\":214:436   */\n      swap3\n      swap2\n      pop\n      pop\n      jump\t// out\n        /* \"#utility.yul\":523:640   */\n    tag_284:\n        /* \"#utility.yul\":632:633   */\n      0x00\n        /* \"#utility.yul\":629:630   */\n      0x00\n        /* \"#utility.yul\":622:634   */\n      revert\n        /* \"#utility.yul\":769:895   */\n    tag_286:\n        /* \"#utility.yul\":806:813   */\n      0x00\n        /* \"#utility.yul\":846:888   */\n      0xffffffffffffffffffffffffffffffffffffffff\n        /* \"#utility.yul\":839:844   */\n      dup3\n        /* \"#utility.yul\":835:889   */\n      and\n        /* \"#utility.yul\":824:889   */\n      swap1\n      pop\n        /* \"#utility.yul\":769:895   */\n      swap2\n      swap1\n      pop\n      jump\t// out\n        /* \"#utility.yul\":901:997   */\n    tag_287:\n        /* \"#utility.yul\":938:945   */\n      0x00\n        /* \"#utility.yul\":967:991   */\n      tag_336\n        /* \"#utility.yul\":985:990   */\n      dup3\n        /* \"#utility.yul\":967:991   */\n      tag_286\n      jump\t// in\n    tag_336:\n        /* \"#utility.yul\":956:991   */\n      swap1\n      pop\n        /* \"#utility.yul\":901:997   */\n      swap2\n      swap1\n      pop\n      jump\t// out\n        /* \"#utility.yul\":1003:1125   */\n    tag_288:\n        /* \"#utility.yul\":1076:1100   */\n      tag_338\n        /* \"#utility.yul\":1094:1099   */\n      dup2\n        /* \"#utility.yul\":1076:1100   */\n      tag_287\n      jump\t// in\n    tag_338:\n        /* \"#utility.yul\":1069:1074   */\n      dup2\n        /* \"#utility.yul\":1066:1101   */\n      eq\n        /* \"#utility.yul\":1056:1119   */\n      tag_339\n      jumpi\n        /* \"#utility.yul\":1115:1116   */\n      0x00\n        /* \"#utility.yul\":1112:1113   */\n      0x00\n        /* \"#utility.yul\":1105:1117   */\n      revert\n        /* \"#utility.yul\":1056:1119   */\n    tag_339:\n        /* \"#utility.yul\":1003:1125   */\n      pop\n      jump\t// out\n        /* \"#utility.yul\":1131:1270   */\n    tag_289:\n        /* \"#utility.yul\":1177:1182   */\n      0x00\n        /* \"#utility.yul\":1215:1221   */\n      dup2\n        /* \"#utility.yul\":1202:1222   */\n      calldataload\n        /* \"#utility.yul\":1193:1222   */\n      swap1\n      pop\n        /* \"#utility.yul\":1231:1264   */\n      tag_341\n        /* \"#utility.yul\":1258:1263   */\n      dup2\n        /* \"#utility.yul\":1231:1264   */\n      tag_288\n      jump\t// in\n    tag_341:\n        /* \"#utility.yul\":1131:1270   */\n      swap3\n      swap2\n      pop\n      pop\n      jump\t// out\n        /* \"#utility.yul\":1276:1605   */\n    tag_49:\n        /* \"#utility.yul\":1335:1341   */\n      0x00\n        /* \"#utility.yul\":1384:1386   */\n      0x20\n        /* \"#utility.yul\":1372:1381   */\n      dup3\n        /* \"#utility.yul\":1363:1370   */\n      dup5\n        /* \"#utility.yul\":1359:1382   */\n      sub\n        /* \"#utility.yul\":1355:1387   */\n      slt\n        /* \"#utility.yul\":1352:1471   */\n      iszero\n      tag_343\n      jumpi\n        /* \"#utility.yul\":1390:1469   */\n      tag_344\n      tag_284\n      jump\t// in\n    tag_344:\n        /* \"#utility.yul\":1352:1471   */\n    tag_343:\n        /* \"#utility.yul\":1510:1511   */\n      0x00\n        /* \"#utility.yul\":1535:1588   */\n      tag_345\n        /* \"#utility.yul\":1580:1587   */\n      dup5\n        /* \"#utility.yul\":1571:1577   */\n      dup3\n        /* \"#utility.yul\":1560:1569   */\n      dup6\n        /* \"#utility.yul\":1556:1578   */\n      add\n        /* \"#utility.yul\":1535:1588   */\n      tag_289\n      jump\t// in\n    tag_345:\n        /* \"#utility.yul\":1525:1588   */\n      swap2\n      pop\n        /* \"#utility.yul\":1481:1598   */\n      pop\n        /* \"#utility.yul\":1276:1605   */\n      swap3\n      swap2\n      pop\n      pop\n      jump\t// out\n        /* \"#utility.yul\":1611:1729   */\n    tag_290:\n        /* \"#utility.yul\":1698:1722   */\n      tag_347\n        /* \"#utility.yul\":1716:1721   */\n      dup2\n        /* \"#utility.yul\":1698:1722   */\n      tag_287\n      jump\t// in\n    tag_347:\n        /* \"#utility.yul\":1693:1696   */\n      dup3\n        /* \"#utility.yul\":1686:1723   */\n      mstore\n        /* \"#utility.yul\":1611:1729   */\n      pop\n      pop\n      jump\t// out\n        /* \"#utility.yul\":1735:1957   */\n    tag_60:\n        /* \"#utility.yul\":1828:1832   */\n      0x00\n        /* \"#utility.yul\":1866:1868   */\n      0x20\n        /* \"#utility.yul\":1855:1864   */\n      dup3\n        /* \"#utility.yul\":1851:1869   */\n      add\n        /* \"#utility.yul\":1843:1869   */\n      swap1\n      pop\n        /* \"#utility.yul\":1879:1950   */\n      tag_349\n        /* \"#utility.yul\":1947:1948   */\n      0x00\n        /* \"#utility.yul\":1936:1945   */\n      dup4\n        /* \"#utility.yul\":1932:1949   */\n      add\n        /* \"#utility.yul\":1923:1929   */\n      dup5\n        /* \"#utility.yul\":1879:1950   */\n      tag_290\n      jump\t// in\n    tag_349:\n        /* \"#utility.yul\":1735:1957   */\n      swap3\n      swap2\n      pop\n      pop\n      jump\t// out\n        /* \"#utility.yul\":1963:2085   */\n    tag_291:\n        /* \"#utility.yul\":2036:2060   */\n      tag_351\n        /* \"#utility.yul\":2054:2059   */\n      dup2\n        /* \"#utility.yul\":2036:2060   */\n      tag_281\n      jump\t// in\n    tag_351:\n        /* \"#utility.yul\":2029:2034   */\n      dup2\n        /* \"#utility.yul\":2026:2061   */\n      eq\n        /* \"#utility.yul\":2016:2079   */\n      tag_352\n      jumpi\n        /* \"#utility.yul\":2075:2076   */\n      0x00\n        /* \"#utility.yul\":2072:2073   */\n      0x00\n        /* \"#utility.yul\":2065:2077   */\n      revert\n        /* \"#utility.yul\":2016:2079   */\n    tag_352:\n        /* \"#utility.yul\":1963:2085   */\n      pop\n      jump\t// out\n        /* \"#utility.yul\":2091:2230   */\n    tag_292:\n        /* \"#utility.yul\":2137:2142   */\n      0x00\n        /* \"#utility.yul\":2175:2181   */\n      dup2\n        /* \"#utility.yul\":2162:2182   */\n      calldataload\n        /* \"#utility.yul\":2153:2182   */\n      swap1\n      pop\n        /* \"#utility.yul\":2191:2224   */\n      tag_354\n        /* \"#utility.yul\":2218:2223   */\n      dup2\n        /* \"#utility.yul\":2191:2224   */\n      tag_291\n      jump\t// in\n    tag_354:\n        /* \"#utility.yul\":2091:2230   */\n      swap3\n      swap2\n      pop\n      pop\n      jump\t// out\n        /* \"#utility.yul\":2236:2565   */\n    tag_64:\n        /* \"#utility.yul\":2295:2301   */\n      0x00\n        /* \"#utility.yul\":2344:2346   */\n      0x20\n        /* \"#utility.yul\":2332:2341   */\n      dup3\n        /* \"#utility.yul\":2323:2330   */\n      dup5\n        /* \"#utility.yul\":2319:2342   */\n      sub\n        /* \"#utility.yul\":2315:2347   */\n      slt\n        /* \"#utility.yul\":2312:2431   */\n      iszero\n      tag_356\n      jumpi\n        /* \"#utility.yul\":2350:2429   */\n      tag_357\n      tag_284\n      jump\t// in\n    tag_357:\n        /* \"#utility.yul\":2312:2431   */\n    tag_356:\n        /* \"#utility.yul\":2470:2471   */\n      0x00\n        /* \"#utility.yul\":2495:2548   */\n      tag_358\n        /* \"#utility.yul\":2540:2547   */\n      dup5\n        /* \"#utility.yul\":2531:2537   */\n      dup3\n        /* \"#utility.yul\":2520:2529   */\n      dup6\n        /* \"#utility.yul\":2516:2538   */\n      add\n        /* \"#utility.yul\":2495:2548   */\n      tag_292\n      jump\t// in\n    tag_358:\n        /* \"#utility.yul\":2485:2548   */\n      swap2\n      pop\n        /* \"#utility.yul\":2441:2558   */\n      pop\n        /* \"#utility.yul\":2236:2565   */\n      swap3\n      swap2\n      pop\n      pop\n      jump\t// out\n        /* \"#utility.yul\":2571:3045   */\n    tag_73:\n        /* \"#utility.yul\":2639:2645   */\n      0x00\n        /* \"#utility.yul\":2647:2653   */\n      0x00\n        /* \"#utility.yul\":2696:2698   */\n      0x40\n        /* \"#utility.yul\":2684:2693   */\n      dup4\n        /* \"#utility.yul\":2675:2682   */\n      dup6\n        /* \"#utility.yul\":2671:2694   */\n      sub\n        /* \"#utility.yul\":2667:2699   */\n      slt\n        /* \"#utility.yul\":2664:2783   */\n      iszero\n      tag_360\n      jumpi\n        /* \"#utility.yul\":2702:2781   */\n      tag_361\n      tag_284\n      jump\t// in\n    tag_361:\n        /* \"#utility.yul\":2664:2783   */\n    tag_360:\n        /* \"#utility.yul\":2822:2823   */\n      0x00\n        /* \"#utility.yul\":2847:2900   */\n      tag_362\n        /* \"#utility.yul\":2892:2899   */\n      dup6\n        /* \"#utility.yul\":2883:2889   */\n      dup3\n        /* \"#utility.yul\":2872:2881   */\n      dup7\n        /* \"#utility.yul\":2868:2890   */\n      add\n        /* \"#utility.yul\":2847:2900   */\n      tag_289\n      jump\t// in\n    tag_362:\n        /* \"#utility.yul\":2837:2900   */\n      swap3\n      pop\n        /* \"#utility.yul\":2793:2910   */\n      pop\n        /* \"#utility.yul\":2949:2951   */\n      0x20\n        /* \"#utility.yul\":2975:3028   */\n      tag_363\n        /* \"#utility.yul\":3020:3027   */\n      dup6\n        /* \"#utility.yul\":3011:3017   */\n      dup3\n        /* \"#utility.yul\":3000:3009   */\n      dup7\n        /* \"#utility.yul\":2996:3018   */\n      add\n        /* \"#utility.yul\":2975:3028   */\n      tag_289\n      jump\t// in\n    tag_363:\n        /* \"#utility.yul\":2965:3028   */\n      swap2\n      pop\n        /* \"#utility.yul\":2920:3038   */\n      pop\n        /* \"#utility.yul\":2571:3045   */\n      swap3\n      pop\n      swap3\n      swap1\n      pop\n      jump\t// out\n        /* \"#utility.yul\":3051:3111   */\n    tag_293:\n        /* \"#utility.yul\":3079:3082   */\n      0x00\n        /* \"#utility.yul\":3100:3105   */\n      dup2\n        /* \"#utility.yul\":3093:3105   */\n      swap1\n      pop\n        /* \"#utility.yul\":3051:3111   */\n      swap2\n      swap1\n      pop\n      jump\t// out\n        /* \"#utility.yul\":3117:3259   */\n    tag_294:\n        /* \"#utility.yul\":3167:3176   */\n      0x00\n        /* \"#utility.yul\":3200:3253   */\n      tag_366\n        /* \"#utility.yul\":3218:3252   */\n      tag_367\n        /* \"#utility.yul\":3227:3251   */\n      tag_368\n        /* \"#utility.yul\":3245:3250   */\n      dup5\n        /* \"#utility.yul\":3227:3251   */\n      tag_286\n      jump\t// in\n    tag_368:\n        /* \"#utility.yul\":3218:3252   */\n      tag_293\n      jump\t// in\n    tag_367:\n        /* \"#utility.yul\":3200:3253   */\n      tag_286\n      jump\t// in\n    tag_366:\n        /* \"#utility.yul\":3187:3253   */\n      swap1\n      pop\n        /* \"#utility.yul\":3117:3259   */\n      swap2\n      swap1\n      pop\n      jump\t// out\n        /* \"#utility.yul\":3265:3391   */\n    tag_295:\n        /* \"#utility.yul\":3315:3324   */\n      0x00\n        /* \"#utility.yul\":3348:3385   */\n      tag_370\n        /* \"#utility.yul\":3379:3384   */\n      dup3\n        /* \"#utility.yul\":3348:3385   */\n      tag_294\n      jump\t// in\n    tag_370:\n        /* \"#utility.yul\":3335:3385   */\n      swap1\n      pop\n        /* \"#utility.yul\":3265:3391   */\n      swap2\n      swap1\n      pop\n      jump\t// out\n        /* \"#utility.yul\":3397:3551   */\n    tag_296:\n        /* \"#utility.yul\":3475:3484   */\n      0x00\n        /* \"#utility.yul\":3508:3545   */\n      tag_372\n        /* \"#utility.yul\":3539:3544   */\n      dup3\n        /* \"#utility.yul\":3508:3545   */\n      tag_295\n      jump\t// in\n    tag_372:\n        /* \"#utility.yul\":3495:3545   */\n      swap1\n      pop\n        /* \"#utility.yul\":3397:3551   */\n      swap2\n      swap1\n      pop\n      jump\t// out\n        /* \"#utility.yul\":3557:3744   */\n    tag_297:\n        /* \"#utility.yul\":3672:3737   */\n      tag_374\n        /* \"#utility.yul\":3731:3736   */\n      dup2\n        /* \"#utility.yul\":3672:3737   */\n      tag_296\n      jump\t// in\n    tag_374:\n        /* \"#utility.yul\":3667:3670   */\n      dup3\n        /* \"#utility.yul\":3660:3738   */\n      mstore\n        /* \"#utility.yul\":3557:3744   */\n      pop\n      pop\n      jump\t// out\n        /* \"#utility.yul\":3750:4028   */\n    tag_111:\n        /* \"#utility.yul\":3871:3875   */\n      0x00\n        /* \"#utility.yul\":3909:3911   */\n      0x20\n        /* \"#utility.yul\":3898:3907   */\n      dup3\n        /* \"#utility.yul\":3894:3912   */\n      add\n        /* \"#utility.yul\":3886:3912   */\n      swap1\n      pop\n        /* \"#utility.yul\":3922:4021   */\n      tag_376\n        /* \"#utility.yul\":4018:4019   */\n      0x00\n        /* \"#utility.yul\":4007:4016   */\n      dup4\n        /* \"#utility.yul\":4003:4020   */\n      add\n        /* \"#utility.yul\":3994:4000   */\n      dup5\n        /* \"#utility.yul\":3922:4021   */\n      tag_297\n      jump\t// in\n    tag_376:\n        /* \"#utility.yul\":3750:4028   */\n      swap3\n      swap2\n      pop\n      pop\n      jump\t// out\n        /* \"#utility.yul\":4034:4174   */\n    tag_298:\n        /* \"#utility.yul\":4098:4107   */\n      0x00\n        /* \"#utility.yul\":4131:4168   */\n      tag_378\n        /* \"#utility.yul\":4162:4167   */\n      dup3\n        /* \"#utility.yul\":4131:4168   */\n      tag_295\n      jump\t// in\n    tag_378:\n        /* \"#utility.yul\":4118:4168   */\n      swap1\n      pop\n        /* \"#utility.yul\":4034:4174   */\n      swap2\n      swap1\n      pop\n      jump\t// out\n        /* \"#utility.yul\":4180:4339   */\n    tag_299:\n        /* \"#utility.yul\":4281:4332   */\n      tag_380\n        /* \"#utility.yul\":4326:4331   */\n      dup2\n        /* \"#utility.yul\":4281:4332   */\n      tag_298\n      jump\t// in\n    tag_380:\n        /* \"#utility.yul\":4276:4279   */\n      dup3\n        /* \"#utility.yul\":4269:4333   */\n      mstore\n        /* \"#utility.yul\":4180:4339   */\n      pop\n      pop\n      jump\t// out\n        /* \"#utility.yul\":4345:4595   */\n    tag_116:\n        /* \"#utility.yul\":4452:4456   */\n      0x00\n        /* \"#utility.yul\":4490:4492   */\n      0x20\n        /* \"#utility.yul\":4479:4488   */\n      dup3\n        /* \"#utility.yul\":4475:4493   */\n      add\n        /* \"#utility.yul\":4467:4493   */\n      swap1\n      pop\n        /* \"#utility.yul\":4503:4588   */\n      tag_382\n        /* \"#utility.yul\":4585:4586   */\n      0x00\n        /* \"#utility.yul\":4574:4583   */\n      dup4\n        /* \"#utility.yul\":4570:4587   */\n      add\n        /* \"#utility.yul\":4561:4567   */\n      dup5\n        /* \"#utility.yul\":4503:4588   */\n      tag_299\n      jump\t// in\n    tag_382:\n        /* \"#utility.yul\":4345:4595   */\n      swap3\n      swap2\n      pop\n      pop\n      jump\t// out\n        /* \"#utility.yul\":4601:4744   */\n    tag_300:\n        /* \"#utility.yul\":4658:4663   */\n      0x00\n        /* \"#utility.yul\":4689:4695   */\n      dup2\n        /* \"#utility.yul\":4683:4696   */\n      mload\n        /* \"#utility.yul\":4674:4696   */\n      swap1\n      pop\n        /* \"#utility.yul\":4705:4738   */\n      tag_384\n        /* \"#utility.yul\":4732:4737   */\n      dup2\n        /* \"#utility.yul\":4705:4738   */\n      tag_291\n      jump\t// in\n    tag_384:\n        /* \"#utility.yul\":4601:4744   */\n      swap3\n      swap2\n      pop\n      pop\n      jump\t// out\n        /* \"#utility.yul\":4750:5101   */\n    tag_124:\n        /* \"#utility.yul\":4820:4826   */\n      0x00\n        /* \"#utility.yul\":4869:4871   */\n      0x20\n        /* \"#utility.yul\":4857:4866   */\n      dup3\n        /* \"#utility.yul\":4848:4855   */\n      dup5\n        /* \"#utility.yul\":4844:4867   */\n      sub\n        /* \"#utility.yul\":4840:4872   */\n      slt\n        /* \"#utility.yul\":4837:4956   */\n      iszero\n      tag_386\n      jumpi\n        /* \"#utility.yul\":4875:4954   */\n      tag_387\n      tag_284\n      jump\t// in\n    tag_387:\n        /* \"#utility.yul\":4837:4956   */\n    tag_386:\n        /* \"#utility.yul\":4995:4996   */\n      0x00\n        /* \"#utility.yul\":5020:5084   */\n      tag_388\n        /* \"#utility.yul\":5076:5083   */\n      dup5\n        /* \"#utility.yul\":5067:5073   */\n      dup3\n        /* \"#utility.yul\":5056:5065   */\n      dup6\n        /* \"#utility.yul\":5052:5074   */\n      add\n        /* \"#utility.yul\":5020:5084   */\n      tag_300\n      jump\t// in\n    tag_388:\n        /* \"#utility.yul\":5010:5084   */\n      swap2\n      pop\n        /* \"#utility.yul\":4966:5094   */\n      pop\n        /* \"#utility.yul\":4750:5101   */\n      swap3\n      swap2\n      pop\n      pop\n      jump\t// out\n        /* \"#utility.yul\":5107:5287   */\n    tag_301:\n        /* \"#utility.yul\":5155:5232   */\n      0x4e487b7100000000000000000000000000000000000000000000000000000000\n        /* \"#utility.yul\":5152:5153   */\n      0x00\n        /* \"#utility.yul\":5145:5233   */\n      mstore\n        /* \"#utility.yul\":5252:5256   */\n      0x11\n        /* \"#utility.yul\":5249:5250   */\n      0x04\n        /* \"#utility.yul\":5242:5257   */\n      mstore\n        /* \"#utility.yul\":5276:5280   */\n      0x24\n        /* \"#utility.yul\":5273:5274   */\n      0x00\n        /* \"#utility.yul\":5266:5281   */\n      revert\n        /* \"#utility.yul\":5293:5484   */\n    tag_126:\n        /* \"#utility.yul\":5333:5336   */\n      0x00\n        /* \"#utility.yul\":5352:5372   */\n      tag_391\n        /* \"#utility.yul\":5370:5371   */\n      dup3\n        /* \"#utility.yul\":5352:5372   */\n      tag_281\n      jump\t// in\n    tag_391:\n        /* \"#utility.yul\":5347:5372   */\n      swap2\n      pop\n        /* \"#utility.yul\":5386:5406   */\n      tag_392\n        /* \"#utility.yul\":5404:5405   */\n      dup4\n        /* \"#utility.yul\":5386:5406   */\n      tag_281\n      jump\t// in\n    tag_392:\n        /* \"#utility.yul\":5381:5406   */\n      swap3\n      pop\n        /* \"#utility.yul\":5429:5430   */\n      dup3\n        /* \"#utility.yul\":5426:5427   */\n      dup3\n        /* \"#utility.yul\":5422:5431   */\n      add\n        /* \"#utility.yul\":5415:5431   */\n      swap1\n      pop\n        /* \"#utility.yul\":5450:5453   */\n      dup1\n        /* \"#utility.yul\":5447:5448   */\n      dup3\n        /* \"#utility.yul\":5444:5454   */\n      gt\n        /* \"#utility.yul\":5441:5477   */\n      iszero\n      tag_393\n      jumpi\n        /* \"#utility.yul\":5457:5475   */\n      tag_394\n      tag_301\n      jump\t// in\n    tag_394:\n        /* \"#utility.yul\":5441:5477   */\n    tag_393:\n        /* \"#utility.yul\":5293:5484   */\n      swap3\n      swap2\n      pop\n      pop\n      jump\t// out\n        /* \"#utility.yul\":5490:5659   */\n    tag_302:\n        /* \"#utility.yul\":5574:5585   */\n      0x00\n        /* \"#utility.yul\":5608:5614   */\n      dup3\n        /* \"#utility.yul\":5603:5606   */\n      dup3\n        /* \"#utility.yul\":5596:5615   */\n      mstore\n        /* \"#utility.yul\":5648:5652   */\n      0x20\n        /* \"#utility.yul\":5643:5646   */\n      dup3\n        /* \"#utility.yul\":5639:5653   */\n      add\n        /* \"#utility.yul\":5624:5653   */\n      swap1\n      pop\n        /* \"#utility.yul\":5490:5659   */\n      swap3\n      swap2\n      pop\n      pop\n      jump\t// out\n        /* \"#utility.yul\":5665:5835   */\n    tag_303:\n        /* \"#utility.yul\":5805:5827   */\n      0x496e73756666696369656e742062616c616e6365000000000000000000000000\n        /* \"#utility.yul\":5801:5802   */\n      0x00\n        /* \"#utility.yul\":5793:5799   */\n      dup3\n        /* \"#utility.yul\":5789:5803   */\n      add\n        /* \"#utility.yul\":5782:5828   */\n      mstore\n        /* \"#utility.yul\":5665:5835   */\n      pop\n      jump\t// out\n        /* \"#utility.yul\":5841:6207   */\n    tag_304:\n        /* \"#utility.yul\":5983:5986   */\n      0x00\n        /* \"#utility.yul\":6004:6071   */\n      tag_398\n        /* \"#utility.yul\":6068:6070   */\n      0x14\n        /* \"#utility.yul\":6063:6066   */\n      dup4\n        /* \"#utility.yul\":6004:6071   */\n      tag_302\n      jump\t// in\n    tag_398:\n        /* \"#utility.yul\":5997:6071   */\n      swap2\n      pop\n        /* \"#utility.yul\":6080:6173   */\n      tag_399\n        /* \"#utility.yul\":6169:6172   */\n      dup3\n        /* \"#utility.yul\":6080:6173   */\n      tag_303\n      jump\t// in\n    tag_399:\n        /* \"#utility.yul\":6198:6200   */\n      0x20\n        /* \"#utility.yul\":6193:6196   */\n      dup3\n        /* \"#utility.yul\":6189:6201   */\n      add\n        /* \"#utility.yul\":6182:6201   */\n      swap1\n      pop\n        /* \"#utility.yul\":5841:6207   */\n      swap2\n      swap1\n      pop\n      jump\t// out\n        /* \"#utility.yul\":6213:6852   */\n    tag_151:\n        /* \"#utility.yul\":6435:6439   */\n      0x00\n        /* \"#utility.yul\":6473:6475   */\n      0x60\n        /* \"#utility.yul\":6462:6471   */\n      dup3\n        /* \"#utility.yul\":6458:6476   */\n      add\n        /* \"#utility.yul\":6450:6476   */\n      swap1\n      pop\n        /* \"#utility.yul\":6486:6557   */\n      tag_401\n        /* \"#utility.yul\":6554:6555   */\n      0x00\n        /* \"#utility.yul\":6543:6552   */\n      dup4\n        /* \"#utility.yul\":6539:6556   */\n      add\n        /* \"#utility.yul\":6530:6536   */\n      dup6\n        /* \"#utility.yul\":6486:6557   */\n      tag_282\n      jump\t// in\n    tag_401:\n        /* \"#utility.yul\":6567:6639   */\n      tag_402\n        /* \"#utility.yul\":6635:6637   */\n      0x20\n        /* \"#utility.yul\":6624:6633   */\n      dup4\n        /* \"#utility.yul\":6620:6638   */\n      add\n        /* \"#utility.yul\":6611:6617   */\n      dup5\n        /* \"#utility.yul\":6567:6639   */\n      tag_290\n      jump\t// in\n    tag_402:\n        /* \"#utility.yul\":6686:6695   */\n      dup2\n        /* \"#utility.yul\":6680:6684   */\n      dup2\n        /* \"#utility.yul\":6676:6696   */\n      sub\n        /* \"#utility.yul\":6671:6673   */\n      0x40\n        /* \"#utility.yul\":6660:6669   */\n      dup4\n        /* \"#utility.yul\":6656:6674   */\n      add\n        /* \"#utility.yul\":6649:6697   */\n      mstore\n        /* \"#utility.yul\":6714:6845   */\n      tag_403\n        /* \"#utility.yul\":6840:6844   */\n      dup2\n        /* \"#utility.yul\":6714:6845   */\n      tag_304\n      jump\t// in\n    tag_403:\n        /* \"#utility.yul\":6706:6845   */\n      swap1\n      pop\n        /* \"#utility.yul\":6213:6852   */\n      swap4\n      swap3\n      pop\n      pop\n      pop\n      jump\t// out\n        /* \"#utility.yul\":6858:7052   */\n    tag_153:\n        /* \"#utility.yul\":6898:6902   */\n      0x00\n        /* \"#utility.yul\":6918:6938   */\n      tag_405\n        /* \"#utility.yul\":6936:6937   */\n      dup3\n        /* \"#utility.yul\":6918:6938   */\n      tag_281\n      jump\t// in\n    tag_405:\n        /* \"#utility.yul\":6913:6938   */\n      swap2\n      pop\n        /* \"#utility.yul\":6952:6972   */\n      tag_406\n        /* \"#utility.yul\":6970:6971   */\n      dup4\n        /* \"#utility.yul\":6952:6972   */\n      tag_281\n      jump\t// in\n    tag_406:\n        /* \"#utility.yul\":6947:6972   */\n      swap3\n      pop\n        /* \"#utility.yul\":6996:6997   */\n      dup3\n        /* \"#utility.yul\":6993:6994   */\n      dup3\n        /* \"#utility.yul\":6989:6998   */\n      sub\n        /* \"#utility.yul\":6981:6998   */\n      swap1\n      pop\n        /* \"#utility.yul\":7020:7021   */\n      dup2\n        /* \"#utility.yul\":7014:7018   */\n      dup2\n        /* \"#utility.yul\":7011:7022   */\n      gt\n        /* \"#utility.yul\":7008:7045   */\n      iszero\n      tag_407\n      jumpi\n        /* \"#utility.yul\":7025:7043   */\n      tag_408\n      tag_301\n      jump\t// in\n    tag_408:\n        /* \"#utility.yul\":7008:7045   */\n    tag_407:\n        /* \"#utility.yul\":6858:7052   */\n      swap3\n      swap2\n      pop\n      pop\n      jump\t// out\n        /* \"#utility.yul\":7058:7291   */\n    tag_155:\n        /* \"#utility.yul\":7097:7100   */\n      0x00\n        /* \"#utility.yul\":7120:7144   */\n      tag_410\n        /* \"#utility.yul\":7138:7143   */\n      dup3\n        /* \"#utility.yul\":7120:7144   */\n      tag_281\n      jump\t// in\n    tag_410:\n        /* \"#utility.yul\":7111:7144   */\n      swap2\n      pop\n        /* \"#utility.yul\":7166:7232   */\n      0xffffffffffffffffffffffffffffffffffffffffffffffffffffffffffffffff\n        /* \"#utility.yul\":7159:7164   */\n      dup3\n        /* \"#utility.yul\":7156:7233   */\n      sub\n        /* \"#utility.yul\":7153:7256   */\n      tag_411\n      jumpi\n        /* \"#utility.yul\":7236:7254   */\n      tag_412\n      tag_301\n      jump\t// in\n    tag_412:\n        /* \"#utility.yul\":7153:7256   */\n    tag_411:\n        /* \"#utility.yul\":7283:7284   */\n      0x01\n        /* \"#utility.yul\":7276:7281   */\n      dup3\n        /* \"#utility.yul\":7272:7285   */\n      add\n        /* \"#utility.yul\":7265:7285   */\n      swap1\n      pop\n        /* \"#utility.yul\":7058:7291   */\n      swap2\n      swap1\n      pop\n      jump\t// out\n        /* \"#utility.yul\":7297:7629   */\n    tag_159:\n        /* \"#utility.yul\":7418:7422   */\n      0x00\n        /* \"#utility.yul\":7456:7458   */\n      0x40\n        /* \"#utility.yul\":7445:7454   */\n      dup3\n        /* \"#utility.yul\":7441:7459   */\n      add\n        /* \"#utility.yul\":7433:7459   */\n      swap1\n      pop\n        /* \"#utility.yul\":7469:7540   */\n      tag_414\n        /* \"#utility.yul\":7537:7538   */\n      0x00\n        /* \"#utility.yul\":7526:7535   */\n      dup4\n        /* \"#utility.yul\":7522:7539   */\n      add\n        /* \"#utility.yul\":7513:7519   */\n      dup6\n        /* \"#utility.yul\":7469:7540   */\n      tag_290\n      jump\t// in\n    tag_414:\n        /* \"#utility.yul\":7550:7622   */\n      tag_415\n        /* \"#utility.yul\":7618:7620   */\n      0x20\n        /* \"#utility.yul\":7607:7616   */\n      dup4\n        /* \"#utility.yul\":7603:7621   */\n      add\n        /* \"#utility.yul\":7594:7600   */\n      dup5\n        /* \"#utility.yul\":7550:7622   */\n      tag_282\n      jump\t// in\n    tag_415:\n        /* \"#utility.yul\":7297:7629   */\n      swap4\n      swap3\n      pop\n      pop\n      pop\n      jump\t// out\n        /* \"#utility.yul\":7635:7856   */\n    tag_305:\n        /* \"#utility.yul\":7775:7809   */\n      0x43616e6e6f74207769746864726177206d6f7265207468616e20302e30312045\n        /* \"#utility.yul\":7771:7772   */\n      0x00\n        /* \"#utility.yul\":7763:7769   */\n      dup3\n        /* \"#utility.yul\":7759:7773   */\n      add\n        /* \"#utility.yul\":7752:7810   */\n      mstore\n        /* \"#utility.yul\":7844:7848   */\n      0x5448000000000000000000000000000000000000000000000000000000000000\n        /* \"#utility.yul\":7839:7841   */\n      0x20\n        /* \"#utility.yul\":7831:7837   */\n      dup3\n        /* \"#utility.yul\":7827:7842   */\n      add\n        /* \"#utility.yul\":7820:7849   */\n      mstore\n        /* \"#utility.yul\":7635:7856   */\n      pop\n      jump\t// out\n        /* \"#utility.yul\":7862:8228   */\n    tag_306:\n        /* \"#utility.yul\":8004:8007   */\n      0x00\n        /* \"#utility.yul\":8025:8092   */\n      tag_418\n        /* \"#utility.yul\":8089:8091   */\n      0x22\n        /* \"#utility.yul\":8084:8087   */\n      dup4\n        /* \"#utility.yul\":8025:8092   */\n      tag_302\n      jump\t// in\n    tag_418:\n        /* \"#utility.yul\":8018:8092   */\n      swap2\n      pop\n        /* \"#utility.yul\":8101:8194   */\n      tag_419\n        /* \"#utility.yul\":8190:8193   */\n      dup3\n        /* \"#utility.yul\":8101:8194   */\n      tag_305\n      jump\t// in\n    tag_419:\n        /* \"#utility.yul\":8219:8221   */\n      0x40\n        /* \"#utility.yul\":8214:8217   */\n      dup3\n        /* \"#utility.yul\":8210:8222   */\n      add\n        /* \"#utility.yul\":8203:8222   */\n      swap1\n      pop\n        /* \"#utility.yul\":7862:8228   */\n      swap2\n      swap1\n      pop\n      jump\t// out\n        /* \"#utility.yul\":8234:8873   */\n    tag_169:\n        /* \"#utility.yul\":8456:8460   */\n      0x00\n        /* \"#utility.yul\":8494:8496   */\n      0x60\n        /* \"#utility.yul\":8483:8492   */\n      dup3\n        /* \"#utility.yul\":8479:8497   */\n      add\n        /* \"#utility.yul\":8471:8497   */\n      swap1\n      pop\n        /* \"#utility.yul\":8507:8578   */\n      tag_421\n        /* \"#utility.yul\":8575:8576   */\n      0x00\n        /* \"#utility.yul\":8564:8573   */\n      dup4\n        /* \"#utility.yul\":8560:8577   */\n      add\n        /* \"#utility.yul\":8551:8557   */\n      dup6\n        /* \"#utility.yul\":8507:8578   */\n      tag_282\n      jump\t// in\n    tag_421:\n        /* \"#utility.yul\":8588:8660   */\n      tag_422\n        /* \"#utility.yul\":8656:8658   */\n      0x20\n        /* \"#utility.yul\":8645:8654   */\n      dup4\n        /* \"#utility.yul\":8641:8659   */\n      add\n        /* \"#utility.yul\":8632:8638   */\n      dup5\n        /* \"#utility.yul\":8588:8660   */\n      tag_290\n      jump\t// in\n    tag_422:\n        /* \"#utility.yul\":8707:8716   */\n      dup2\n        /* \"#utility.yul\":8701:8705   */\n      dup2\n        /* \"#utility.yul\":8697:8717   */\n      sub\n        /* \"#utility.yul\":8692:8694   */\n      0x40\n        /* \"#utility.yul\":8681:8690   */\n      dup4\n        /* \"#utility.yul\":8677:8695   */\n      add\n        /* \"#utility.yul\":8670:8718   */\n      mstore\n        /* \"#utility.yul\":8735:8866   */\n      tag_423\n        /* \"#utility.yul\":8861:8865   */\n      dup2\n        /* \"#utility.yul\":8735:8866   */\n      tag_306\n      jump\t// in\n    tag_423:\n        /* \"#utility.yul\":8727:8866   */\n      swap1\n      pop\n        /* \"#utility.yul\":8234:8873   */\n      swap4\n      swap3\n      pop\n      pop\n      pop\n      jump\t// out\n        /* \"#utility.yul\":8879:9026   */\n    tag_307:\n        /* \"#utility.yul\":8980:8991   */\n      0x00\n        /* \"#utility.yul\":9017:9020   */\n      dup2\n        /* \"#utility.yul\":9002:9020   */\n      swap1\n      pop\n        /* \"#utility.yul\":8879:9026   */\n      swap3\n      swap2\n      pop\n      pop\n      jump\t// out\n        /* \"#utility.yul\":9032:9146   */\n    tag_308:\n      pop\n      jump\t// out\n        /* \"#utility.yul\":9152:9550   */\n    tag_309:\n        /* \"#utility.yul\":9311:9314   */\n      0x00\n        /* \"#utility.yul\":9332:9415   */\n      tag_427\n        /* \"#utility.yul\":9413:9414   */\n      0x00\n        /* \"#utility.yul\":9408:9411   */\n      dup4\n        /* \"#utility.yul\":9332:9415   */\n      tag_307\n      jump\t// in\n    tag_427:\n        /* \"#utility.yul\":9325:9415   */\n      swap2\n      pop\n        /* \"#utility.yul\":9424:9517   */\n      tag_428\n        /* \"#utility.yul\":9513:9516   */\n      dup3\n        /* \"#utility.yul\":9424:9517   */\n      tag_308\n      jump\t// in\n    tag_428:\n        /* \"#utility.yul\":9542:9543   */\n      0x00\n        /* \"#utility.yul\":9537:9540   */\n      dup3\n        /* \"#utility.yul\":9533:9544   */\n      add\n        /* \"#utility.yul\":9526:9544   */\n      swap1\n      pop\n        /* \"#utility.yul\":9152:9550   */\n      swap2\n      swap1\n      pop\n      jump\t// out\n        /* \"#utility.yul\":9556:9935   */\n    tag_177:\n        /* \"#utility.yul\":9740:9743   */\n      0x00\n        /* \"#utility.yul\":9762:9909   */\n      tag_430\n        /* \"#utility.yul\":9905:9908   */\n      dup3\n        /* \"#utility.yul\":9762:9909   */\n      tag_309\n      jump\t// in\n    tag_430:\n        /* \"#utility.yul\":9755:9909   */\n      swap2\n      pop\n        /* \"#utility.yul\":9926:9929   */\n      dup2\n        /* \"#utility.yul\":9919:9929   */\n      swap1\n      pop\n        /* \"#utility.yul\":9556:9935   */\n      swap2\n      swap1\n      pop\n      jump\t// out\n        /* \"#utility.yul\":9941:10108   */\n    tag_310:\n        /* \"#utility.yul\":10081:10100   */\n      0x5769746864726177616c206661696c6564000000000000000000000000000000\n        /* \"#utility.yul\":10077:10078   */\n      0x00\n        /* \"#utility.yul\":10069:10075   */\n      dup3\n        /* \"#utility.yul\":10065:10079   */\n      add\n        /* \"#utility.yul\":10058:10101   */\n      mstore\n        /* \"#utility.yul\":9941:10108   */\n      pop\n      jump\t// out\n        /* \"#utility.yul\":10114:10480   */\n    tag_311:\n        /* \"#utility.yul\":10256:10259   */\n      0x00\n        /* \"#utility.yul\":10277:10344   */\n      tag_433\n        /* \"#utility.yul\":10341:10343   */\n      0x11\n        /* \"#utility.yul\":10336:10339   */\n      dup4\n        /* \"#utility.yul\":10277:10344   */\n      tag_302\n      jump\t// in\n    tag_433:\n        /* \"#utility.yul\":10270:10344   */\n      swap2\n      pop\n        /* \"#utility.yul\":10353:10446   */\n      tag_434\n        /* \"#utility.yul\":10442:10445   */\n      dup3\n        /* \"#utility.yul\":10353:10446   */\n      tag_310\n      jump\t// in\n    tag_434:\n        /* \"#utility.yul\":10471:10473   */\n      0x20\n        /* \"#utility.yul\":10466:10469   */\n      dup3\n        /* \"#utility.yul\":10462:10474   */\n      add\n        /* \"#utility.yul\":10455:10474   */\n      swap1\n      pop\n        /* \"#utility.yul\":10114:10480   */\n      swap2\n      swap1\n      pop\n      jump\t// out\n        /* \"#utility.yul\":10486:10905   */\n    tag_183:\n        /* \"#utility.yul\":10652:10656   */\n      0x00\n        /* \"#utility.yul\":10690:10692   */\n      0x20\n        /* \"#utility.yul\":10679:10688   */\n      dup3\n        /* \"#utility.yul\":10675:10693   */\n      add\n        /* \"#utility.yul\":10667:10693   */\n      swap1\n      pop\n        /* \"#utility.yul\":10739:10748   */\n      dup2\n        /* \"#utility.yul\":10733:10737   */\n      dup2\n        /* \"#utility.yul\":10729:10749   */\n      sub\n        /* \"#utility.yul\":10725:10726   */\n      0x00\n        /* \"#utility.yul\":10714:10723   */\n      dup4\n        /* \"#utility.yul\":10710:10727   */\n      add\n        /* \"#utility.yul\":10703:10750   */\n      mstore\n        /* \"#utility.yul\":10767:10898   */\n      tag_436\n        /* \"#utility.yul\":10893:10897   */\n      dup2\n        /* \"#utility.yul\":10767:10898   */\n      tag_311\n      jump\t// in\n    tag_436:\n        /* \"#utility.yul\":10759:10898   */\n      swap1\n      pop\n        /* \"#utility.yul\":10486:10905   */\n      swap2\n      swap1\n      pop\n      jump\t// out\n        /* \"#utility.yul\":10911:11081   */\n    tag_312:\n        /* \"#utility.yul\":11051:11073   */\n      0x476c6f62616c206c696d69742072656163686564000000000000000000000000\n        /* \"#utility.yul\":11047:11048   */\n      0x00\n        /* \"#utility.yul\":11039:11045   */\n      dup3\n        /* \"#utility.yul\":11035:11049   */\n      add\n        /* \"#utility.yul\":11028:11074   */\n      mstore\n        /* \"#utility.yul\":10911:11081   */\n      pop\n      jump\t// out\n        /* \"#utility.yul\":11087:11453   */\n    tag_313:\n        /* \"#utility.yul\":11229:11232   */\n      0x00\n        /* \"#utility.yul\":11250:11317   */\n      tag_439\n        /* \"#utility.yul\":11314:11316   */\n      0x14\n        /* \"#utility.yul\":11309:11312   */\n      dup4\n        /* \"#utility.yul\":11250:11317   */\n      tag_302\n      jump\t// in\n    tag_439:\n        /* \"#utility.yul\":11243:11317   */\n      swap2\n      pop\n        /* \"#utility.yul\":11326:11419   */\n      tag_440\n        /* \"#utility.yul\":11415:11418   */\n      dup3\n        /* \"#utility.yul\":11326:11419   */\n      tag_312\n      jump\t// in\n    tag_440:\n        /* \"#utility.yul\":11444:11446   */\n      0x20\n        /* \"#utility.yul\":11439:11442   */\n      dup3\n        /* \"#utility.yul\":11435:11447   */\n      add\n        /* \"#utility.yul\":11428:11447   */\n      swap1\n      pop\n        /* \"#utility.yul\":11087:11453   */\n      swap2\n      swap1\n      pop\n      jump\t// out\n        /* \"#utility.yul\":11459:11988   */\n    tag_200:\n        /* \"#utility.yul\":11653:11657   */\n      0x00\n        /* \"#utility.yul\":11691:11693   */\n      0x40\n        /* \"#utility.yul\":11680:11689   */\n      dup3\n        /* \"#utility.yul\":11676:11694   */\n      add\n        /* \"#utility.yul\":11668:11694   */\n      swap1\n      pop\n        /* \"#utility.yul\":11704:11775   */\n      tag_442\n        /* \"#utility.yul\":11772:11773   */\n      0x00\n        /* \"#utility.yul\":11761:11770   */\n      dup4\n        /* \"#utility.yul\":11757:11774   */\n      add\n        /* \"#utility.yul\":11748:11754   */\n      dup5\n        /* \"#utility.yul\":11704:11775   */\n      tag_282\n      jump\t// in\n    tag_442:\n        /* \"#utility.yul\":11822:11831   */\n      dup2\n        /* \"#utility.yul\":11816:11820   */\n      dup2\n        /* \"#utility.yul\":11812:11832   */\n      sub\n        /* \"#utility.yul\":11807:11809   */\n      0x20\n        /* \"#utility.yul\":11796:11805   */\n      dup4\n        /* \"#utility.yul\":11792:11810   */\n      add\n        /* \"#utility.yul\":11785:11833   */\n      mstore\n        /* \"#utility.yul\":11850:11981   */\n      tag_443\n        /* \"#utility.yul\":11976:11980   */\n      dup2\n        /* \"#utility.yul\":11850:11981   */\n      tag_313\n      jump\t// in\n    tag_443:\n        /* \"#utility.yul\":11842:11981   */\n      swap1\n      pop\n        /* \"#utility.yul\":11459:11988   */\n      swap3\n      swap2\n      pop\n      pop\n      jump\t// out\n        /* \"#utility.yul\":11994:12156   */\n    tag_314:\n        /* \"#utility.yul\":12134:12148   */\n      0x5a65726f206465706f7369740000000000000000000000000000000000000000\n        /* \"#utility.yul\":12130:12131   */\n      0x00\n        /* \"#utility.yul\":12122:12128   */\n      dup3\n        /* \"#utility.yul\":12118:12132   */\n      add\n        /* \"#utility.yul\":12111:12149   */\n      mstore\n        /* \"#utility.yul\":11994:12156   */\n      pop\n      jump\t// out\n        /* \"#utility.yul\":12162:12528   */\n    tag_315:\n        /* \"#utility.yul\":12304:12307   */\n      0x00\n        /* \"#utility.yul\":12325:12392   */\n      tag_446\n        /* \"#utility.yul\":12389:12391   */\n      0x0c\n        /* \"#utility.yul\":12384:12387   */\n      dup4\n        /* \"#utility.yul\":12325:12392   */\n      tag_302\n      jump\t// in\n    tag_446:\n        /* \"#utility.yul\":12318:12392   */\n      swap2\n      pop\n        /* \"#utility.yul\":12401:12494   */\n      tag_447\n        /* \"#utility.yul\":12490:12493   */\n      dup3\n        /* \"#utility.yul\":12401:12494   */\n      tag_314\n      jump\t// in\n    tag_447:\n        /* \"#utility.yul\":12519:12521   */\n      0x20\n        /* \"#utility.yul\":12514:12517   */\n      dup3\n        /* \"#utility.yul\":12510:12522   */\n      add\n        /* \"#utility.yul\":12503:12522   */\n      swap1\n      pop\n        /* \"#utility.yul\":12162:12528   */\n      swap2\n      swap1\n      pop\n      jump\t// out\n        /* \"#utility.yul\":12534:12953   */\n    tag_209:\n        /* \"#utility.yul\":12700:12704   */\n      0x00\n        /* \"#utility.yul\":12738:12740   */\n      0x20\n        /* \"#utility.yul\":12727:12736   */\n      dup3\n        /* \"#utility.yul\":12723:12741   */\n      add\n        /* \"#utility.yul\":12715:12741   */\n      swap1\n      pop\n        /* \"#utility.yul\":12787:12796   */\n      dup2\n        /* \"#utility.yul\":12781:12785   */\n      dup2\n        /* \"#utility.yul\":12777:12797   */\n      sub\n        /* \"#utility.yul\":12773:12774   */\n      0x00\n        /* \"#utility.yul\":12762:12771   */\n      dup4\n        /* \"#utility.yul\":12758:12775   */\n      add\n        /* \"#utility.yul\":12751:12798   */\n      mstore\n        /* \"#utility.yul\":12815:12946   */\n      tag_449\n        /* \"#utility.yul\":12941:12945   */\n      dup2\n        /* \"#utility.yul\":12815:12946   */\n      tag_315\n      jump\t// in\n    tag_449:\n        /* \"#utility.yul\":12807:12946   */\n      swap1\n      pop\n        /* \"#utility.yul\":12534:12953   */\n      swap2\n      swap1\n      pop\n      jump\t// out\n        /* \"#utility.yul\":12959:13401   */\n    tag_215:\n        /* \"#utility.yul\":13108:13112   */\n      0x00\n        /* \"#utility.yul\":13146:13148   */\n      0x60\n        /* \"#utility.yul\":13135:13144   */\n      dup3\n        /* \"#utility.yul\":13131:13149   */\n      add\n        /* \"#utility.yul\":13123:13149   */\n      swap1\n      pop\n        /* \"#utility.yul\":13159:13230   */\n      tag_451\n        /* \"#utility.yul\":13227:13228   */\n      0x00\n        /* \"#utility.yul\":13216:13225   */\n      dup4\n        /* \"#utility.yul\":13212:13229   */\n      add\n        /* \"#utility.yul\":13203:13209   */\n      dup7\n        /* \"#utility.yul\":13159:13230   */\n      tag_290\n      jump\t// in\n    tag_451:\n        /* \"#utility.yul\":13240:13312   */\n      tag_452\n        /* \"#utility.yul\":13308:13310   */\n      0x20\n        /* \"#utility.yul\":13297:13306   */\n      dup4\n        /* \"#utility.yul\":13293:13311   */\n      add\n        /* \"#utility.yul\":13284:13290   */\n      dup6\n        /* \"#utility.yul\":13240:13312   */\n      tag_290\n      jump\t// in\n    tag_452:\n        /* \"#utility.yul\":13322:13394   */\n      tag_453\n        /* \"#utility.yul\":13390:13392   */\n      0x40\n        /* \"#utility.yul\":13379:13388   */\n      dup4\n        /* \"#utility.yul\":13375:13393   */\n      add\n        /* \"#utility.yul\":13366:13372   */\n      dup5\n        /* \"#utility.yul\":13322:13394   */\n      tag_282\n      jump\t// in\n    tag_453:\n        /* \"#utility.yul\":12959:13401   */\n      swap5\n      swap4\n      pop\n      pop\n      pop\n      pop\n      jump\t// out\n        /* \"#utility.yul\":13407:13817   */\n    tag_241:\n        /* \"#utility.yul\":13447:13454   */\n      0x00\n        /* \"#utility.yul\":13470:13490   */\n      tag_455\n        /* \"#utility.yul\":13488:13489   */\n      dup3\n        /* \"#utility.yul\":13470:13490   */\n      tag_281\n      jump\t// in\n    tag_455:\n        /* \"#utility.yul\":13465:13490   */\n      swap2\n      pop\n        /* \"#utility.yul\":13504:13524   */\n      tag_456\n        /* \"#utility.yul\":13522:13523   */\n      dup4\n        /* \"#utility.yul\":13504:13524   */\n      tag_281\n      jump\t// in\n    tag_456:\n        /* \"#utility.yul\":13499:13524   */\n      swap3\n      pop\n        /* \"#utility.yul\":13559:13560   */\n      dup3\n        /* \"#utility.yul\":13556:13557   */\n      dup3\n        /* \"#utility.yul\":13552:13561   */\n      mul\n        /* \"#utility.yul\":13581:13611   */\n      tag_457\n        /* \"#utility.yul\":13599:13610   */\n      dup2\n        /* \"#utility.yul\":13581:13611   */\n      tag_281\n      jump\t// in\n    tag_457:\n        /* \"#utility.yul\":13570:13611   */\n      swap2\n      pop\n        /* \"#utility.yul\":13760:13761   */\n      dup3\n        /* \"#utility.yul\":13751:13758   */\n      dup3\n        /* \"#utility.yul\":13747:13762   */\n      div\n        /* \"#utility.yul\":13744:13745   */\n      dup5\n        /* \"#utility.yul\":13741:13763   */\n      eq\n        /* \"#utility.yul\":13721:13722   */\n      dup4\n        /* \"#utility.yul\":13714:13723   */\n      iszero\n        /* \"#utility.yul\":13694:13777   */\n      or\n        /* \"#utility.yul\":13671:13810   */\n      tag_458\n      jumpi\n        /* \"#utility.yul\":13790:13808   */\n      tag_459\n      tag_301\n      jump\t// in\n    tag_459:\n        /* \"#utility.yul\":13671:13810   */\n    tag_458:\n        /* \"#utility.yul\":13455:13817   */\n      pop\n        /* \"#utility.yul\":13407:13817   */\n      swap3\n      swap2\n      pop\n      pop\n      jump\t// out\n        /* \"#utility.yul\":13823:14003   */\n    tag_316:\n        /* \"#utility.yul\":13871:13948   */\n      0x4e487b7100000000000000000000000000000000000000000000000000000000\n        /* \"#utility.yul\":13868:13869   */\n      0x00\n        /* \"#utility.yul\":13861:13949   */\n      mstore\n        /* \"#utility.yul\":13968:13972   */\n      0x12\n        /* \"#utility.yul\":13965:13966   */\n      0x04\n        /* \"#utility.yul\":13958:13973   */\n      mstore\n        /* \"#utility.yul\":13992:13996   */\n      0x24\n        /* \"#utility.yul\":13989:13990   */\n      0x00\n        /* \"#utility.yul\":13982:13997   */\n      revert\n        /* \"#utility.yul\":14009:14194   */\n    tag_243:\n        /* \"#utility.yul\":14049:14050   */\n      0x00\n        /* \"#utility.yul\":14066:14086   */\n      tag_462\n        /* \"#utility.yul\":14084:14085   */\n      dup3\n        /* \"#utility.yul\":14066:14086   */\n      tag_281\n      jump\t// in\n    tag_462:\n        /* \"#utility.yul\":14061:14086   */\n      swap2\n      pop\n        /* \"#utility.yul\":14100:14120   */\n      tag_463\n        /* \"#utility.yul\":14118:14119   */\n      dup4\n        /* \"#utility.yul\":14100:14120   */\n      tag_281\n      jump\t// in\n    tag_463:\n        /* \"#utility.yul\":14095:14120   */\n      swap3\n      pop\n        /* \"#utility.yul\":14139:14140   */\n      dup3\n        /* \"#utility.yul\":14129:14164   */\n      tag_464\n      jumpi\n        /* \"#utility.yul\":14144:14162   */\n      tag_465\n      tag_316\n      jump\t// in\n    tag_465:\n        /* \"#utility.yul\":14129:14164   */\n    tag_464:\n        /* \"#utility.yul\":14186:14187   */\n      dup3\n        /* \"#utility.yul\":14183:14184   */\n      dup3\n        /* \"#utility.yul\":14179:14188   */\n      div\n        /* \"#utility.yul\":14174:14188   */\n      swap1\n      pop\n        /* \"#utility.yul\":14009:14194   */\n      swap3\n      swap2\n      pop\n      pop\n      jump\t// out\n        /* \"#utility.yul\":14200:14381   */\n    tag_317:\n        /* \"#utility.yul\":14340:14373   */\n      0x5265656e7472616e637947756172643a207265656e7472616e742063616c6c00\n        /* \"#utility.yul\":14336:14337   */\n      0x00\n        /* \"#utility.yul\":14328:14334   */\n      dup3\n        /* \"#utility.yul\":14324:14338   */\n      add\n        /* \"#utility.yul\":14317:14374   */\n      mstore\n        /* \"#utility.yul\":14200:14381   */\n      pop\n      jump\t// out\n        /* \"#utility.yul\":14387:14753   */\n    tag_318:\n        /* \"#utility.yul\":14529:14532   */\n      0x00\n        /* \"#utility.yul\":14550:14617   */\n      tag_468\n        /* \"#utility.yul\":14614:14616   */\n      0x1f\n        /* \"#utility.yul\":14609:14612   */\n      dup4\n        /* \"#utility.yul\":14550:14617   */\n      tag_302\n      jump\t// in\n    tag_468:\n        /* \"#utility.yul\":14543:14617   */\n      swap2\n      pop\n        /* \"#utility.yul\":14626:14719   */\n      tag_469\n        /* \"#utility.yul\":14715:14718   */\n      dup3\n        /* \"#utility.yul\":14626:14719   */\n      tag_317\n      jump\t// in\n    tag_469:\n        /* \"#utility.yul\":14744:14746   */\n      0x20\n        /* \"#utility.yul\":14739:14742   */\n      dup3\n        /* \"#utility.yul\":14735:14747   */\n      add\n        /* \"#utility.yul\":14728:14747   */\n      swap1\n      pop\n        /* \"#utility.yul\":14387:14753   */\n      swap2\n      swap1\n      pop\n      jump\t// out\n        /* \"#utility.yul\":14759:15178   */\n    tag_255:\n        /* \"#utility.yul\":14925:14929   */\n      0x00\n        /* \"#utility.yul\":14963:14965   */\n      0x20\n        /* \"#utility.yul\":14952:14961   */\n      dup3\n        /* \"#utility.yul\":14948:14966   */\n      add\n        /* \"#utility.yul\":14940:14966   */\n      swap1\n      pop\n        /* \"#utility.yul\":15012:15021   */\n      dup2\n        /* \"#utility.yul\":15006:15010   */\n      dup2\n        /* \"#utility.yul\":15002:15022   */\n      sub\n        /* \"#utility.yul\":14998:14999   */\n      0x00\n        /* \"#utility.yul\":14987:14996   */\n      dup4\n        /* \"#utility.yul\":14983:15000   */\n      add\n        /* \"#utility.yul\":14976:15023   */\n      mstore\n        /* \"#utility.yul\":15040:15171   */\n      tag_471\n        /* \"#utility.yul\":15166:15170   */\n      dup2\n        /* \"#utility.yul\":15040:15171   */\n      tag_318\n      jump\t// in\n    tag_471:\n        /* \"#utility.yul\":15032:15171   */\n      swap1\n      pop\n        /* \"#utility.yul\":14759:15178   */\n      swap2\n      swap1\n      pop\n      jump\t// out\n        /* \"#utility.yul\":15184:15289   */\n    tag_319:\n        /* \"#utility.yul\":15220:15227   */\n      0x00\n        /* \"#utility.yul\":15260:15282   */\n      0xffffffffffffffffffff\n        /* \"#utility.yul\":15253:15258   */\n      dup3\n        /* \"#utility.yul\":15249:15283   */\n      and\n        /* \"#utility.yul\":15238:15283   */\n      swap1\n      pop\n        /* \"#utility.yul\":15184:15289   */\n      swap2\n      swap1\n      pop\n      jump\t// out\n        /* \"#utility.yul\":15295:15415   */\n    tag_320:\n        /* \"#utility.yul\":15367:15390   */\n      tag_474\n        /* \"#utility.yul\":15384:15389   */\n      dup2\n        /* \"#utility.yul\":15367:15390   */\n      tag_319\n      jump\t// in\n    tag_474:\n        /* \"#utility.yul\":15360:15365   */\n      dup2\n        /* \"#utility.yul\":15357:15391   */\n      eq\n        /* \"#utility.yul\":15347:15409   */\n      tag_475\n      jumpi\n        /* \"#utility.yul\":15405:15406   */\n      0x00\n        /* \"#utility.yul\":15402:15403   */\n      0x00\n        /* \"#utility.yul\":15395:15407   */\n      revert\n        /* \"#utility.yul\":15347:15409   */\n    tag_475:\n        /* \"#utility.yul\":15295:15415   */\n      pop\n      jump\t// out\n        /* \"#utility.yul\":15421:15562   */\n    tag_321:\n        /* \"#utility.yul\":15477:15482   */\n      0x00\n        /* \"#utility.yul\":15508:15514   */\n      dup2\n        /* \"#utility.yul\":15502:15515   */\n      mload\n        /* \"#utility.yul\":15493:15515   */\n      swap1\n      pop\n        /* \"#utility.yul\":15524:15556   */\n      tag_477\n        /* \"#utility.yul\":15550:15555   */\n      dup2\n        /* \"#utility.yul\":15524:15556   */\n      tag_320\n      jump\t// in\n    tag_477:\n        /* \"#utility.yul\":15421:15562   */\n      swap3\n      swap2\n      pop\n      pop\n      jump\t// out\n        /* \"#utility.yul\":15568:15644   */\n    tag_322:\n        /* \"#utility.yul\":15604:15611   */\n      0x00\n        /* \"#utility.yul\":15633:15638   */\n      dup2\n        /* \"#utility.yul\":15622:15638   */\n      swap1\n      pop\n        /* \"#utility.yul\":15568:15644   */\n      swap2\n      swap1\n      pop\n      jump\t// out\n        /* \"#utility.yul\":15650:15770   */\n    tag_323:\n        /* \"#utility.yul\":15722:15745   */\n      tag_480\n        /* \"#utility.yul\":15739:15744   */\n      dup2\n        /* \"#utility.yul\":15722:15745   */\n      tag_322\n      jump\t// in\n    tag_480:\n        /* \"#utility.yul\":15715:15720   */\n      dup2\n        /* \"#utility.yul\":15712:15746   */\n      eq\n        /* \"#utility.yul\":15702:15764   */\n      tag_481\n      jumpi\n        /* \"#utility.yul\":15760:15761   */\n      0x00\n        /* \"#utility.yul\":15757:15758   */\n      0x00\n        /* \"#utility.yul\":15750:15762   */\n      revert\n        /* \"#utility.yul\":15702:15764   */\n    tag_481:\n        /* \"#utility.yul\":15650:15770   */\n      pop\n      jump\t// out\n        /* \"#utility.yul\":15776:15917   */\n    tag_324:\n        /* \"#utility.yul\":15832:15837   */\n      0x00\n        /* \"#utility.yul\":15863:15869   */\n      dup2\n        /* \"#utility.yul\":15857:15870   */\n      mload\n        /* \"#utility.yul\":15848:15870   */\n      swap1\n      pop\n        /* \"#utility.yul\":15879:15911   */\n      tag_483\n        /* \"#utility.yul\":15905:15910   */\n      dup2\n        /* \"#utility.yul\":15879:15911   */\n      tag_323\n      jump\t// in\n    tag_483:\n        /* \"#utility.yul\":15776:15917   */\n      swap3\n      swap2\n      pop\n      pop\n      jump\t// out\n        /* \"#utility.yul\":15923:16894   */\n    tag_270:\n        /* \"#utility.yul\":16026:16032   */\n      0x00\n        /* \"#utility.yul\":16034:16040   */\n      0x00\n        /* \"#utility.yul\":16042:16048   */\n      0x00\n        /* \"#utility.yul\":16050:16056   */\n      0x00\n        /* \"#utility.yul\":16058:16064   */\n      0x00\n        /* \"#utility.yul\":16107:16110   */\n      0xa0\n        /* \"#utility.yul\":16095:16104   */\n      dup7\n        /* \"#utility.yul\":16086:16093   */\n      dup9\n        /* \"#utility.yul\":16082:16105   */\n      sub\n        /* \"#utility.yul\":16078:16111   */\n      slt\n        /* \"#utility.yul\":16075:16195   */\n      iszero\n      tag_485\n      jumpi\n        /* \"#utility.yul\":16114:16193   */\n      tag_486\n      tag_284\n      jump\t// in\n    tag_486:\n        /* \"#utility.yul\":16075:16195   */\n    tag_485:\n        /* \"#utility.yul\":16234:16235   */\n      0x00\n        /* \"#utility.yul\":16259:16322   */\n      tag_487\n        /* \"#utility.yul\":16314:16321   */\n      dup9\n        /* \"#utility.yul\":16305:16311   */\n      dup3\n        /* \"#utility.yul\":16294:16303   */\n      dup10\n        /* \"#utility.yul\":16290:16312   */\n      add\n        /* \"#utility.yul\":16259:16322   */\n      tag_321\n      jump\t// in\n    tag_487:\n        /* \"#utility.yul\":16249:16322   */\n      swap6\n      pop\n        /* \"#utility.yul\":16205:16332   */\n      pop\n        /* \"#utility.yul\":16371:16373   */\n      0x20\n        /* \"#utility.yul\":16397:16460   */\n      tag_488\n        /* \"#utility.yul\":16452:16459   */\n      dup9\n        /* \"#utility.yul\":16443:16449   */\n      dup3\n        /* \"#utility.yul\":16432:16441   */\n      dup10\n        /* \"#utility.yul\":16428:16450   */\n      add\n        /* \"#utility.yul\":16397:16460   */\n      tag_324\n      jump\t// in\n    tag_488:\n        /* \"#utility.yul\":16387:16460   */\n      swap5\n      pop\n        /* \"#utility.yul\":16342:16470   */\n      pop\n        /* \"#utility.yul\":16509:16511   */\n      0x40\n        /* \"#utility.yul\":16535:16599   */\n      tag_489\n        /* \"#utility.yul\":16591:16598   */\n      dup9\n        /* \"#utility.yul\":16582:16588   */\n      dup3\n        /* \"#utility.yul\":16571:16580   */\n      dup10\n        /* \"#utility.yul\":16567:16589   */\n      add\n        /* \"#utility.yul\":16535:16599   */\n      tag_300\n      jump\t// in\n    tag_489:\n        /* \"#utility.yul\":16525:16599   */\n      swap4\n      pop\n        /* \"#utility.yul\":16480:16609   */\n      pop\n        /* \"#utility.yul\":16648:16650   */\n      0x60\n        /* \"#utility.yul\":16674:16738   */\n      tag_490\n        /* \"#utility.yul\":16730:16737   */\n      dup9\n        /* \"#utility.yul\":16721:16727   */\n      dup3\n        /* \"#utility.yul\":16710:16719   */\n      dup10\n        /* \"#utility.yul\":16706:16728   */\n      add\n        /* \"#utility.yul\":16674:16738   */\n      tag_300\n      jump\t// in\n    tag_490:\n        /* \"#utility.yul\":16664:16738   */\n      swap3\n      pop\n        /* \"#utility.yul\":16619:16748   */\n      pop\n        /* \"#utility.yul\":16787:16790   */\n      0x80\n        /* \"#utility.yul\":16814:16877   */\n      tag_491\n        /* \"#utility.yul\":16869:16876   */\n      dup9\n        /* \"#utility.yul\":16860:16866   */\n      dup3\n        /* \"#utility.yul\":16849:16858   */\n      dup10\n        /* \"#utility.yul\":16845:16867   */\n      add\n        /* \"#utility.yul\":16814:16877   */\n      tag_321\n      jump\t// in\n    tag_491:\n        /* \"#utility.yul\":16804:16877   */\n      swap2\n      pop\n        /* \"#utility.yul\":16758:16887   */\n      pop\n        /* \"#utility.yul\":15923:16894   */\n      swap3\n      swap6\n      pop\n      swap3\n      swap6\n      swap1\n      swap4\n      pop\n      jump\t// out\n\n    auxdata: 0xa2646970667358221220dd68a378efbd5b40385c2790ad532137a67607c7083100fc38fea5f37c7f974b64736f6c634300081e0033\n}\n",
				"bytecode": {
					"linkReferences": {},
					"object": "60a060405234801561000f575f5ffd5b5060405161228538038061228583398181016040528101906100319190610297565b805f73ffffffffffffffffffffffffffffffffffffffff168173ffffffffffffffffffffffffffffffffffffffff16036100a2575f6040517f1e4fbdf7000000000000000000000000000000000000000000000000000000008152600401610099919061031d565b60405180910390fd5b6100b18161014560201b60201c565b50600180819055508260035f6101000a81548173ffffffffffffffffffffffffffffffffffffffff021916908373ffffffffffffffffffffffffffffffffffffffff1602179055508173ffffffffffffffffffffffffffffffffffffffff1660808173ffffffffffffffffffffffffffffffffffffffff168152505084600681905550836004819055505050505050610336565b5f5f5f9054906101000a900473ffffffffffffffffffffffffffffffffffffffff169050815f5f6101000a81548173ffffffffffffffffffffffffffffffffffffffff021916908373ffffffffffffffffffffffffffffffffffffffff1602179055508173ffffffffffffffffffffffffffffffffffffffff168173ffffffffffffffffffffffffffffffffffffffff167f8be0079c531659141344cd1fd0a4f28419497f9722a3daafe3b4186f6b6457e060405160405180910390a35050565b5f5ffd5b5f819050919050565b61021c8161020a565b8114610226575f5ffd5b50565b5f8151905061023781610213565b92915050565b5f73ffffffffffffffffffffffffffffffffffffffff82169050919050565b5f6102668261023d565b9050919050565b6102768161025c565b8114610280575f5ffd5b50565b5f815190506102918161026d565b92915050565b5f5f5f5f5f60a086880312156102b0576102af610206565b5b5f6102bd88828901610229565b95505060206102ce88828901610229565b94505060406102df88828901610283565b93505060606102f088828901610283565b925050608061030188828901610283565b9150509295509295909350565b6103178161025c565b82525050565b5f6020820190506103305f83018461030e565b92915050565b608051611eff6103865f395f81816104af015281816106360152818161075601528181610835015281816108c001528181611068015281816110dd0152818161114501526111b00152611eff5ff3fe608060405260043610610129575f3560e01c8063a1eaa644116100aa578063f14210a61161006e578063f14210a6146103bd578063f2fde38b146103e5578063f6326fb31461040d578063f688bcfb14610417578063fc4577921461043f578063ff40e1d01461046957610129565b8063a1eaa644146102cb578063bdc8144b14610307578063cac2e25f1461032f578063db81f99b14610359578063dcd725a71461038157610129565b80637adbf973116100f15780637adbf973146101eb5780638c8bdae9146102135780638da5cb5b1461024f5780638eddc8f914610279578063a00cad48146102a157610129565b8063161235241461012d57806352963c2b146101575780636bec1ed014610181578063715018a6146101ab57806378234a3b146101c1575b5f5ffd5b348015610138575f5ffd5b50610141610493565b60405161014e9190611696565b60405180910390f35b348015610162575f5ffd5b5061016b610499565b6040516101789190611696565b60405180910390f35b34801561018c575f5ffd5b5061019561049f565b6040516101a29190611696565b60405180910390f35b3480156101b6575f5ffd5b506101bf61055a565b005b3480156101cc575f5ffd5b506101d561056d565b6040516101e29190611696565b60405180910390f35b3480156101f6575f5ffd5b50610211600480360381019061020c919061170d565b610573565b005b34801561021e575f5ffd5b506102396004803603810190610234919061170d565b6105f5565b6040516102469190611696565b60405180910390f35b34801561025a575f5ffd5b50610263610696565b6040516102709190611747565b60405180910390f35b348015610284575f5ffd5b5061029f600480360381019061029a919061178a565b6106bd565b005b3480156102ac575f5ffd5b506102b56106cf565b6040516102c29190611696565b60405180910390f35b3480156102d6575f5ffd5b506102f160048036038101906102ec91906117b5565b6106d5565b6040516102fe9190611696565b60405180910390f35b348015610312575f5ffd5b5061032d6004803603810190610328919061178a565b6106f5565b005b34801561033a575f5ffd5b50610343610707565b6040516103509190611696565b60405180910390f35b348015610364575f5ffd5b5061037f600480360381019061037a919061178a565b61070d565b005b34801561038c575f5ffd5b506103a760048036038101906103a2919061170d565b610948565b6040516103b49190611696565b60405180910390f35b3480156103c8575f5ffd5b506103e360048036038101906103de919061178a565b6109d1565b005b3480156103f0575f5ffd5b5061040b6004803603810190610406919061170d565b610c7a565b005b610415610cfe565b005b348015610422575f5ffd5b5061043d6004803603810190610438919061178a565b610f0b565b005b34801561044a575f5ffd5b50610453611189565b604051610460919061184e565b60405180910390f35b348015610474575f5ffd5b5061047d6111ae565b60405161048a9190611887565b60405180910390f35b60065481565b60055481565b5f5f6104aa476111d2565b90505f7f000000000000000000000000000000000000000000000000000000000000000073ffffffffffffffffffffffffffffffffffffffff166370a08231306040518263ffffffff1660e01b81526004016105069190611747565b602060405180830381865afa158015610521573d5f5f3e3d5ffd5b505050506040513d601f19601f8201168201806040525081019061054591906118b4565b90508082610553919061190c565b9250505090565b610562611201565b61056b5f611288565b565b60075481565b61057b611201565b8060035f6101000a81548173ffffffffffffffffffffffffffffffffffffffff021916908373ffffffffffffffffffffffffffffffffffffffff1602179055507f3df77beb5db05fcdd70a30fc8adf3f83f9501b68579455adbd100b8180940394816040516105ea9190611747565b60405180910390a150565b5f60025f8373ffffffffffffffffffffffffffffffffffffffff1673ffffffffffffffffffffffffffffffffffffffff1681526020019081526020015f205f7f000000000000000000000000000000000000000000000000000000000000000073ffffffffffffffffffffffffffffffffffffffff1673ffffffffffffffffffffffffffffffffffffffff1681526020019081526020015f20549050919050565b5f5f5f9054906101000a900473ffffffffffffffffffffffffffffffffffffffff16905090565b6106c5611201565b8060068190555050565b60045481565b6002602052815f5260405f20602052805f5260405f205f91509150505481565b6106fd611201565b8060048190555050565b60085481565b610715611349565b8060025f3373ffffffffffffffffffffffffffffffffffffffff1673ffffffffffffffffffffffffffffffffffffffff1681526020019081526020015f205f7f000000000000000000000000000000000000000000000000000000000000000073ffffffffffffffffffffffffffffffffffffffff1673ffffffffffffffffffffffffffffffffffffffff1681526020019081526020015f205410156107f45780336040517f7c4f8b5d0000000000000000000000000000000000000000000000000000000081526004016107eb929190611999565b60405180910390fd5b8060025f3373ffffffffffffffffffffffffffffffffffffffff1673ffffffffffffffffffffffffffffffffffffffff1681526020019081526020015f205f7f000000000000000000000000000000000000000000000000000000000000000073ffffffffffffffffffffffffffffffffffffffff1673ffffffffffffffffffffffffffffffffffffffff1681526020019081526020015f205f82825461089b91906119d3565b9250508190555060075f8154809291906108b490611a06565b919050555061090433827f000000000000000000000000000000000000000000000000000000000000000073ffffffffffffffffffffffffffffffffffffffff166113989092919063ffffffff16565b7f3f8f630c8b146486a33afc98f55bd1fdd5d4717deab161c649b6fe758d8772893382604051610935929190611a4d565b60405180910390a1610945611417565b50565b5f6109ca60025f8473ffffffffffffffffffffffffffffffffffffffff1673ffffffffffffffffffffffffffffffffffffffff1681526020019081526020015f205f5f73ffffffffffffffffffffffffffffffffffffffff1673ffffffffffffffffffffffffffffffffffffffff1681526020019081526020015f20546111d2565b9050919050565b6109d9611349565b80662386f26fc10000811115610a285780336040517f2183cae3000000000000000000000000000000000000000000000000000000008152600401610a1f929190611ae4565b60405180910390fd5b8060025f3373ffffffffffffffffffffffffffffffffffffffff1673ffffffffffffffffffffffffffffffffffffffff1681526020019081526020015f205f5f73ffffffffffffffffffffffffffffffffffffffff1673ffffffffffffffffffffffffffffffffffffffff1681526020019081526020015f20541015610ae75780336040517f7c4f8b5d000000000000000000000000000000000000000000000000000000008152600401610ade929190611999565b60405180910390fd5b8160025f3373ffffffffffffffffffffffffffffffffffffffff1673ffffffffffffffffffffffffffffffffffffffff1681526020019081526020015f205f5f73ffffffffffffffffffffffffffffffffffffffff1673ffffffffffffffffffffffffffffffffffffffff1681526020019081526020015f205f828254610b6e91906119d3565b9250508190555060075f815480929190610b8790611a06565b91905055505f3373ffffffffffffffffffffffffffffffffffffffff1683604051610bb190611b4b565b5f6040518083038185875af1925050503d805f8114610beb576040519150601f19603f3d011682016040523d82523d5f602084013e610bf0565b606091505b5050905080610c34576040517f08c379a0000000000000000000000000000000000000000000000000000000008152600401610c2b90611ba9565b60405180910390fd5b7f3f8f630c8b146486a33afc98f55bd1fdd5d4717deab161c649b6fe758d8772893384604051610c65929190611a4d565b60405180910390a15050610c77611417565b50565b610c82611201565b5f73ffffffffffffffffffffffffffffffffffffffff168173ffffffffffffffffffffffffffffffffffffffff1603610cf2575f6040517f1e4fbdf7000000000000000000000000000000000000000000000000000000008152600401610ce99190611747565b60405180910390fd5b610cfb81611288565b50565b610d06611349565b610d0f346111d2565b610d1881611420565b15610d5a57806040517fa04dceba000000000000000000000000000000000000000000000000000000008152600401610d519190611c11565b60405180910390fd5b610d63346111d2565b60065481600554610d74919061190c565b1115610db9576006546040517f430b43df000000000000000000000000000000000000000000000000000000008152600401610db09190611696565b60405180910390fd5b5f3411610dfb576040517f08c379a0000000000000000000000000000000000000000000000000000000008152600401610df290611c87565b60405180910390fd5b5f610e05346111d2565b905060085f815480929190610e1990611a06565b91905055508060055f828254610e2f919061190c565b925050819055503460025f3373ffffffffffffffffffffffffffffffffffffffff1673ffffffffffffffffffffffffffffffffffffffff1681526020019081526020015f205f5f73ffffffffffffffffffffffffffffffffffffffff1673ffffffffffffffffffffffffffffffffffffffff1681526020019081526020015f205f828254610ebd919061190c565b925050819055507ee03f32ae5dcdd1e3d7d441be59e1650006aeb02c24faa7ef36785183d5c505335f34604051610ef693929190611ca5565b60405180910390a1505050610f09611417565b565b610f13611349565b80610f1d81611420565b15610f5f57806040517fa04dceba000000000000000000000000000000000000000000000000000000008152600401610f569190611c11565b60405180910390fd5b8160065481600554610f71919061190c565b1115610fb6576006546040517f430b43df000000000000000000000000000000000000000000000000000000008152600401610fad9190611696565b60405180910390fd5b5f8311610ff8576040517f08c379a0000000000000000000000000000000000000000000000000000000008152600401610fef90611c87565b60405180910390fd5b60085f81548092919061100a90611a06565b91905055508260055f828254611020919061190c565b925050819055508260025f3373ffffffffffffffffffffffffffffffffffffffff1673ffffffffffffffffffffffffffffffffffffffff1681526020019081526020015f205f7f000000000000000000000000000000000000000000000000000000000000000073ffffffffffffffffffffffffffffffffffffffff1673ffffffffffffffffffffffffffffffffffffffff1681526020019081526020015f205f8282546110ce919061190c565b925050819055506111223330857f000000000000000000000000000000000000000000000000000000000000000073ffffffffffffffffffffffffffffffffffffffff1661143a909392919063ffffffff16565b7ee03f32ae5dcdd1e3d7d441be59e1650006aeb02c24faa7ef36785183d5c505337f00000000000000000000000000000000000000000000000000000000000000008560405161117493929190611ca5565b60405180910390a15050611186611417565b50565b60035f9054906101000a900473ffffffffffffffffffffffffffffffffffffffff1681565b7f000000000000000000000000000000000000000000000000000000000000000081565b5f68056bc75e2d631000006111e56114bc565b836111f09190611cda565b6111fa9190611d48565b9050919050565b6112096115dc565b73ffffffffffffffffffffffffffffffffffffffff16611227610696565b73ffffffffffffffffffffffffffffffffffffffff16146112865761124a6115dc565b6040517f118cdaa700000000000000000000000000000000000000000000000000000000815260040161127d9190611747565b60405180910390fd5b565b5f5f5f9054906101000a900473ffffffffffffffffffffffffffffffffffffffff169050815f5f6101000a81548173ffffffffffffffffffffffffffffffffffffffff021916908373ffffffffffffffffffffffffffffffffffffffff1602179055508173ffffffffffffffffffffffffffffffffffffffff168173ffffffffffffffffffffffffffffffffffffffff167f8be0079c531659141344cd1fd0a4f28419497f9722a3daafe3b4186f6b6457e060405160405180910390a35050565b60026001540361138e576040517f08c379a000000000000000000000000000000000000000000000000000000000815260040161138590611dc2565b60405180910390fd5b6002600181905550565b611412838473ffffffffffffffffffffffffffffffffffffffff1663a9059cbb85856040516024016113cb929190611a4d565b604051602081830303815290604052915060e01b6020820180517bffffffffffffffffffffffffffffffffffffffffffffffffffffffff83818316178352505050506115e3565b505050565b60018081905550565b5f60045482600554611432919061190c565b119050919050565b6114b6848573ffffffffffffffffffffffffffffffffffffffff166323b872dd86868660405160240161146f93929190611ca5565b604051602081830303815290604052915060e01b6020820180517bffffffffffffffffffffffffffffffffffffffffffffffffffffffff83818316178352505050506115e3565b50505050565b5f5f5f60035f9054906101000a900473ffffffffffffffffffffffffffffffffffffffff1673ffffffffffffffffffffffffffffffffffffffff1663feaf968c6040518163ffffffff1660e01b815260040160a060405180830381865afa158015611529573d5f5f3e3d5ffd5b505050506040513d601f19601f8201168201806040525081019061154d9190611e52565b509350509250505f820361158d576040517f144c1d9500000000000000000000000000000000000000000000000000000000815260040160405180910390fd5b610e10814261159c91906119d3565b11156115d4576040517f0b3126e600000000000000000000000000000000000000000000000000000000815260040160405180910390fd5b819250505090565b5f33905090565b5f5f60205f8451602086015f885af180611602576040513d5f823e3d81fd5b3d92505f519150505f821461161b576001811415611636565b5f8473ffffffffffffffffffffffffffffffffffffffff163b145b1561167857836040517f5274afe700000000000000000000000000000000000000000000000000000000815260040161166f9190611747565b60405180910390fd5b50505050565b5f819050919050565b6116908161167e565b82525050565b5f6020820190506116a95f830184611687565b92915050565b5f5ffd5b5f73ffffffffffffffffffffffffffffffffffffffff82169050919050565b5f6116dc826116b3565b9050919050565b6116ec816116d2565b81146116f6575f5ffd5b50565b5f81359050611707816116e3565b92915050565b5f60208284031215611722576117216116af565b5b5f61172f848285016116f9565b91505092915050565b611741816116d2565b82525050565b5f60208201905061175a5f830184611738565b92915050565b6117698161167e565b8114611773575f5ffd5b50565b5f8135905061178481611760565b92915050565b5f6020828403121561179f5761179e6116af565b5b5f6117ac84828501611776565b91505092915050565b5f5f604083850312156117cb576117ca6116af565b5b5f6117d8858286016116f9565b92505060206117e9858286016116f9565b9150509250929050565b5f819050919050565b5f61181661181161180c846116b3565b6117f3565b6116b3565b9050919050565b5f611827826117fc565b9050919050565b5f6118388261181d565b9050919050565b6118488161182e565b82525050565b5f6020820190506118615f83018461183f565b92915050565b5f6118718261181d565b9050919050565b61188181611867565b82525050565b5f60208201905061189a5f830184611878565b92915050565b5f815190506118ae81611760565b92915050565b5f602082840312156118c9576118c86116af565b5b5f6118d6848285016118a0565b91505092915050565b7f4e487b71000000000000000000000000000000000000000000000000000000005f52601160045260245ffd5b5f6119168261167e565b91506119218361167e565b9250828201905080821115611939576119386118df565b5b92915050565b5f82825260208201905092915050565b7f496e73756666696369656e742062616c616e63650000000000000000000000005f82015250565b5f61198360148361193f565b915061198e8261194f565b602082019050919050565b5f6060820190506119ac5f830185611687565b6119b96020830184611738565b81810360408301526119ca81611977565b90509392505050565b5f6119dd8261167e565b91506119e88361167e565b9250828203905081811115611a00576119ff6118df565b5b92915050565b5f611a108261167e565b91507fffffffffffffffffffffffffffffffffffffffffffffffffffffffffffffffff8203611a4257611a416118df565b5b600182019050919050565b5f604082019050611a605f830185611738565b611a6d6020830184611687565b9392505050565b7f43616e6e6f74207769746864726177206d6f7265207468616e20302e303120455f8201527f5448000000000000000000000000000000000000000000000000000000000000602082015250565b5f611ace60228361193f565b9150611ad982611a74565b604082019050919050565b5f606082019050611af75f830185611687565b611b046020830184611738565b8181036040830152611b1581611ac2565b90509392505050565b5f81905092915050565b50565b5f611b365f83611b1e565b9150611b4182611b28565b5f82019050919050565b5f611b5582611b2b565b9150819050919050565b7f5769746864726177616c206661696c65640000000000000000000000000000005f82015250565b5f611b9360118361193f565b9150611b9e82611b5f565b602082019050919050565b5f6020820190508181035f830152611bc081611b87565b9050919050565b7f476c6f62616c206c696d697420726561636865640000000000000000000000005f82015250565b5f611bfb60148361193f565b9150611c0682611bc7565b602082019050919050565b5f604082019050611c245f830184611687565b8181036020830152611c3581611bef565b905092915050565b7f5a65726f206465706f73697400000000000000000000000000000000000000005f82015250565b5f611c71600c8361193f565b9150611c7c82611c3d565b602082019050919050565b5f6020820190508181035f830152611c9e81611c65565b9050919050565b5f606082019050611cb85f830186611738565b611cc56020830185611738565b611cd26040830184611687565b949350505050565b5f611ce48261167e565b9150611cef8361167e565b9250828202611cfd8161167e565b91508282048414831517611d1457611d136118df565b5b5092915050565b7f4e487b71000000000000000000000000000000000000000000000000000000005f52601260045260245ffd5b5f611d528261167e565b9150611d5d8361167e565b925082611d6d57611d6c611d1b565b5b828204905092915050565b7f5265656e7472616e637947756172643a207265656e7472616e742063616c6c005f82015250565b5f611dac601f8361193f565b9150611db782611d78565b602082019050919050565b5f6020820190508181035f830152611dd981611da0565b9050919050565b5f69ffffffffffffffffffff82169050919050565b611dfe81611de0565b8114611e08575f5ffd5b50565b5f81519050611e1981611df5565b92915050565b5f819050919050565b611e3181611e1f565b8114611e3b575f5ffd5b50565b5f81519050611e4c81611e28565b92915050565b5f5f5f5f5f60a08688031215611e6b57611e6a6116af565b5b5f611e7888828901611e0b565b9550506020611e8988828901611e3e565b9450506040611e9a888289016118a0565b9350506060611eab888289016118a0565b9250506080611ebc88828901611e0b565b915050929550929590935056fea2646970667358221220dd68a378efbd5b40385c2790ad532137a67607c7083100fc38fea5f37c7f974b64736f6c634300081e0033",
					"opcodes": "PUSH1 0xA0 PUSH1 0x40 MSTORE CALLVALUE DUP1 ISZERO PUSH2 0xF JUMPI PUSH0 PUSH0 REVERT JUMPDEST POP PUSH1 0x40 MLOAD PUSH2 0x2285 CODESIZE SUB DUP1 PUSH2 0x2285 DUP4 CODECOPY DUP2 DUP2 ADD PUSH1 0x40 MSTORE DUP2 ADD SWAP1 PUSH2 0x31 SWAP2 SWAP1 PUSH2 0x297 JUMP JUMPDEST DUP1 PUSH0 PUSH20 0xFFFFFFFFFFFFFFFFFFFFFFFFFFFFFFFFFFFFFFFF AND DUP2 PUSH20 0xFFFFFFFFFFFFFFFFFFFFFFFFFFFFFFFFFFFFFFFF AND SUB PUSH2 0xA2 JUMPI PUSH0 PUSH1 0x40 MLOAD PUSH32 0x1E4FBDF700000000000000000000000000000000000000000000000000000000 DUP2 MSTORE PUSH1 0x4 ADD PUSH2 0x99 SWAP2 SWAP1 PUSH2 0x31D JUMP JUMPDEST PUSH1 0x40 MLOAD DUP1 SWAP2 SUB SWAP1 REVERT JUMPDEST PUSH2 0xB1 DUP2 PUSH2 0x145 PUSH1 0x20 SHL PUSH1 0x20 SHR JUMP JUMPDEST POP PUSH1 0x1 DUP1 DUP2 SWAP1 SSTORE POP DUP3 PUSH1 0x3 PUSH0 PUSH2 0x100 EXP DUP2 SLOAD DUP2 PUSH20 0xFFFFFFFFFFFFFFFFFFFFFFFFFFFFFFFFFFFFFFFF MUL NOT AND SWAP1 DUP4 PUSH20 0xFFFFFFFFFFFFFFFFFFFFFFFFFFFFFFFFFFFFFFFF AND MUL OR SWAP1 SSTORE POP DUP2 PUSH20 0xFFFFFFFFFFFFFFFFFFFFFFFFFFFFFFFFFFFFFFFF AND PUSH1 0x80 DUP2 PUSH20 0xFFFFFFFFFFFFFFFFFFFFFFFFFFFFFFFFFFFFFFFF AND DUP2 MSTORE POP POP DUP5 PUSH1 0x6 DUP2 SWAP1 SSTORE POP DUP4 PUSH1 0x4 DUP2 SWAP1 SSTORE POP POP POP POP POP POP PUSH2 0x336 JUMP JUMPDEST PUSH0 PUSH0 PUSH0 SWAP1 SLOAD SWAP1 PUSH2 0x100 EXP SWAP1 DIV PUSH20 0xFFFFFFFFFFFFFFFFFFFFFFFFFFFFFFFFFFFFFFFF AND SWAP1 POP DUP2 PUSH0 PUSH0 PUSH2 0x100 EXP DUP2 SLOAD DUP2 PUSH20 0xFFFFFFFFFFFFFFFFFFFFFFFFFFFFFFFFFFFFFFFF MUL NOT AND SWAP1 DUP4 PUSH20 0xFFFFFFFFFFFFFFFFFFFFFFFFFFFFFFFFFFFFFFFF AND MUL OR SWAP1 SSTORE POP DUP2 PUSH20 0xFFFFFFFFFFFFFFFFFFFFFFFFFFFFFFFFFFFFFFFF AND DUP2 PUSH20 0xFFFFFFFFFFFFFFFFFFFFFFFFFFFFFFFFFFFFFFFF AND PUSH32 0x8BE0079C531659141344CD1FD0A4F28419497F9722A3DAAFE3B4186F6B6457E0 PUSH1 0x40 MLOAD PUSH1 0x40 MLOAD DUP1 SWAP2 SUB SWAP1 LOG3 POP POP JUMP JUMPDEST PUSH0 PUSH0 REVERT JUMPDEST PUSH0 DUP2 SWAP1 POP SWAP2 SWAP1 POP JUMP JUMPDEST PUSH2 0x21C DUP2 PUSH2 0x20A JUMP JUMPDEST DUP2 EQ PUSH2 0x226 JUMPI PUSH0 PUSH0 REVERT JUMPDEST POP JUMP JUMPDEST PUSH0 DUP2 MLOAD SWAP1 POP PUSH2 0x237 DUP2 PUSH2 0x213 JUMP JUMPDEST SWAP3 SWAP2 POP POP JUMP JUMPDEST PUSH0 PUSH20 0xFFFFFFFFFFFFFFFFFFFFFFFFFFFFFFFFFFFFFFFF DUP3 AND SWAP1 POP SWAP2 SWAP1 POP JUMP JUMPDEST PUSH0 PUSH2 0x266 DUP3 PUSH2 0x23D JUMP JUMPDEST SWAP1 POP SWAP2 SWAP1 POP JUMP JUMPDEST PUSH2 0x276 DUP2 PUSH2 0x25C JUMP JUMPDEST DUP2 EQ PUSH2 0x280 JUMPI PUSH0 PUSH0 REVERT JUMPDEST POP JUMP JUMPDEST PUSH0 DUP2 MLOAD SWAP1 POP PUSH2 0x291 DUP2 PUSH2 0x26D JUMP JUMPDEST SWAP3 SWAP2 POP POP JUMP JUMPDEST PUSH0 PUSH0 PUSH0 PUSH0 PUSH0 PUSH1 0xA0 DUP7 DUP9 SUB SLT ISZERO PUSH2 0x2B0 JUMPI PUSH2 0x2AF PUSH2 0x206 JUMP JUMPDEST JUMPDEST PUSH0 PUSH2 0x2BD DUP9 DUP3 DUP10 ADD PUSH2 0x229 JUMP JUMPDEST SWAP6 POP POP PUSH1 0x20 PUSH2 0x2CE DUP9 DUP3 DUP10 ADD PUSH2 0x229 JUMP JUMPDEST SWAP5 POP POP PUSH1 0x40 PUSH2 0x2DF DUP9 DUP3 DUP10 ADD PUSH2 0x283 JUMP JUMPDEST SWAP4 POP POP PUSH1 0x60 PUSH2 0x2F0 DUP9 DUP3 DUP10 ADD PUSH2 0x283 JUMP JUMPDEST SWAP3 POP POP PUSH1 0x80 PUSH2 0x301 DUP9 DUP3 DUP10 ADD PUSH2 0x283 JUMP JUMPDEST SWAP2 POP POP SWAP3 SWAP6 POP SWAP3 SWAP6 SWAP1 SWAP4 POP JUMP JUMPDEST PUSH2 0x317 DUP2 PUSH2 0x25C JUMP JUMPDEST DUP3 MSTORE POP POP JUMP JUMPDEST PUSH0 PUSH1 0x20 DUP3 ADD SWAP1 POP PUSH2 0x330 PUSH0 DUP4 ADD DUP5 PUSH2 0x30E JUMP JUMPDEST SWAP3 SWAP2 POP POP JUMP JUMPDEST PUSH1 0x80 MLOAD PUSH2 0x1EFF PUSH2 0x386 PUSH0 CODECOPY PUSH0 DUP2 DUP2 PUSH2 0x4AF ADD MSTORE DUP2 DUP2 PUSH2 0x636 ADD MSTORE DUP2 DUP2 PUSH2 0x756 ADD MSTORE DUP2 DUP2 PUSH2 0x835 ADD MSTORE DUP2 DUP2 PUSH2 0x8C0 ADD MSTORE DUP2 DUP2 PUSH2 0x1068 ADD MSTORE DUP2 DUP2 PUSH2 0x10DD ADD MSTORE DUP2 DUP2 PUSH2 0x1145 ADD MSTORE PUSH2 0x11B0 ADD MSTORE PUSH2 0x1EFF PUSH0 RETURN INVALID PUSH1 0x80 PUSH1 0x40 MSTORE PUSH1 0x4 CALLDATASIZE LT PUSH2 0x129 JUMPI PUSH0 CALLDATALOAD PUSH1 0xE0 SHR DUP1 PUSH4 0xA1EAA644 GT PUSH2 0xAA JUMPI DUP1 PUSH4 0xF14210A6 GT PUSH2 0x6E JUMPI DUP1 PUSH4 0xF14210A6 EQ PUSH2 0x3BD JUMPI DUP1 PUSH4 0xF2FDE38B EQ PUSH2 0x3E5 JUMPI DUP1 PUSH4 0xF6326FB3 EQ PUSH2 0x40D JUMPI DUP1 PUSH4 0xF688BCFB EQ PUSH2 0x417 JUMPI DUP1 PUSH4 0xFC457792 EQ PUSH2 0x43F JUMPI DUP1 PUSH4 0xFF40E1D0 EQ PUSH2 0x469 JUMPI PUSH2 0x129 JUMP JUMPDEST DUP1 PUSH4 0xA1EAA644 EQ PUSH2 0x2CB JUMPI DUP1 PUSH4 0xBDC8144B EQ PUSH2 0x307 JUMPI DUP1 PUSH4 0xCAC2E25F EQ PUSH2 0x32F JUMPI DUP1 PUSH4 0xDB81F99B EQ PUSH2 0x359 JUMPI DUP1 PUSH4 0xDCD725A7 EQ PUSH2 0x381 JUMPI PUSH2 0x129 JUMP JUMPDEST DUP1 PUSH4 0x7ADBF973 GT PUSH2 0xF1 JUMPI DUP1 PUSH4 0x7ADBF973 EQ PUSH2 0x1EB JUMPI DUP1 PUSH4 0x8C8BDAE9 EQ PUSH2 0x213 JUMPI DUP1 PUSH4 0x8DA5CB5B EQ PUSH2 0x24F JUMPI DUP1 PUSH4 0x8EDDC8F9 EQ PUSH2 0x279 JUMPI DUP1 PUSH4 0xA00CAD48 EQ PUSH2 0x2A1 JUMPI PUSH2 0x129 JUMP JUMPDEST DUP1 PUSH4 0x16123524 EQ PUSH2 0x12D JUMPI DUP1 PUSH4 0x52963C2B EQ PUSH2 0x157 JUMPI DUP1 PUSH4 0x6BEC1ED0 EQ PUSH2 0x181 JUMPI DUP1 PUSH4 0x715018A6 EQ PUSH2 0x1AB JUMPI DUP1 PUSH4 0x78234A3B EQ PUSH2 0x1C1 JUMPI JUMPDEST PUSH0 PUSH0 REVERT JUMPDEST CALLVALUE DUP1 ISZERO PUSH2 0x138 JUMPI PUSH0 PUSH0 REVERT JUMPDEST POP PUSH2 0x141 PUSH2 0x493 JUMP JUMPDEST PUSH1 0x40 MLOAD PUSH2 0x14E SWAP2 SWAP1 PUSH2 0x1696 JUMP JUMPDEST PUSH1 0x40 MLOAD DUP1 SWAP2 SUB SWAP1 RETURN JUMPDEST CALLVALUE DUP1 ISZERO PUSH2 0x162 JUMPI PUSH0 PUSH0 REVERT JUMPDEST POP PUSH2 0x16B PUSH2 0x499 JUMP JUMPDEST PUSH1 0x40 MLOAD PUSH2 0x178 SWAP2 SWAP1 PUSH2 0x1696 JUMP JUMPDEST PUSH1 0x40 MLOAD DUP1 SWAP2 SUB SWAP1 RETURN JUMPDEST CALLVALUE DUP1 ISZERO PUSH2 0x18C JUMPI PUSH0 PUSH0 REVERT JUMPDEST POP PUSH2 0x195 PUSH2 0x49F JUMP JUMPDEST PUSH1 0x40 MLOAD PUSH2 0x1A2 SWAP2 SWAP1 PUSH2 0x1696 JUMP JUMPDEST PUSH1 0x40 MLOAD DUP1 SWAP2 SUB SWAP1 RETURN JUMPDEST CALLVALUE DUP1 ISZERO PUSH2 0x1B6 JUMPI PUSH0 PUSH0 REVERT JUMPDEST POP PUSH2 0x1BF PUSH2 0x55A JUMP JUMPDEST STOP JUMPDEST CALLVALUE DUP1 ISZERO PUSH2 0x1CC JUMPI PUSH0 PUSH0 REVERT JUMPDEST POP PUSH2 0x1D5 PUSH2 0x56D JUMP JUMPDEST PUSH1 0x40 MLOAD PUSH2 0x1E2 SWAP2 SWAP1 PUSH2 0x1696 JUMP JUMPDEST PUSH1 0x40 MLOAD DUP1 SWAP2 SUB SWAP1 RETURN JUMPDEST CALLVALUE DUP1 ISZERO PUSH2 0x1F6 JUMPI PUSH0 PUSH0 REVERT JUMPDEST POP PUSH2 0x211 PUSH1 0x4 DUP1 CALLDATASIZE SUB DUP2 ADD SWAP1 PUSH2 0x20C SWAP2 SWAP1 PUSH2 0x170D JUMP JUMPDEST PUSH2 0x573 JUMP JUMPDEST STOP JUMPDEST CALLVALUE DUP1 ISZERO PUSH2 0x21E JUMPI PUSH0 PUSH0 REVERT JUMPDEST POP PUSH2 0x239 PUSH1 0x4 DUP1 CALLDATASIZE SUB DUP2 ADD SWAP1 PUSH2 0x234 SWAP2 SWAP1 PUSH2 0x170D JUMP JUMPDEST PUSH2 0x5F5 JUMP JUMPDEST PUSH1 0x40 MLOAD PUSH2 0x246 SWAP2 SWAP1 PUSH2 0x1696 JUMP JUMPDEST PUSH1 0x40 MLOAD DUP1 SWAP2 SUB SWAP1 RETURN JUMPDEST CALLVALUE DUP1 ISZERO PUSH2 0x25A JUMPI PUSH0 PUSH0 REVERT JUMPDEST POP PUSH2 0x263 PUSH2 0x696 JUMP JUMPDEST PUSH1 0x40 MLOAD PUSH2 0x270 SWAP2 SWAP1 PUSH2 0x1747 JUMP JUMPDEST PUSH1 0x40 MLOAD DUP1 SWAP2 SUB SWAP1 RETURN JUMPDEST CALLVALUE DUP1 ISZERO PUSH2 0x284 JUMPI PUSH0 PUSH0 REVERT JUMPDEST POP PUSH2 0x29F PUSH1 0x4 DUP1 CALLDATASIZE SUB DUP2 ADD SWAP1 PUSH2 0x29A SWAP2 SWAP1 PUSH2 0x178A JUMP JUMPDEST PUSH2 0x6BD JUMP JUMPDEST STOP JUMPDEST CALLVALUE DUP1 ISZERO PUSH2 0x2AC JUMPI PUSH0 PUSH0 REVERT JUMPDEST POP PUSH2 0x2B5 PUSH2 0x6CF JUMP JUMPDEST PUSH1 0x40 MLOAD PUSH2 0x2C2 SWAP2 SWAP1 PUSH2 0x1696 JUMP JUMPDEST PUSH1 0x40 MLOAD DUP1 SWAP2 SUB SWAP1 RETURN JUMPDEST CALLVALUE DUP1 ISZERO PUSH2 0x2D6 JUMPI PUSH0 PUSH0 REVERT JUMPDEST POP PUSH2 0x2F1 PUSH1 0x4 DUP1 CALLDATASIZE SUB DUP2 ADD SWAP1 PUSH2 0x2EC SWAP2 SWAP1 PUSH2 0x17B5 JUMP JUMPDEST PUSH2 0x6D5 JUMP JUMPDEST PUSH1 0x40 MLOAD PUSH2 0x2FE SWAP2 SWAP1 PUSH2 0x1696 JUMP JUMPDEST PUSH1 0x40 MLOAD DUP1 SWAP2 SUB SWAP1 RETURN JUMPDEST CALLVALUE DUP1 ISZERO PUSH2 0x312 JUMPI PUSH0 PUSH0 REVERT JUMPDEST POP PUSH2 0x32D PUSH1 0x4 DUP1 CALLDATASIZE SUB DUP2 ADD SWAP1 PUSH2 0x328 SWAP2 SWAP1 PUSH2 0x178A JUMP JUMPDEST PUSH2 0x6F5 JUMP JUMPDEST STOP JUMPDEST CALLVALUE DUP1 ISZERO PUSH2 0x33A JUMPI PUSH0 PUSH0 REVERT JUMPDEST POP PUSH2 0x343 PUSH2 0x707 JUMP JUMPDEST PUSH1 0x40 MLOAD PUSH2 0x350 SWAP2 SWAP1 PUSH2 0x1696 JUMP JUMPDEST PUSH1 0x40 MLOAD DUP1 SWAP2 SUB SWAP1 RETURN JUMPDEST CALLVALUE DUP1 ISZERO PUSH2 0x364 JUMPI PUSH0 PUSH0 REVERT JUMPDEST POP PUSH2 0x37F PUSH1 0x4 DUP1 CALLDATASIZE SUB DUP2 ADD SWAP1 PUSH2 0x37A SWAP2 SWAP1 PUSH2 0x178A JUMP JUMPDEST PUSH2 0x70D JUMP JUMPDEST STOP JUMPDEST CALLVALUE DUP1 ISZERO PUSH2 0x38C JUMPI PUSH0 PUSH0 REVERT JUMPDEST POP PUSH2 0x3A7 PUSH1 0x4 DUP1 CALLDATASIZE SUB DUP2 ADD SWAP1 PUSH2 0x3A2 SWAP2 SWAP1 PUSH2 0x170D JUMP JUMPDEST PUSH2 0x948 JUMP JUMPDEST PUSH1 0x40 MLOAD PUSH2 0x3B4 SWAP2 SWAP1 PUSH2 0x1696 JUMP JUMPDEST PUSH1 0x40 MLOAD DUP1 SWAP2 SUB SWAP1 RETURN JUMPDEST CALLVALUE DUP1 ISZERO PUSH2 0x3C8 JUMPI PUSH0 PUSH0 REVERT JUMPDEST POP PUSH2 0x3E3 PUSH1 0x4 DUP1 CALLDATASIZE SUB DUP2 ADD SWAP1 PUSH2 0x3DE SWAP2 SWAP1 PUSH2 0x178A JUMP JUMPDEST PUSH2 0x9D1 JUMP JUMPDEST STOP JUMPDEST CALLVALUE DUP1 ISZERO PUSH2 0x3F0 JUMPI PUSH0 PUSH0 REVERT JUMPDEST POP PUSH2 0x40B PUSH1 0x4 DUP1 CALLDATASIZE SUB DUP2 ADD SWAP1 PUSH2 0x406 SWAP2 SWAP1 PUSH2 0x170D JUMP JUMPDEST PUSH2 0xC7A JUMP JUMPDEST STOP JUMPDEST PUSH2 0x415 PUSH2 0xCFE JUMP JUMPDEST STOP JUMPDEST CALLVALUE DUP1 ISZERO PUSH2 0x422 JUMPI PUSH0 PUSH0 REVERT JUMPDEST POP PUSH2 0x43D PUSH1 0x4 DUP1 CALLDATASIZE SUB DUP2 ADD SWAP1 PUSH2 0x438 SWAP2 SWAP1 PUSH2 0x178A JUMP JUMPDEST PUSH2 0xF0B JUMP JUMPDEST STOP JUMPDEST CALLVALUE DUP1 ISZERO PUSH2 0x44A JUMPI PUSH0 PUSH0 REVERT JUMPDEST POP PUSH2 0x453 PUSH2 0x1189 JUMP JUMPDEST PUSH1 0x40 MLOAD PUSH2 0x460 SWAP2 SWAP1 PUSH2 0x184E JUMP JUMPDEST PUSH1 0x40 MLOAD DUP1 SWAP2 SUB SWAP1 RETURN JUMPDEST CALLVALUE DUP1 ISZERO PUSH2 0x474 JUMPI PUSH0 PUSH0 REVERT JUMPDEST POP PUSH2 0x47D PUSH2 0x11AE JUMP JUMPDEST PUSH1 0x40 MLOAD PUSH2 0x48A SWAP2 SWAP1 PUSH2 0x1887 JUMP JUMPDEST PUSH1 0x40 MLOAD DUP1 SWAP2 SUB SWAP1 RETURN JUMPDEST PUSH1 0x6 SLOAD DUP2 JUMP JUMPDEST PUSH1 0x5 SLOAD DUP2 JUMP JUMPDEST PUSH0 PUSH0 PUSH2 0x4AA SELFBALANCE PUSH2 0x11D2 JUMP JUMPDEST SWAP1 POP PUSH0 PUSH32 0x0 PUSH20 0xFFFFFFFFFFFFFFFFFFFFFFFFFFFFFFFFFFFFFFFF AND PUSH4 0x70A08231 ADDRESS PUSH1 0x40 MLOAD DUP3 PUSH4 0xFFFFFFFF AND PUSH1 0xE0 SHL DUP2 MSTORE PUSH1 0x4 ADD PUSH2 0x506 SWAP2 SWAP1 PUSH2 0x1747 JUMP JUMPDEST PUSH1 0x20 PUSH1 0x40 MLOAD DUP1 DUP4 SUB DUP2 DUP7 GAS STATICCALL ISZERO DUP1 ISZERO PUSH2 0x521 JUMPI RETURNDATASIZE PUSH0 PUSH0 RETURNDATACOPY RETURNDATASIZE PUSH0 REVERT JUMPDEST POP POP POP POP PUSH1 0x40 MLOAD RETURNDATASIZE PUSH1 0x1F NOT PUSH1 0x1F DUP3 ADD AND DUP3 ADD DUP1 PUSH1 0x40 MSTORE POP DUP2 ADD SWAP1 PUSH2 0x545 SWAP2 SWAP1 PUSH2 0x18B4 JUMP JUMPDEST SWAP1 POP DUP1 DUP3 PUSH2 0x553 SWAP2 SWAP1 PUSH2 0x190C JUMP JUMPDEST SWAP3 POP POP POP SWAP1 JUMP JUMPDEST PUSH2 0x562 PUSH2 0x1201 JUMP JUMPDEST PUSH2 0x56B PUSH0 PUSH2 0x1288 JUMP JUMPDEST JUMP JUMPDEST PUSH1 0x7 SLOAD DUP2 JUMP JUMPDEST PUSH2 0x57B PUSH2 0x1201 JUMP JUMPDEST DUP1 PUSH1 0x3 PUSH0 PUSH2 0x100 EXP DUP2 SLOAD DUP2 PUSH20 0xFFFFFFFFFFFFFFFFFFFFFFFFFFFFFFFFFFFFFFFF MUL NOT AND SWAP1 DUP4 PUSH20 0xFFFFFFFFFFFFFFFFFFFFFFFFFFFFFFFFFFFFFFFF AND MUL OR SWAP1 SSTORE POP PUSH32 0x3DF77BEB5DB05FCDD70A30FC8ADF3F83F9501B68579455ADBD100B8180940394 DUP2 PUSH1 0x40 MLOAD PUSH2 0x5EA SWAP2 SWAP1 PUSH2 0x1747 JUMP JUMPDEST PUSH1 0x40 MLOAD DUP1 SWAP2 SUB SWAP1 LOG1 POP JUMP JUMPDEST PUSH0 PUSH1 0x2 PUSH0 DUP4 PUSH20 0xFFFFFFFFFFFFFFFFFFFFFFFFFFFFFFFFFFFFFFFF AND PUSH20 0xFFFFFFFFFFFFFFFFFFFFFFFFFFFFFFFFFFFFFFFF AND DUP2 MSTORE PUSH1 0x20 ADD SWAP1 DUP2 MSTORE PUSH1 0x20 ADD PUSH0 KECCAK256 PUSH0 PUSH32 0x0 PUSH20 0xFFFFFFFFFFFFFFFFFFFFFFFFFFFFFFFFFFFFFFFF AND PUSH20 0xFFFFFFFFFFFFFFFFFFFFFFFFFFFFFFFFFFFFFFFF AND DUP2 MSTORE PUSH1 0x20 ADD SWAP1 DUP2 MSTORE PUSH1 0x20 ADD PUSH0 KECCAK256 SLOAD SWAP1 POP SWAP2 SWAP1 POP JUMP JUMPDEST PUSH0 PUSH0 PUSH0 SWAP1 SLOAD SWAP1 PUSH2 0x100 EXP SWAP1 DIV PUSH20 0xFFFFFFFFFFFFFFFFFFFFFFFFFFFFFFFFFFFFFFFF AND SWAP1 POP SWAP1 JUMP JUMPDEST PUSH2 0x6C5 PUSH2 0x1201 JUMP JUMPDEST DUP1 PUSH1 0x6 DUP2 SWAP1 SSTORE POP POP JUMP JUMPDEST PUSH1 0x4 SLOAD DUP2 JUMP JUMPDEST PUSH1 0x2 PUSH1 0x20 MSTORE DUP2 PUSH0 MSTORE PUSH1 0x40 PUSH0 KECCAK256 PUSH1 0x20 MSTORE DUP1 PUSH0 MSTORE PUSH1 0x40 PUSH0 KECCAK256 PUSH0 SWAP2 POP SWAP2 POP POP SLOAD DUP2 JUMP JUMPDEST PUSH2 0x6FD PUSH2 0x1201 JUMP JUMPDEST DUP1 PUSH1 0x4 DUP2 SWAP1 SSTORE POP POP JUMP JUMPDEST PUSH1 0x8 SLOAD DUP2 JUMP JUMPDEST PUSH2 0x715 PUSH2 0x1349 JUMP JUMPDEST DUP1 PUSH1 0x2 PUSH0 CALLER PUSH20 0xFFFFFFFFFFFFFFFFFFFFFFFFFFFFFFFFFFFFFFFF AND PUSH20 0xFFFFFFFFFFFFFFFFFFFFFFFFFFFFFFFFFFFFFFFF AND DUP2 MSTORE PUSH1 0x20 ADD SWAP1 DUP2 MSTORE PUSH1 0x20 ADD PUSH0 KECCAK256 PUSH0 PUSH32 0x0 PUSH20 0xFFFFFFFFFFFFFFFFFFFFFFFFFFFFFFFFFFFFFFFF AND PUSH20 0xFFFFFFFFFFFFFFFFFFFFFFFFFFFFFFFFFFFFFFFF AND DUP2 MSTORE PUSH1 0x20 ADD SWAP1 DUP2 MSTORE PUSH1 0x20 ADD PUSH0 KECCAK256 SLOAD LT ISZERO PUSH2 0x7F4 JUMPI DUP1 CALLER PUSH1 0x40 MLOAD PUSH32 0x7C4F8B5D00000000000000000000000000000000000000000000000000000000 DUP2 MSTORE PUSH1 0x4 ADD PUSH2 0x7EB SWAP3 SWAP2 SWAP1 PUSH2 0x1999 JUMP JUMPDEST PUSH1 0x40 MLOAD DUP1 SWAP2 SUB SWAP1 REVERT JUMPDEST DUP1 PUSH1 0x2 PUSH0 CALLER PUSH20 0xFFFFFFFFFFFFFFFFFFFFFFFFFFFFFFFFFFFFFFFF AND PUSH20 0xFFFFFFFFFFFFFFFFFFFFFFFFFFFFFFFFFFFFFFFF AND DUP2 MSTORE PUSH1 0x20 ADD SWAP1 DUP2 MSTORE PUSH1 0x20 ADD PUSH0 KECCAK256 PUSH0 PUSH32 0x0 PUSH20 0xFFFFFFFFFFFFFFFFFFFFFFFFFFFFFFFFFFFFFFFF AND PUSH20 0xFFFFFFFFFFFFFFFFFFFFFFFFFFFFFFFFFFFFFFFF AND DUP2 MSTORE PUSH1 0x20 ADD SWAP1 DUP2 MSTORE PUSH1 0x20 ADD PUSH0 KECCAK256 PUSH0 DUP3 DUP3 SLOAD PUSH2 0x89B SWAP2 SWAP1 PUSH2 0x19D3 JUMP JUMPDEST SWAP3 POP POP DUP2 SWAP1 SSTORE POP PUSH1 0x7 PUSH0 DUP2 SLOAD DUP1 SWAP3 SWAP2 SWAP1 PUSH2 0x8B4 SWAP1 PUSH2 0x1A06 JUMP JUMPDEST SWAP2 SWAP1 POP SSTORE POP PUSH2 0x904 CALLER DUP3 PUSH32 0x0 PUSH20 0xFFFFFFFFFFFFFFFFFFFFFFFFFFFFFFFFFFFFFFFF AND PUSH2 0x1398 SWAP1 SWAP3 SWAP2 SWAP1 PUSH4 0xFFFFFFFF AND JUMP JUMPDEST PUSH32 0x3F8F630C8B146486A33AFC98F55BD1FDD5D4717DEAB161C649B6FE758D877289 CALLER DUP3 PUSH1 0x40 MLOAD PUSH2 0x935 SWAP3 SWAP2 SWAP1 PUSH2 0x1A4D JUMP JUMPDEST PUSH1 0x40 MLOAD DUP1 SWAP2 SUB SWAP1 LOG1 PUSH2 0x945 PUSH2 0x1417 JUMP JUMPDEST POP JUMP JUMPDEST PUSH0 PUSH2 0x9CA PUSH1 0x2 PUSH0 DUP5 PUSH20 0xFFFFFFFFFFFFFFFFFFFFFFFFFFFFFFFFFFFFFFFF AND PUSH20 0xFFFFFFFFFFFFFFFFFFFFFFFFFFFFFFFFFFFFFFFF AND DUP2 MSTORE PUSH1 0x20 ADD SWAP1 DUP2 MSTORE PUSH1 0x20 ADD PUSH0 KECCAK256 PUSH0 PUSH0 PUSH20 0xFFFFFFFFFFFFFFFFFFFFFFFFFFFFFFFFFFFFFFFF AND PUSH20 0xFFFFFFFFFFFFFFFFFFFFFFFFFFFFFFFFFFFFFFFF AND DUP2 MSTORE PUSH1 0x20 ADD SWAP1 DUP2 MSTORE PUSH1 0x20 ADD PUSH0 KECCAK256 SLOAD PUSH2 0x11D2 JUMP JUMPDEST SWAP1 POP SWAP2 SWAP1 POP JUMP JUMPDEST PUSH2 0x9D9 PUSH2 0x1349 JUMP JUMPDEST DUP1 PUSH7 0x2386F26FC10000 DUP2 GT ISZERO PUSH2 0xA28 JUMPI DUP1 CALLER PUSH1 0x40 MLOAD PUSH32 0x2183CAE300000000000000000000000000000000000000000000000000000000 DUP2 MSTORE PUSH1 0x4 ADD PUSH2 0xA1F SWAP3 SWAP2 SWAP1 PUSH2 0x1AE4 JUMP JUMPDEST PUSH1 0x40 MLOAD DUP1 SWAP2 SUB SWAP1 REVERT JUMPDEST DUP1 PUSH1 0x2 PUSH0 CALLER PUSH20 0xFFFFFFFFFFFFFFFFFFFFFFFFFFFFFFFFFFFFFFFF AND PUSH20 0xFFFFFFFFFFFFFFFFFFFFFFFFFFFFFFFFFFFFFFFF AND DUP2 MSTORE PUSH1 0x20 ADD SWAP1 DUP2 MSTORE PUSH1 0x20 ADD PUSH0 KECCAK256 PUSH0 PUSH0 PUSH20 0xFFFFFFFFFFFFFFFFFFFFFFFFFFFFFFFFFFFFFFFF AND PUSH20 0xFFFFFFFFFFFFFFFFFFFFFFFFFFFFFFFFFFFFFFFF AND DUP2 MSTORE PUSH1 0x20 ADD SWAP1 DUP2 MSTORE PUSH1 0x20 ADD PUSH0 KECCAK256 SLOAD LT ISZERO PUSH2 0xAE7 JUMPI DUP1 CALLER PUSH1 0x40 MLOAD PUSH32 0x7C4F8B5D00000000000000000000000000000000000000000000000000000000 DUP2 MSTORE PUSH1 0x4 ADD PUSH2 0xADE SWAP3 SWAP2 SWAP1 PUSH2 0x1999 JUMP JUMPDEST PUSH1 0x40 MLOAD DUP1 SWAP2 SUB SWAP1 REVERT JUMPDEST DUP2 PUSH1 0x2 PUSH0 CALLER PUSH20 0xFFFFFFFFFFFFFFFFFFFFFFFFFFFFFFFFFFFFFFFF AND PUSH20 0xFFFFFFFFFFFFFFFFFFFFFFFFFFFFFFFFFFFFFFFF AND DUP2 MSTORE PUSH1 0x20 ADD SWAP1 DUP2 MSTORE PUSH1 0x20 ADD PUSH0 KECCAK256 PUSH0 PUSH0 PUSH20 0xFFFFFFFFFFFFFFFFFFFFFFFFFFFFFFFFFFFFFFFF AND PUSH20 0xFFFFFFFFFFFFFFFFFFFFFFFFFFFFFFFFFFFFFFFF AND DUP2 MSTORE PUSH1 0x20 ADD SWAP1 DUP2 MSTORE PUSH1 0x20 ADD PUSH0 KECCAK256 PUSH0 DUP3 DUP3 SLOAD PUSH2 0xB6E SWAP2 SWAP1 PUSH2 0x19D3 JUMP JUMPDEST SWAP3 POP POP DUP2 SWAP1 SSTORE POP PUSH1 0x7 PUSH0 DUP2 SLOAD DUP1 SWAP3 SWAP2 SWAP1 PUSH2 0xB87 SWAP1 PUSH2 0x1A06 JUMP JUMPDEST SWAP2 SWAP1 POP SSTORE POP PUSH0 CALLER PUSH20 0xFFFFFFFFFFFFFFFFFFFFFFFFFFFFFFFFFFFFFFFF AND DUP4 PUSH1 0x40 MLOAD PUSH2 0xBB1 SWAP1 PUSH2 0x1B4B JUMP JUMPDEST PUSH0 PUSH1 0x40 MLOAD DUP1 DUP4 SUB DUP2 DUP6 DUP8 GAS CALL SWAP3 POP POP POP RETURNDATASIZE DUP1 PUSH0 DUP2 EQ PUSH2 0xBEB JUMPI PUSH1 0x40 MLOAD SWAP2 POP PUSH1 0x1F NOT PUSH1 0x3F RETURNDATASIZE ADD AND DUP3 ADD PUSH1 0x40 MSTORE RETURNDATASIZE DUP3 MSTORE RETURNDATASIZE PUSH0 PUSH1 0x20 DUP5 ADD RETURNDATACOPY PUSH2 0xBF0 JUMP JUMPDEST PUSH1 0x60 SWAP2 POP JUMPDEST POP POP SWAP1 POP DUP1 PUSH2 0xC34 JUMPI PUSH1 0x40 MLOAD PUSH32 0x8C379A000000000000000000000000000000000000000000000000000000000 DUP2 MSTORE PUSH1 0x4 ADD PUSH2 0xC2B SWAP1 PUSH2 0x1BA9 JUMP JUMPDEST PUSH1 0x40 MLOAD DUP1 SWAP2 SUB SWAP1 REVERT JUMPDEST PUSH32 0x3F8F630C8B146486A33AFC98F55BD1FDD5D4717DEAB161C649B6FE758D877289 CALLER DUP5 PUSH1 0x40 MLOAD PUSH2 0xC65 SWAP3 SWAP2 SWAP1 PUSH2 0x1A4D JUMP JUMPDEST PUSH1 0x40 MLOAD DUP1 SWAP2 SUB SWAP1 LOG1 POP POP PUSH2 0xC77 PUSH2 0x1417 JUMP JUMPDEST POP JUMP JUMPDEST PUSH2 0xC82 PUSH2 0x1201 JUMP JUMPDEST PUSH0 PUSH20 0xFFFFFFFFFFFFFFFFFFFFFFFFFFFFFFFFFFFFFFFF AND DUP2 PUSH20 0xFFFFFFFFFFFFFFFFFFFFFFFFFFFFFFFFFFFFFFFF AND SUB PUSH2 0xCF2 JUMPI PUSH0 PUSH1 0x40 MLOAD PUSH32 0x1E4FBDF700000000000000000000000000000000000000000000000000000000 DUP2 MSTORE PUSH1 0x4 ADD PUSH2 0xCE9 SWAP2 SWAP1 PUSH2 0x1747 JUMP JUMPDEST PUSH1 0x40 MLOAD DUP1 SWAP2 SUB SWAP1 REVERT JUMPDEST PUSH2 0xCFB DUP2 PUSH2 0x1288 JUMP JUMPDEST POP JUMP JUMPDEST PUSH2 0xD06 PUSH2 0x1349 JUMP JUMPDEST PUSH2 0xD0F CALLVALUE PUSH2 0x11D2 JUMP JUMPDEST PUSH2 0xD18 DUP2 PUSH2 0x1420 JUMP JUMPDEST ISZERO PUSH2 0xD5A JUMPI DUP1 PUSH1 0x40 MLOAD PUSH32 0xA04DCEBA00000000000000000000000000000000000000000000000000000000 DUP2 MSTORE PUSH1 0x4 ADD PUSH2 0xD51 SWAP2 SWAP1 PUSH2 0x1C11 JUMP JUMPDEST PUSH1 0x40 MLOAD DUP1 SWAP2 SUB SWAP1 REVERT JUMPDEST PUSH2 0xD63 CALLVALUE PUSH2 0x11D2 JUMP JUMPDEST PUSH1 0x6 SLOAD DUP2 PUSH1 0x5 SLOAD PUSH2 0xD74 SWAP2 SWAP1 PUSH2 0x190C JUMP JUMPDEST GT ISZERO PUSH2 0xDB9 JUMPI PUSH1 0x6 SLOAD PUSH1 0x40 MLOAD PUSH32 0x430B43DF00000000000000000000000000000000000000000000000000000000 DUP2 MSTORE PUSH1 0x4 ADD PUSH2 0xDB0 SWAP2 SWAP1 PUSH2 0x1696 JUMP JUMPDEST PUSH1 0x40 MLOAD DUP1 SWAP2 SUB SWAP1 REVERT JUMPDEST PUSH0 CALLVALUE GT PUSH2 0xDFB JUMPI PUSH1 0x40 MLOAD PUSH32 0x8C379A000000000000000000000000000000000000000000000000000000000 DUP2 MSTORE PUSH1 0x4 ADD PUSH2 0xDF2 SWAP1 PUSH2 0x1C87 JUMP JUMPDEST PUSH1 0x40 MLOAD DUP1 SWAP2 SUB SWAP1 REVERT JUMPDEST PUSH0 PUSH2 0xE05 CALLVALUE PUSH2 0x11D2 JUMP JUMPDEST SWAP1 POP PUSH1 0x8 PUSH0 DUP2 SLOAD DUP1 SWAP3 SWAP2 SWAP1 PUSH2 0xE19 SWAP1 PUSH2 0x1A06 JUMP JUMPDEST SWAP2 SWAP1 POP SSTORE POP DUP1 PUSH1 0x5 PUSH0 DUP3 DUP3 SLOAD PUSH2 0xE2F SWAP2 SWAP1 PUSH2 0x190C JUMP JUMPDEST SWAP3 POP POP DUP2 SWAP1 SSTORE POP CALLVALUE PUSH1 0x2 PUSH0 CALLER PUSH20 0xFFFFFFFFFFFFFFFFFFFFFFFFFFFFFFFFFFFFFFFF AND PUSH20 0xFFFFFFFFFFFFFFFFFFFFFFFFFFFFFFFFFFFFFFFF AND DUP2 MSTORE PUSH1 0x20 ADD SWAP1 DUP2 MSTORE PUSH1 0x20 ADD PUSH0 KECCAK256 PUSH0 PUSH0 PUSH20 0xFFFFFFFFFFFFFFFFFFFFFFFFFFFFFFFFFFFFFFFF AND PUSH20 0xFFFFFFFFFFFFFFFFFFFFFFFFFFFFFFFFFFFFFFFF AND DUP2 MSTORE PUSH1 0x20 ADD SWAP1 DUP2 MSTORE PUSH1 0x20 ADD PUSH0 KECCAK256 PUSH0 DUP3 DUP3 SLOAD PUSH2 0xEBD SWAP2 SWAP1 PUSH2 0x190C JUMP JUMPDEST SWAP3 POP POP DUP2 SWAP1 SSTORE POP PUSH31 0xE03F32AE5DCDD1E3D7D441BE59E1650006AEB02C24FAA7EF36785183D5C505 CALLER PUSH0 CALLVALUE PUSH1 0x40 MLOAD PUSH2 0xEF6 SWAP4 SWAP3 SWAP2 SWAP1 PUSH2 0x1CA5 JUMP JUMPDEST PUSH1 0x40 MLOAD DUP1 SWAP2 SUB SWAP1 LOG1 POP POP POP PUSH2 0xF09 PUSH2 0x1417 JUMP JUMPDEST JUMP JUMPDEST PUSH2 0xF13 PUSH2 0x1349 JUMP JUMPDEST DUP1 PUSH2 0xF1D DUP2 PUSH2 0x1420 JUMP JUMPDEST ISZERO PUSH2 0xF5F JUMPI DUP1 PUSH1 0x40 MLOAD PUSH32 0xA04DCEBA00000000000000000000000000000000000000000000000000000000 DUP2 MSTORE PUSH1 0x4 ADD PUSH2 0xF56 SWAP2 SWAP1 PUSH2 0x1C11 JUMP JUMPDEST PUSH1 0x40 MLOAD DUP1 SWAP2 SUB SWAP1 REVERT JUMPDEST DUP2 PUSH1 0x6 SLOAD DUP2 PUSH1 0x5 SLOAD PUSH2 0xF71 SWAP2 SWAP1 PUSH2 0x190C JUMP JUMPDEST GT ISZERO PUSH2 0xFB6 JUMPI PUSH1 0x6 SLOAD PUSH1 0x40 MLOAD PUSH32 0x430B43DF00000000000000000000000000000000000000000000000000000000 DUP2 MSTORE PUSH1 0x4 ADD PUSH2 0xFAD SWAP2 SWAP1 PUSH2 0x1696 JUMP JUMPDEST PUSH1 0x40 MLOAD DUP1 SWAP2 SUB SWAP1 REVERT JUMPDEST PUSH0 DUP4 GT PUSH2 0xFF8 JUMPI PUSH1 0x40 MLOAD PUSH32 0x8C379A000000000000000000000000000000000000000000000000000000000 DUP2 MSTORE PUSH1 0x4 ADD PUSH2 0xFEF SWAP1 PUSH2 0x1C87 JUMP JUMPDEST PUSH1 0x40 MLOAD DUP1 SWAP2 SUB SWAP1 REVERT JUMPDEST PUSH1 0x8 PUSH0 DUP2 SLOAD DUP1 SWAP3 SWAP2 SWAP1 PUSH2 0x100A SWAP1 PUSH2 0x1A06 JUMP JUMPDEST SWAP2 SWAP1 POP SSTORE POP DUP3 PUSH1 0x5 PUSH0 DUP3 DUP3 SLOAD PUSH2 0x1020 SWAP2 SWAP1 PUSH2 0x190C JUMP JUMPDEST SWAP3 POP POP DUP2 SWAP1 SSTORE POP DUP3 PUSH1 0x2 PUSH0 CALLER PUSH20 0xFFFFFFFFFFFFFFFFFFFFFFFFFFFFFFFFFFFFFFFF AND PUSH20 0xFFFFFFFFFFFFFFFFFFFFFFFFFFFFFFFFFFFFFFFF AND DUP2 MSTORE PUSH1 0x20 ADD SWAP1 DUP2 MSTORE PUSH1 0x20 ADD PUSH0 KECCAK256 PUSH0 PUSH32 0x0 PUSH20 0xFFFFFFFFFFFFFFFFFFFFFFFFFFFFFFFFFFFFFFFF AND PUSH20 0xFFFFFFFFFFFFFFFFFFFFFFFFFFFFFFFFFFFFFFFF AND DUP2 MSTORE PUSH1 0x20 ADD SWAP1 DUP2 MSTORE PUSH1 0x20 ADD PUSH0 KECCAK256 PUSH0 DUP3 DUP3 SLOAD PUSH2 0x10CE SWAP2 SWAP1 PUSH2 0x190C JUMP JUMPDEST SWAP3 POP POP DUP2 SWAP1 SSTORE POP PUSH2 0x1122 CALLER ADDRESS DUP6 PUSH32 0x0 PUSH20 0xFFFFFFFFFFFFFFFFFFFFFFFFFFFFFFFFFFFFFFFF AND PUSH2 0x143A SWAP1 SWAP4 SWAP3 SWAP2 SWAP1 PUSH4 0xFFFFFFFF AND JUMP JUMPDEST PUSH31 0xE03F32AE5DCDD1E3D7D441BE59E1650006AEB02C24FAA7EF36785183D5C505 CALLER PUSH32 0x0 DUP6 PUSH1 0x40 MLOAD PUSH2 0x1174 SWAP4 SWAP3 SWAP2 SWAP1 PUSH2 0x1CA5 JUMP JUMPDEST PUSH1 0x40 MLOAD DUP1 SWAP2 SUB SWAP1 LOG1 POP POP PUSH2 0x1186 PUSH2 0x1417 JUMP JUMPDEST POP JUMP JUMPDEST PUSH1 0x3 PUSH0 SWAP1 SLOAD SWAP1 PUSH2 0x100 EXP SWAP1 DIV PUSH20 0xFFFFFFFFFFFFFFFFFFFFFFFFFFFFFFFFFFFFFFFF AND DUP2 JUMP JUMPDEST PUSH32 0x0 DUP2 JUMP JUMPDEST PUSH0 PUSH9 0x56BC75E2D63100000 PUSH2 0x11E5 PUSH2 0x14BC JUMP JUMPDEST DUP4 PUSH2 0x11F0 SWAP2 SWAP1 PUSH2 0x1CDA JUMP JUMPDEST PUSH2 0x11FA SWAP2 SWAP1 PUSH2 0x1D48 JUMP JUMPDEST SWAP1 POP SWAP2 SWAP1 POP JUMP JUMPDEST PUSH2 0x1209 PUSH2 0x15DC JUMP JUMPDEST PUSH20 0xFFFFFFFFFFFFFFFFFFFFFFFFFFFFFFFFFFFFFFFF AND PUSH2 0x1227 PUSH2 0x696 JUMP JUMPDEST PUSH20 0xFFFFFFFFFFFFFFFFFFFFFFFFFFFFFFFFFFFFFFFF AND EQ PUSH2 0x1286 JUMPI PUSH2 0x124A PUSH2 0x15DC JUMP JUMPDEST PUSH1 0x40 MLOAD PUSH32 0x118CDAA700000000000000000000000000000000000000000000000000000000 DUP2 MSTORE PUSH1 0x4 ADD PUSH2 0x127D SWAP2 SWAP1 PUSH2 0x1747 JUMP JUMPDEST PUSH1 0x40 MLOAD DUP1 SWAP2 SUB SWAP1 REVERT JUMPDEST JUMP JUMPDEST PUSH0 PUSH0 PUSH0 SWAP1 SLOAD SWAP1 PUSH2 0x100 EXP SWAP1 DIV PUSH20 0xFFFFFFFFFFFFFFFFFFFFFFFFFFFFFFFFFFFFFFFF AND SWAP1 POP DUP2 PUSH0 PUSH0 PUSH2 0x100 EXP DUP2 SLOAD DUP2 PUSH20 0xFFFFFFFFFFFFFFFFFFFFFFFFFFFFFFFFFFFFFFFF MUL NOT AND SWAP1 DUP4 PUSH20 0xFFFFFFFFFFFFFFFFFFFFFFFFFFFFFFFFFFFFFFFF AND MUL OR SWAP1 SSTORE POP DUP2 PUSH20 0xFFFFFFFFFFFFFFFFFFFFFFFFFFFFFFFFFFFFFFFF AND DUP2 PUSH20 0xFFFFFFFFFFFFFFFFFFFFFFFFFFFFFFFFFFFFFFFF AND PUSH32 0x8BE0079C531659141344CD1FD0A4F28419497F9722A3DAAFE3B4186F6B6457E0 PUSH1 0x40 MLOAD PUSH1 0x40 MLOAD DUP1 SWAP2 SUB SWAP1 LOG3 POP POP JUMP JUMPDEST PUSH1 0x2 PUSH1 0x1 SLOAD SUB PUSH2 0x138E JUMPI PUSH1 0x40 MLOAD PUSH32 0x8C379A000000000000000000000000000000000000000000000000000000000 DUP2 MSTORE PUSH1 0x4 ADD PUSH2 0x1385 SWAP1 PUSH2 0x1DC2 JUMP JUMPDEST PUSH1 0x40 MLOAD DUP1 SWAP2 SUB SWAP1 REVERT JUMPDEST PUSH1 0x2 PUSH1 0x1 DUP2 SWAP1 SSTORE POP JUMP JUMPDEST PUSH2 0x1412 DUP4 DUP5 PUSH20 0xFFFFFFFFFFFFFFFFFFFFFFFFFFFFFFFFFFFFFFFF AND PUSH4 0xA9059CBB DUP6 DUP6 PUSH1 0x40 MLOAD PUSH1 0x24 ADD PUSH2 0x13CB SWAP3 SWAP2 SWAP1 PUSH2 0x1A4D JUMP JUMPDEST PUSH1 0x40 MLOAD PUSH1 0x20 DUP2 DUP4 SUB SUB DUP2 MSTORE SWAP1 PUSH1 0x40 MSTORE SWAP2 POP PUSH1 0xE0 SHL PUSH1 0x20 DUP3 ADD DUP1 MLOAD PUSH28 0xFFFFFFFFFFFFFFFFFFFFFFFFFFFFFFFFFFFFFFFFFFFFFFFFFFFFFFFF DUP4 DUP2 DUP4 AND OR DUP4 MSTORE POP POP POP POP PUSH2 0x15E3 JUMP JUMPDEST POP POP POP JUMP JUMPDEST PUSH1 0x1 DUP1 DUP2 SWAP1 SSTORE POP JUMP JUMPDEST PUSH0 PUSH1 0x4 SLOAD DUP3 PUSH1 0x5 SLOAD PUSH2 0x1432 SWAP2 SWAP1 PUSH2 0x190C JUMP JUMPDEST GT SWAP1 POP SWAP2 SWAP1 POP JUMP JUMPDEST PUSH2 0x14B6 DUP5 DUP6 PUSH20 0xFFFFFFFFFFFFFFFFFFFFFFFFFFFFFFFFFFFFFFFF AND PUSH4 0x23B872DD DUP7 DUP7 DUP7 PUSH1 0x40 MLOAD PUSH1 0x24 ADD PUSH2 0x146F SWAP4 SWAP3 SWAP2 SWAP1 PUSH2 0x1CA5 JUMP JUMPDEST PUSH1 0x40 MLOAD PUSH1 0x20 DUP2 DUP4 SUB SUB DUP2 MSTORE SWAP1 PUSH1 0x40 MSTORE SWAP2 POP PUSH1 0xE0 SHL PUSH1 0x20 DUP3 ADD DUP1 MLOAD PUSH28 0xFFFFFFFFFFFFFFFFFFFFFFFFFFFFFFFFFFFFFFFFFFFFFFFFFFFFFFFF DUP4 DUP2 DUP4 AND OR DUP4 MSTORE POP POP POP POP PUSH2 0x15E3 JUMP JUMPDEST POP POP POP POP JUMP JUMPDEST PUSH0 PUSH0 PUSH0 PUSH1 0x3 PUSH0 SWAP1 SLOAD SWAP1 PUSH2 0x100 EXP SWAP1 DIV PUSH20 0xFFFFFFFFFFFFFFFFFFFFFFFFFFFFFFFFFFFFFFFF AND PUSH20 0xFFFFFFFFFFFFFFFFFFFFFFFFFFFFFFFFFFFFFFFF AND PUSH4 0xFEAF968C PUSH1 0x40 MLOAD DUP2 PUSH4 0xFFFFFFFF AND PUSH1 0xE0 SHL DUP2 MSTORE PUSH1 0x4 ADD PUSH1 0xA0 PUSH1 0x40 MLOAD DUP1 DUP4 SUB DUP2 DUP7 GAS STATICCALL ISZERO DUP1 ISZERO PUSH2 0x1529 JUMPI RETURNDATASIZE PUSH0 PUSH0 RETURNDATACOPY RETURNDATASIZE PUSH0 REVERT JUMPDEST POP POP POP POP PUSH1 0x40 MLOAD RETURNDATASIZE PUSH1 0x1F NOT PUSH1 0x1F DUP3 ADD AND DUP3 ADD DUP1 PUSH1 0x40 MSTORE POP DUP2 ADD SWAP1 PUSH2 0x154D SWAP2 SWAP1 PUSH2 0x1E52 JUMP JUMPDEST POP SWAP4 POP POP SWAP3 POP POP PUSH0 DUP3 SUB PUSH2 0x158D JUMPI PUSH1 0x40 MLOAD PUSH32 0x144C1D9500000000000000000000000000000000000000000000000000000000 DUP2 MSTORE PUSH1 0x4 ADD PUSH1 0x40 MLOAD DUP1 SWAP2 SUB SWAP1 REVERT JUMPDEST PUSH2 0xE10 DUP2 TIMESTAMP PUSH2 0x159C SWAP2 SWAP1 PUSH2 0x19D3 JUMP JUMPDEST GT ISZERO PUSH2 0x15D4 JUMPI PUSH1 0x40 MLOAD PUSH32 0xB3126E600000000000000000000000000000000000000000000000000000000 DUP2 MSTORE PUSH1 0x4 ADD PUSH1 0x40 MLOAD DUP1 SWAP2 SUB SWAP1 REVERT JUMPDEST DUP2 SWAP3 POP POP POP SWAP1 JUMP JUMPDEST PUSH0 CALLER SWAP1 POP SWAP1 JUMP JUMPDEST PUSH0 PUSH0 PUSH1 0x20 PUSH0 DUP5 MLOAD PUSH1 0x20 DUP7 ADD PUSH0 DUP9 GAS CALL DUP1 PUSH2 0x1602 JUMPI PUSH1 0x40 MLOAD RETURNDATASIZE PUSH0 DUP3 RETURNDATACOPY RETURNDATASIZE DUP2 REVERT JUMPDEST RETURNDATASIZE SWAP3 POP PUSH0 MLOAD SWAP2 POP POP PUSH0 DUP3 EQ PUSH2 0x161B JUMPI PUSH1 0x1 DUP2 EQ ISZERO PUSH2 0x1636 JUMP JUMPDEST PUSH0 DUP5 PUSH20 0xFFFFFFFFFFFFFFFFFFFFFFFFFFFFFFFFFFFFFFFF AND EXTCODESIZE EQ JUMPDEST ISZERO PUSH2 0x1678 JUMPI DUP4 PUSH1 0x40 MLOAD PUSH32 0x5274AFE700000000000000000000000000000000000000000000000000000000 DUP2 MSTORE PUSH1 0x4 ADD PUSH2 0x166F SWAP2 SWAP1 PUSH2 0x1747 JUMP JUMPDEST PUSH1 0x40 MLOAD DUP1 SWAP2 SUB SWAP1 REVERT JUMPDEST POP POP POP POP JUMP JUMPDEST PUSH0 DUP2 SWAP1 POP SWAP2 SWAP1 POP JUMP JUMPDEST PUSH2 0x1690 DUP2 PUSH2 0x167E JUMP JUMPDEST DUP3 MSTORE POP POP JUMP JUMPDEST PUSH0 PUSH1 0x20 DUP3 ADD SWAP1 POP PUSH2 0x16A9 PUSH0 DUP4 ADD DUP5 PUSH2 0x1687 JUMP JUMPDEST SWAP3 SWAP2 POP POP JUMP JUMPDEST PUSH0 PUSH0 REVERT JUMPDEST PUSH0 PUSH20 0xFFFFFFFFFFFFFFFFFFFFFFFFFFFFFFFFFFFFFFFF DUP3 AND SWAP1 POP SWAP2 SWAP1 POP JUMP JUMPDEST PUSH0 PUSH2 0x16DC DUP3 PUSH2 0x16B3 JUMP JUMPDEST SWAP1 POP SWAP2 SWAP1 POP JUMP JUMPDEST PUSH2 0x16EC DUP2 PUSH2 0x16D2 JUMP JUMPDEST DUP2 EQ PUSH2 0x16F6 JUMPI PUSH0 PUSH0 REVERT JUMPDEST POP JUMP JUMPDEST PUSH0 DUP2 CALLDATALOAD SWAP1 POP PUSH2 0x1707 DUP2 PUSH2 0x16E3 JUMP JUMPDEST SWAP3 SWAP2 POP POP JUMP JUMPDEST PUSH0 PUSH1 0x20 DUP3 DUP5 SUB SLT ISZERO PUSH2 0x1722 JUMPI PUSH2 0x1721 PUSH2 0x16AF JUMP JUMPDEST JUMPDEST PUSH0 PUSH2 0x172F DUP5 DUP3 DUP6 ADD PUSH2 0x16F9 JUMP JUMPDEST SWAP2 POP POP SWAP3 SWAP2 POP POP JUMP JUMPDEST PUSH2 0x1741 DUP2 PUSH2 0x16D2 JUMP JUMPDEST DUP3 MSTORE POP POP JUMP JUMPDEST PUSH0 PUSH1 0x20 DUP3 ADD SWAP1 POP PUSH2 0x175A PUSH0 DUP4 ADD DUP5 PUSH2 0x1738 JUMP JUMPDEST SWAP3 SWAP2 POP POP JUMP JUMPDEST PUSH2 0x1769 DUP2 PUSH2 0x167E JUMP JUMPDEST DUP2 EQ PUSH2 0x1773 JUMPI PUSH0 PUSH0 REVERT JUMPDEST POP JUMP JUMPDEST PUSH0 DUP2 CALLDATALOAD SWAP1 POP PUSH2 0x1784 DUP2 PUSH2 0x1760 JUMP JUMPDEST SWAP3 SWAP2 POP POP JUMP JUMPDEST PUSH0 PUSH1 0x20 DUP3 DUP5 SUB SLT ISZERO PUSH2 0x179F JUMPI PUSH2 0x179E PUSH2 0x16AF JUMP JUMPDEST JUMPDEST PUSH0 PUSH2 0x17AC DUP5 DUP3 DUP6 ADD PUSH2 0x1776 JUMP JUMPDEST SWAP2 POP POP SWAP3 SWAP2 POP POP JUMP JUMPDEST PUSH0 PUSH0 PUSH1 0x40 DUP4 DUP6 SUB SLT ISZERO PUSH2 0x17CB JUMPI PUSH2 0x17CA PUSH2 0x16AF JUMP JUMPDEST JUMPDEST PUSH0 PUSH2 0x17D8 DUP6 DUP3 DUP7 ADD PUSH2 0x16F9 JUMP JUMPDEST SWAP3 POP POP PUSH1 0x20 PUSH2 0x17E9 DUP6 DUP3 DUP7 ADD PUSH2 0x16F9 JUMP JUMPDEST SWAP2 POP POP SWAP3 POP SWAP3 SWAP1 POP JUMP JUMPDEST PUSH0 DUP2 SWAP1 POP SWAP2 SWAP1 POP JUMP JUMPDEST PUSH0 PUSH2 0x1816 PUSH2 0x1811 PUSH2 0x180C DUP5 PUSH2 0x16B3 JUMP JUMPDEST PUSH2 0x17F3 JUMP JUMPDEST PUSH2 0x16B3 JUMP JUMPDEST SWAP1 POP SWAP2 SWAP1 POP JUMP JUMPDEST PUSH0 PUSH2 0x1827 DUP3 PUSH2 0x17FC JUMP JUMPDEST SWAP1 POP SWAP2 SWAP1 POP JUMP JUMPDEST PUSH0 PUSH2 0x1838 DUP3 PUSH2 0x181D JUMP JUMPDEST SWAP1 POP SWAP2 SWAP1 POP JUMP JUMPDEST PUSH2 0x1848 DUP2 PUSH2 0x182E JUMP JUMPDEST DUP3 MSTORE POP POP JUMP JUMPDEST PUSH0 PUSH1 0x20 DUP3 ADD SWAP1 POP PUSH2 0x1861 PUSH0 DUP4 ADD DUP5 PUSH2 0x183F JUMP JUMPDEST SWAP3 SWAP2 POP POP JUMP JUMPDEST PUSH0 PUSH2 0x1871 DUP3 PUSH2 0x181D JUMP JUMPDEST SWAP1 POP SWAP2 SWAP1 POP JUMP JUMPDEST PUSH2 0x1881 DUP2 PUSH2 0x1867 JUMP JUMPDEST DUP3 MSTORE POP POP JUMP JUMPDEST PUSH0 PUSH1 0x20 DUP3 ADD SWAP1 POP PUSH2 0x189A PUSH0 DUP4 ADD DUP5 PUSH2 0x1878 JUMP JUMPDEST SWAP3 SWAP2 POP POP JUMP JUMPDEST PUSH0 DUP2 MLOAD SWAP1 POP PUSH2 0x18AE DUP2 PUSH2 0x1760 JUMP JUMPDEST SWAP3 SWAP2 POP POP JUMP JUMPDEST PUSH0 PUSH1 0x20 DUP3 DUP5 SUB SLT ISZERO PUSH2 0x18C9 JUMPI PUSH2 0x18C8 PUSH2 0x16AF JUMP JUMPDEST JUMPDEST PUSH0 PUSH2 0x18D6 DUP5 DUP3 DUP6 ADD PUSH2 0x18A0 JUMP JUMPDEST SWAP2 POP POP SWAP3 SWAP2 POP POP JUMP JUMPDEST PUSH32 0x4E487B7100000000000000000000000000000000000000000000000000000000 PUSH0 MSTORE PUSH1 0x11 PUSH1 0x4 MSTORE PUSH1 0x24 PUSH0 REVERT JUMPDEST PUSH0 PUSH2 0x1916 DUP3 PUSH2 0x167E JUMP JUMPDEST SWAP2 POP PUSH2 0x1921 DUP4 PUSH2 0x167E JUMP JUMPDEST SWAP3 POP DUP3 DUP3 ADD SWAP1 POP DUP1 DUP3 GT ISZERO PUSH2 0x1939 JUMPI PUSH2 0x1938 PUSH2 0x18DF JUMP JUMPDEST JUMPDEST SWAP3 SWAP2 POP POP JUMP JUMPDEST PUSH0 DUP3 DUP3 MSTORE PUSH1 0x20 DUP3 ADD SWAP1 POP SWAP3 SWAP2 POP POP JUMP JUMPDEST PUSH32 0x496E73756666696369656E742062616C616E6365000000000000000000000000 PUSH0 DUP3 ADD MSTORE POP JUMP JUMPDEST PUSH0 PUSH2 0x1983 PUSH1 0x14 DUP4 PUSH2 0x193F JUMP JUMPDEST SWAP2 POP PUSH2 0x198E DUP3 PUSH2 0x194F JUMP JUMPDEST PUSH1 0x20 DUP3 ADD SWAP1 POP SWAP2 SWAP1 POP JUMP JUMPDEST PUSH0 PUSH1 0x60 DUP3 ADD SWAP1 POP PUSH2 0x19AC PUSH0 DUP4 ADD DUP6 PUSH2 0x1687 JUMP JUMPDEST PUSH2 0x19B9 PUSH1 0x20 DUP4 ADD DUP5 PUSH2 0x1738 JUMP JUMPDEST DUP2 DUP2 SUB PUSH1 0x40 DUP4 ADD MSTORE PUSH2 0x19CA DUP2 PUSH2 0x1977 JUMP JUMPDEST SWAP1 POP SWAP4 SWAP3 POP POP POP JUMP JUMPDEST PUSH0 PUSH2 0x19DD DUP3 PUSH2 0x167E JUMP JUMPDEST SWAP2 POP PUSH2 0x19E8 DUP4 PUSH2 0x167E JUMP JUMPDEST SWAP3 POP DUP3 DUP3 SUB SWAP1 POP DUP2 DUP2 GT ISZERO PUSH2 0x1A00 JUMPI PUSH2 0x19FF PUSH2 0x18DF JUMP JUMPDEST JUMPDEST SWAP3 SWAP2 POP POP JUMP JUMPDEST PUSH0 PUSH2 0x1A10 DUP3 PUSH2 0x167E JUMP JUMPDEST SWAP2 POP PUSH32 0xFFFFFFFFFFFFFFFFFFFFFFFFFFFFFFFFFFFFFFFFFFFFFFFFFFFFFFFFFFFFFFFF DUP3 SUB PUSH2 0x1A42 JUMPI PUSH2 0x1A41 PUSH2 0x18DF JUMP JUMPDEST JUMPDEST PUSH1 0x1 DUP3 ADD SWAP1 POP SWAP2 SWAP1 POP JUMP JUMPDEST PUSH0 PUSH1 0x40 DUP3 ADD SWAP1 POP PUSH2 0x1A60 PUSH0 DUP4 ADD DUP6 PUSH2 0x1738 JUMP JUMPDEST PUSH2 0x1A6D PUSH1 0x20 DUP4 ADD DUP5 PUSH2 0x1687 JUMP JUMPDEST SWAP4 SWAP3 POP POP POP JUMP JUMPDEST PUSH32 0x43616E6E6F74207769746864726177206D6F7265207468616E20302E30312045 PUSH0 DUP3 ADD MSTORE PUSH32 0x5448000000000000000000000000000000000000000000000000000000000000 PUSH1 0x20 DUP3 ADD MSTORE POP JUMP JUMPDEST PUSH0 PUSH2 0x1ACE PUSH1 0x22 DUP4 PUSH2 0x193F JUMP JUMPDEST SWAP2 POP PUSH2 0x1AD9 DUP3 PUSH2 0x1A74 JUMP JUMPDEST PUSH1 0x40 DUP3 ADD SWAP1 POP SWAP2 SWAP1 POP JUMP JUMPDEST PUSH0 PUSH1 0x60 DUP3 ADD SWAP1 POP PUSH2 0x1AF7 PUSH0 DUP4 ADD DUP6 PUSH2 0x1687 JUMP JUMPDEST PUSH2 0x1B04 PUSH1 0x20 DUP4 ADD DUP5 PUSH2 0x1738 JUMP JUMPDEST DUP2 DUP2 SUB PUSH1 0x40 DUP4 ADD MSTORE PUSH2 0x1B15 DUP2 PUSH2 0x1AC2 JUMP JUMPDEST SWAP1 POP SWAP4 SWAP3 POP POP POP JUMP JUMPDEST PUSH0 DUP2 SWAP1 POP SWAP3 SWAP2 POP POP JUMP JUMPDEST POP JUMP JUMPDEST PUSH0 PUSH2 0x1B36 PUSH0 DUP4 PUSH2 0x1B1E JUMP JUMPDEST SWAP2 POP PUSH2 0x1B41 DUP3 PUSH2 0x1B28 JUMP JUMPDEST PUSH0 DUP3 ADD SWAP1 POP SWAP2 SWAP1 POP JUMP JUMPDEST PUSH0 PUSH2 0x1B55 DUP3 PUSH2 0x1B2B JUMP JUMPDEST SWAP2 POP DUP2 SWAP1 POP SWAP2 SWAP1 POP JUMP JUMPDEST PUSH32 0x5769746864726177616C206661696C6564000000000000000000000000000000 PUSH0 DUP3 ADD MSTORE POP JUMP JUMPDEST PUSH0 PUSH2 0x1B93 PUSH1 0x11 DUP4 PUSH2 0x193F JUMP JUMPDEST SWAP2 POP PUSH2 0x1B9E DUP3 PUSH2 0x1B5F JUMP JUMPDEST PUSH1 0x20 DUP3 ADD SWAP1 POP SWAP2 SWAP1 POP JUMP JUMPDEST PUSH0 PUSH1 0x20 DUP3 ADD SWAP1 POP DUP2 DUP2 SUB PUSH0 DUP4 ADD MSTORE PUSH2 0x1BC0 DUP2 PUSH2 0x1B87 JUMP JUMPDEST SWAP1 POP SWAP2 SWAP1 POP JUMP JUMPDEST PUSH32 0x476C6F62616C206C696D69742072656163686564000000000000000000000000 PUSH0 DUP3 ADD MSTORE POP JUMP JUMPDEST PUSH0 PUSH2 0x1BFB PUSH1 0x14 DUP4 PUSH2 0x193F JUMP JUMPDEST SWAP2 POP PUSH2 0x1C06 DUP3 PUSH2 0x1BC7 JUMP JUMPDEST PUSH1 0x20 DUP3 ADD SWAP1 POP SWAP2 SWAP1 POP JUMP JUMPDEST PUSH0 PUSH1 0x40 DUP3 ADD SWAP1 POP PUSH2 0x1C24 PUSH0 DUP4 ADD DUP5 PUSH2 0x1687 JUMP JUMPDEST DUP2 DUP2 SUB PUSH1 0x20 DUP4 ADD MSTORE PUSH2 0x1C35 DUP2 PUSH2 0x1BEF JUMP JUMPDEST SWAP1 POP SWAP3 SWAP2 POP POP JUMP JUMPDEST PUSH32 0x5A65726F206465706F7369740000000000000000000000000000000000000000 PUSH0 DUP3 ADD MSTORE POP JUMP JUMPDEST PUSH0 PUSH2 0x1C71 PUSH1 0xC DUP4 PUSH2 0x193F JUMP JUMPDEST SWAP2 POP PUSH2 0x1C7C DUP3 PUSH2 0x1C3D JUMP JUMPDEST PUSH1 0x20 DUP3 ADD SWAP1 POP SWAP2 SWAP1 POP JUMP JUMPDEST PUSH0 PUSH1 0x20 DUP3 ADD SWAP1 POP DUP2 DUP2 SUB PUSH0 DUP4 ADD MSTORE PUSH2 0x1C9E DUP2 PUSH2 0x1C65 JUMP JUMPDEST SWAP1 POP SWAP2 SWAP1 POP JUMP JUMPDEST PUSH0 PUSH1 0x60 DUP3 ADD SWAP1 POP PUSH2 0x1CB8 PUSH0 DUP4 ADD DUP7 PUSH2 0x1738 JUMP JUMPDEST PUSH2 0x1CC5 PUSH1 0x20 DUP4 ADD DUP6 PUSH2 0x1738 JUMP JUMPDEST PUSH2 0x1CD2 PUSH1 0x40 DUP4 ADD DUP5 PUSH2 0x1687 JUMP JUMPDEST SWAP5 SWAP4 POP POP POP POP JUMP JUMPDEST PUSH0 PUSH2 0x1CE4 DUP3 PUSH2 0x167E JUMP JUMPDEST SWAP2 POP PUSH2 0x1CEF DUP4 PUSH2 0x167E JUMP JUMPDEST SWAP3 POP DUP3 DUP3 MUL PUSH2 0x1CFD DUP2 PUSH2 0x167E JUMP JUMPDEST SWAP2 POP DUP3 DUP3 DIV DUP5 EQ DUP4 ISZERO OR PUSH2 0x1D14 JUMPI PUSH2 0x1D13 PUSH2 0x18DF JUMP JUMPDEST JUMPDEST POP SWAP3 SWAP2 POP POP JUMP JUMPDEST PUSH32 0x4E487B7100000000000000000000000000000000000000000000000000000000 PUSH0 MSTORE PUSH1 0x12 PUSH1 0x4 MSTORE PUSH1 0x24 PUSH0 REVERT JUMPDEST PUSH0 PUSH2 0x1D52 DUP3 PUSH2 0x167E JUMP JUMPDEST SWAP2 POP PUSH2 0x1D5D DUP4 PUSH2 0x167E JUMP JUMPDEST SWAP3 POP DUP3 PUSH2 0x1D6D JUMPI PUSH2 0x1D6C PUSH2 0x1D1B JUMP JUMPDEST JUMPDEST DUP3 DUP3 DIV SWAP1 POP SWAP3 SWAP2 POP POP JUMP JUMPDEST PUSH32 0x5265656E7472616E637947756172643A207265656E7472616E742063616C6C00 PUSH0 DUP3 ADD MSTORE POP JUMP JUMPDEST PUSH0 PUSH2 0x1DAC PUSH1 0x1F DUP4 PUSH2 0x193F JUMP JUMPDEST SWAP2 POP PUSH2 0x1DB7 DUP3 PUSH2 0x1D78 JUMP JUMPDEST PUSH1 0x20 DUP3 ADD SWAP1 POP SWAP2 SWAP1 POP JUMP JUMPDEST PUSH0 PUSH1 0x20 DUP3 ADD SWAP1 POP DUP2 DUP2 SUB PUSH0 DUP4 ADD MSTORE PUSH2 0x1DD9 DUP2 PUSH2 0x1DA0 JUMP JUMPDEST SWAP1 POP SWAP2 SWAP1 POP JUMP JUMPDEST PUSH0 PUSH10 0xFFFFFFFFFFFFFFFFFFFF DUP3 AND SWAP1 POP SWAP2 SWAP1 POP JUMP JUMPDEST PUSH2 0x1DFE DUP2 PUSH2 0x1DE0 JUMP JUMPDEST DUP2 EQ PUSH2 0x1E08 JUMPI PUSH0 PUSH0 REVERT JUMPDEST POP JUMP JUMPDEST PUSH0 DUP2 MLOAD SWAP1 POP PUSH2 0x1E19 DUP2 PUSH2 0x1DF5 JUMP JUMPDEST SWAP3 SWAP2 POP POP JUMP JUMPDEST PUSH0 DUP2 SWAP1 POP SWAP2 SWAP1 POP JUMP JUMPDEST PUSH2 0x1E31 DUP2 PUSH2 0x1E1F JUMP JUMPDEST DUP2 EQ PUSH2 0x1E3B JUMPI PUSH0 PUSH0 REVERT JUMPDEST POP JUMP JUMPDEST PUSH0 DUP2 MLOAD SWAP1 POP PUSH2 0x1E4C DUP2 PUSH2 0x1E28 JUMP JUMPDEST SWAP3 SWAP2 POP POP JUMP JUMPDEST PUSH0 PUSH0 PUSH0 PUSH0 PUSH0 PUSH1 0xA0 DUP7 DUP9 SUB SLT ISZERO PUSH2 0x1E6B JUMPI PUSH2 0x1E6A PUSH2 0x16AF JUMP JUMPDEST JUMPDEST PUSH0 PUSH2 0x1E78 DUP9 DUP3 DUP10 ADD PUSH2 0x1E0B JUMP JUMPDEST SWAP6 POP POP PUSH1 0x20 PUSH2 0x1E89 DUP9 DUP3 DUP10 ADD PUSH2 0x1E3E JUMP JUMPDEST SWAP5 POP POP PUSH1 0x40 PUSH2 0x1E9A DUP9 DUP3 DUP10 ADD PUSH2 0x18A0 JUMP JUMPDEST SWAP4 POP POP PUSH1 0x60 PUSH2 0x1EAB DUP9 DUP3 DUP10 ADD PUSH2 0x18A0 JUMP JUMPDEST SWAP3 POP POP PUSH1 0x80 PUSH2 0x1EBC DUP9 DUP3 DUP10 ADD PUSH2 0x1E0B JUMP JUMPDEST SWAP2 POP POP SWAP3 SWAP6 POP SWAP3 SWAP6 SWAP1 SWAP4 POP JUMP INVALID LOG2 PUSH5 0x6970667358 0x22 SLT KECCAK256 0xDD PUSH9 0xA378EFBD5B40385C27 SWAP1 0xAD MSTORE8 0x21 CALLDATACOPY 0xA6 PUSH23 0x7C7083100FC38FEA5F37C7F974B64736F6C634300081E STOP CALLER "
				},
				"gasEstimates": {
					"creation": {
						"codeDepositCost": "1587000",
						"executionCost": "infinite",
						"totalCost": "infinite"
					},
					"external": {
						"contractBalanceInUSDC()": "infinite",
						"depositETH()": "infinite",
						"depositUSDC(uint256)": "infinite",
						"i_usdc()": "infinite",
						"owner()": "2581",
						"renounceOwnership()": "infinite",
						"s_bankCapital()": "2449",
						"s_depositCount()": "2492",
						"s_depositLimit()": "2536",
						"s_oracle()": "infinite",
						"s_totalDeposits()": "2471",
						"s_vault(address,address)": "infinite",
						"s_withdrawCount()": "2537",
						"setBankCapital(uint256)": "infinite",
						"setDepositLimit(uint256)": "infinite",
						"setOracle(address)": "infinite",
						"transferOwnership(address)": "infinite",
						"viewETHBalance(address)": "infinite",
						"viewUSDCBalance(address)": "infinite",
						"withdrawETH(uint256)": "infinite",
						"withdrawUSDC(uint256)": "infinite"
					},
					"internal": {
						"_convertETHtoUSDC(uint256)": "infinite",
						"_exceedsDepositLimit(uint256)": "infinite",
						"_getETHUSDPrice()": "infinite"
					}
				},
				"methodIdentifiers": {
					"contractBalanceInUSDC()": "6bec1ed0",
					"depositETH()": "f6326fb3",
					"depositUSDC(uint256)": "f688bcfb",
					"i_usdc()": "ff40e1d0",
					"owner()": "8da5cb5b",
					"renounceOwnership()": "715018a6",
					"s_bankCapital()": "16123524",
					"s_depositCount()": "cac2e25f",
					"s_depositLimit()": "a00cad48",
					"s_oracle()": "fc457792",
					"s_totalDeposits()": "52963c2b",
					"s_vault(address,address)": "a1eaa644",
					"s_withdrawCount()": "78234a3b",
					"setBankCapital(uint256)": "8eddc8f9",
					"setDepositLimit(uint256)": "bdc8144b",
					"setOracle(address)": "7adbf973",
					"transferOwnership(address)": "f2fde38b",
					"viewETHBalance(address)": "dcd725a7",
					"viewUSDCBalance(address)": "8c8bdae9",
					"withdrawETH(uint256)": "f14210a6",
					"withdrawUSDC(uint256)": "db81f99b"
				}
			},
			"storageLayout": {
				"storage": [
					{
						"astId": 54,
						"contract": "contracts/KipuBankV2.sol:KipuBankV2",
						"label": "_owner",
						"offset": 0,
						"slot": "0",
						"type": "t_address"
					},
					{
						"astId": 294,
						"contract": "contracts/KipuBankV2.sol:KipuBankV2",
						"label": "_status",
						"offset": 0,
						"slot": "1",
						"type": "t_uint256"
					},
					{
						"astId": 959,
						"contract": "contracts/KipuBankV2.sol:KipuBankV2",
						"label": "s_vault",
						"offset": 0,
						"slot": "2",
						"type": "t_mapping(t_address,t_mapping(t_address,t_uint256))"
					},
					{
						"astId": 963,
						"contract": "contracts/KipuBankV2.sol:KipuBankV2",
						"label": "s_oracle",
						"offset": 0,
						"slot": "3",
						"type": "t_contract(AggregatorV3Interface)45"
					},
					{
						"astId": 982,
						"contract": "contracts/KipuBankV2.sol:KipuBankV2",
						"label": "s_depositLimit",
						"offset": 0,
						"slot": "4",
						"type": "t_uint256"
					},
					{
						"astId": 985,
						"contract": "contracts/KipuBankV2.sol:KipuBankV2",
						"label": "s_totalDeposits",
						"offset": 0,
						"slot": "5",
						"type": "t_uint256"
					},
					{
						"astId": 988,
						"contract": "contracts/KipuBankV2.sol:KipuBankV2",
						"label": "s_bankCapital",
						"offset": 0,
						"slot": "6",
						"type": "t_uint256"
					},
					{
						"astId": 995,
						"contract": "contracts/KipuBankV2.sol:KipuBankV2",
						"label": "s_withdrawCount",
						"offset": 0,
						"slot": "7",
						"type": "t_uint256"
					},
					{
						"astId": 997,
						"contract": "contracts/KipuBankV2.sol:KipuBankV2",
						"label": "s_depositCount",
						"offset": 0,
						"slot": "8",
						"type": "t_uint256"
					}
				],
				"types": {
					"t_address": {
						"encoding": "inplace",
						"label": "address",
						"numberOfBytes": "20"
					},
					"t_contract(AggregatorV3Interface)45": {
						"encoding": "inplace",
						"label": "contract AggregatorV3Interface",
						"numberOfBytes": "20"
					},
					"t_mapping(t_address,t_mapping(t_address,t_uint256))": {
						"encoding": "mapping",
						"key": "t_address",
						"label": "mapping(address => mapping(address => uint256))",
						"numberOfBytes": "32",
						"value": "t_mapping(t_address,t_uint256)"
					},
					"t_mapping(t_address,t_uint256)": {
						"encoding": "mapping",
						"key": "t_address",
						"label": "mapping(address => uint256)",
						"numberOfBytes": "32",
						"value": "t_uint256"
					},
					"t_uint256": {
						"encoding": "inplace",
						"label": "uint256",
						"numberOfBytes": "32"
					}
				}
			},
			"userdoc": {
				"kind": "user",
				"methods": {
					"contractBalanceInUSDC()": {
						"notice": "Retorna el balance total del contrato en unidades USDC."
					},
					"depositETH()": {
						"notice": "Permite depositar ETH en la bóveda personal."
					},
					"depositUSDC(uint256)": {
						"notice": "Permite depositar USDC directamente."
					},
					"i_usdc()": {
						"notice": "Token USDC usado por el contrato."
					},
					"s_bankCapital()": {
						"notice": "Capital máximo permitido en el banco."
					},
					"s_depositLimit()": {
						"notice": "Límite global de depósitos (en unidades USDC, 6 decimales)."
					},
					"s_oracle()": {
						"notice": "Oráculo de precios (por ejemplo, ETH/USD de Chainlink)."
					},
					"s_totalDeposits()": {
						"notice": "Total acumulado de depósitos (en USDC-units)."
					},
					"s_vault(address,address)": {
						"notice": "Bóveda: mapea usuario => token => cantidad."
					},
					"s_withdrawCount()": {
						"notice": "Contadores de operaciones."
					},
					"setBankCapital(uint256)": {
						"notice": "Permite al propietario ajustar el capital máximo del banco."
					},
					"setDepositLimit(uint256)": {
						"notice": "Permite al propietario ajustar el límite global de depósitos."
					},
					"setOracle(address)": {
						"notice": "Permite actualizar el oráculo de precios."
					},
					"viewETHBalance(address)": {
						"notice": "Retorna el saldo del usuario en ETH convertido a USDC."
					},
					"viewUSDCBalance(address)": {
						"notice": "Retorna el saldo del usuario en USDC."
					},
					"withdrawETH(uint256)": {
						"notice": "Permite al usuario retirar ETH de su bóveda."
					},
					"withdrawUSDC(uint256)": {
						"notice": "Permite retirar USDC desde la bóveda personal."
					}
				},
				"notice": "Contrato bancario descentralizado que permite depósitos y retiros en ETH y USDC.         Utiliza Chainlink como oráculo de precios y controla límites globales y de capital.",
				"version": 1
			}
		}
	}
}